:020000040800F2
:100000000050002039280008551200085712000837
:10001000591200085B1200085D1200080000000081
:100020000000000000000000000000005F12000857
:100030006112000800000000631200086512000849
:1000400081280008812800088128000881280008EC
:1000500081280008812800088128000881280008DC
:1000600081280008812800088128000881280008CC
:1000700081280008812800088128000881280008BC
:1000800081280008812800088128000881280008AC
:10009000812800088128000881280008812800089C
:1000A000812800088128000881280008812800088C
:1000B000812800088128000881280008812800087C
:1000C000812800088128000881280008812800086C
:1000D000812800088128000881280008812800085C
:1000E00081280008812800088128000800000000FD
:1000F0000000000000000000000000000000000000
:0C01000000000000000000005FF808F1A3
:10010C000348044B834202D0034B03B1184770479A
:10011C005C0000205C000020000000000548064B3D
:10012C001B1AD90F01EBA301491002D0034B03B1E9
:10013C00184770475C0000205C00002000000000A5
:10014C0010B5064C237843B9FFF7DAFF044B13B113
:10015C000448AFF300800123237010BD5C00002025
:10016C00000000008428000808B5044B1BB10449AA
:10017C000448AFF30080BDE80840CFE70000000062
:10018C00600000208428000870B50F4B0F4DAB4267
:10019C00A3EB050607D00024B61055F8043B013438
:1001AC009847A642F9D802F067FB094D094B5E1B34
:1001BC00AB424FEAA60606D0002455F8043B0134A6
:1001CC009847A642F9D870BD342900083429000894
:1001DC00342900083829000870B5860747D0541E0A
:1001EC00002A3ED00346CAB201E0013C39D303F8E1
:1001FC00012B9D07F9D1032C2CD9CDB205EB05258C
:10020C000F2C1A4605EB054534D9A4F1100C2CF033
:10021C000F0603F1100EB6444FEA1C1CC2E9005540
:10022C00C2E9025510327245F8D10CF1010214F0FA
:10023C000C0F03EB021204F00F0C13D0ACF10403FF
:10024C0023F003030433134442F8045B9342FBD1C1
:10025C000CF003042CB1C9B21C4403F8011BA342DB
:10026C00FBD170BD64461346002CF4D1F9E703466C
:10027C001446C0E7A446E1E7014B1868704700BF7D
:10028C000000002008B410B5002A04469DB034DBF1
:10029C004FF4027C4FF00003ADF814C01B934FF6E3
:1002AC00FF7C0291069120AB15D0013A0492079283
:1002BC0002A91F9A0193ADF816C000F051F9421C27
:1002CC0001DA8B2323600022029B1A701DB0BDE85B
:1002DC00104001B070470492079202A91F9A019333
:1002EC00ADF816C000F03CF9431C01DA8B232360F7
:1002FC001DB0BDE8104001B070478B234FF0FF30AC
:10030C002360F5E70CB410B5204B00291C689CB099
:10031C0036DB4FF000034FF402721B934FF6FF7C59
:10032C0002900690ADF814201FAB16D001391E9A1E
:10033C0004910791204602A90193ADF816C000F074
:10034C000FF9421C01DA8B2323600022029B1A70E6
:10035C001CB0BDE8104002B07047049107912046D4
:10036C001E9A02A90193ADF816C000F0F9F8431CCF
:10037C0001DA8B2323601CB0BDE8104002B070473B
:10038C008B234FF0FF302360F5E700BF0000002007
:10039C002DE9F0471D468F680C46AF4216460B6898
:1003AC0036D8B1F90CC01CF4906F0ED13D461846EE
:1003BC0031462A4600F0F0FA0020A368DF1B2368C0
:1003CC00A7602B442360BDE8F0874A69096902EBFA
:1003DC0042025F1A02EBD2726B1C52103B449342E6
:1003EC0092BF914699461A461CF4806F804611D0F4
:1003FC00114600F0F3F9824600B33A46216900F049
:10040C0049FBA38923F4906343F08003A38105E0A7
:10041C002F46CCE700F0B4FB824658B10AEB070339
:10042C00A9EB0707A760C4F810A02F46C4F81490D6
:10043C002360BCE74046216900F050FA0C22A389E6
:10044C004FF0FF3043F04003C8F80020A381BAE717
:10045C002DE9F04F936883B0924617680190002BFA
:10046C0076D04FF0000B0C465D468B680A6848E06E
:10047C00B4F90CC01CF4906F2FD0D4E90403A2EB98
:10048C00000803EB430202EBD27208F10101521097
:10049C002944914292BF914689460A461CF4806FCA
:1004AC0039D01146019800F099F9064600283DD044
:1004BC004246216900F0EEFAA28922F4906242F0E1
:1004CC008002A28106EB0800A9EB08022661A8466F
:1004DC002E46A2602060C4F814903246594600F0B3
:1004EC005BFADAF80810A3682268A3EB080332441D
:1004FC00491BA3602260CAF8081049B3D7E900B5BC
:10050C00083798461046002DF8D09D421E46AFD2B3
:10051C00A8462E46E1E70146019800F031FB06465D
:10052C000028CFD10198216900F0D8F90C21A389BA
:10053C00019D43F0400329600022A3814FF0FF305E
:10054C000023CAF80820CAF8043003B0BDE8F08FC5
:10055C0000200023CAF8043003B0BDE8F08F00BFC0
:10056C002DE9F04F1C468B8989461D068246934621
:10057C009DB003D50B69002B00F0EE80002343F2F5
:10058C00200209939BF8003001277C4E0394ADF8B0
:10059C002920002B71D05D4603E015F8013F002B9C
:1005AC0073D0252BF9D1B5EB0B0471D12A78002A25
:1005BC0063D000234FF0FF320135CDE905230493BE
:1005CC0007938DF853301A9306E02546049B801B45
:1005DC0007FA00F0034304932C46052214F8011B80
:1005EC00304600F0D7FCA3460028EED1049BD90678
:1005FC0044BF20228DF853201A0748BF2B2229789C
:10060C0048BF8DF853202A294FD1039A1168043220
:10061C00002903927BDB079169782E295BD0584C1B
:10062C000322204600F0B6FC38B14022049B001B8C
:10063C00824013430BF1010B04931BF8011B0622A0
:10064C0050488DF8281000F0A5FC002865D04E4BC2
:10065C00002B55D003A900914A4650464B4B04A998
:10066C00AFF300808046B8F1FF3F06D0099B4344AE
:10067C0009939BF80030002B8DD1B9F80C305B0638
:10068C0079D409981DB0BDE8F08FB5EB0B04F4D00C
:10069C0023465A4649465046FFF77AFE0130ECD0C5
:1006AC00099B2A782344099381E7A1F13002092A96
:1006BC0088BFAB46B1D8079B00E00134217803EB2F
:1006CC00830302EB4303A1F13002092AF5D92E2949
:1006DC00A3460793A3D19BF801102A2927D1039B8A
:1006EC000BF102001A680433002A0393B8BF4FF0D1
:1006FC00FF339BF8021005928346B8BF05938EE733
:10070C00039B073323F0070308330393AEE74942F7
:10071C0043F00203079104937EE703A900914A4634
:10072C0050461A4B04A900F0EFFA80469BE70023D1
:10073C00A1F13002092A0BF1010B05933FF66FAFC3
:10074C001BF8011F03EB830302EB4303A1F13002FF
:10075C00092AF5D9059362E7402100F03FF8C9F862
:10076C000000C9F8100018B14023C9F8143005E78F
:10077C000C23CAF800304FF0FF3083E7B028000894
:10078C00B8280008BC280008000000009D030008E1
:10079C0070B5114E054633680C46BBB12146284650
:1007AC0000F044FC431C01460CD0C41C24F0030490
:1007BC00A04205D02846611A00F038FC013001D067
:1007CC00204670BD4FF0FF34204670BD194600F036
:1007DC002DFC3060E2E700BFB40100202DE9F843A6
:1007EC00CD1C25F0030508350C2D38BF0C25002D2C
:1007FC00064618DBA94216D8DFF8DC8000F0C6FBF1
:10080C00D8F80420A2B1144603E0636822467BB1F9
:10081C001C4623685B1BF8D40B2B1FD894426368CF
:10082C0054D053600CE00C2333600020BDE8F883F7
:10083C0029463046FFF7ACFF431C044619D005602F
:10084C00304600F0A5FB04F10B00231D20F007003F
:10085C00C21A1CBF1B1AA350BDE8F883611994423D
:10086C00256014BF5160C8F80410635163684B6075
:10087C00E6E7D8F804701FB33C467F68002FFBD125
:10088C0023683946304604EB030900F0CFFB814561
:10089C0016D123683046ED1A2946FFF779FF01304F
:1008AC000ED02368D8F804202B442360536883B1FE
:1008BC00A34203D01A465B689C42FBD10023B0E7ED
:1008CC000C233046336000F063FBAEE7C8F804300D
:1008DC00B6E7C8F80470B3E7B4010020002950D083
:1008EC0038B551F8043C0C1F002BB8BFE418054672
:1008FC0000F04CFB274A13682BB1A3420CD921689A
:10090C00601883422CD0284663601460BDE83840E0
:10091C0000F03EBBA3420FD81A465B68002BF9D1FE
:10092C0011685018844217D02CD363605460284649
:10093C00BDE8384000F02CBB11685018A04214D010
:10094C0020D8216860188342EFD118685B6808448E
:10095C00C4E900035460EAE723680B441360E6E73C
:10096C0018685B6808442060CDE720680144501883
:10097C0083421160DBD1D3E900040144C2E90014C5
:10098C00D5E770470C2328462B60BDE8384000F0B3
:10099C00FFBA00BFB801002088420ED98B188342E1
:1009AC000BD900EB020C002A6DD0624613F801CD76
:1009BC00994202F801CDF9D170470F2A0FD803469E
:1009CC0002F1FF3C002A5ED00CF1010C013B8C447F
:1009DC0011F8012B614503F8012FF9D1704740EA5A
:1009EC0001039B0750D1A2F1100370B501F1200C4B
:1009FC0023F00F0501F1100E00F11004AC441B099B
:100A0C005EF8105C0EF1100E44F8105C5EF81C5C85
:100A1C00103444F81C5C5EF8185C44F8185C5EF802
:100A2C00145CE64544F8145CEAD1013312F00C0F67
:100A3C0001EB031102F00F0400EB031328D08E46D8
:100A4C00043C24F003064FEA940C1E441C1F5EF871
:100A5C00045B44F8045FB442F9D10CF1010402F0D8
:100A6C00030203EB840301EB840102F1FF3C4AB166
:100A7C000CF1010C013B8C4411F8012B614503F87E
:100A8C00012FF9D170BD7047034602F1FF3C9BE783
:100A9C002246EAE7844641EA000313F0030349D1F6
:100AAC00403A23D30B6803604B6843608B688360C8
:100ABC00CB68C3600B6903614B6943618B698361CC
:100ACC00CB69C3610B6A03624B6A43628B6A8362B4
:100ADC00CB6AC3620B6B03634B6B43638B6B83639C
:100AEC00CB6BC36340304031403ADBD230320BD356
:100AFC000B6803604B6843608B688360CB68C36092
:100B0C0010301031103AF3D20C3205D351F8043BAB
:100B1C0040F8043B043AF9D2043208D0D2071CBF87
:100B2C0011F8013B00F8013B01D30B8803806046B0
:100B3C00704700BF082A13D38B07B1D010F0030302
:100B4C00AED0C3F10403D21ADB071CBF11F8013B72
:100B5C0000F8013BA4D331F8023B20F8023B9FE79D
:100B6C00043AD9D3013A11F8013B00F8013BF9D210
:100B7C000B7803704B7843708B78837060467047AA
:100B8C002DE9F041144641B30AB306460D4600F078
:100B9C005FFA8442074602D8B4EB500F13D82146B3
:100BAC003046FFF71BFE804650B1BC422246294618
:100BBC0028BF3A46FFF76EFF29463046FFF78EFEF8
:100BCC004046BDE8F081A8464046BDE8F081A0460D
:100BDC00FFF784FE4046BDE8F0811146BDE8F041C8
:100BEC00FFF7FCBD2DE9F84F92461F460A698B684A
:100BFC000C469A42B8BF1A46CAF8002091F8433006
:100C0C000646DDF8289013B10132CAF8002022689C
:100C1C0091065FD5DAF800300233CAF8003022684A
:100C2C0012F0060F11461DD1E1689942D8BF11464A
:100C3C0018DD4FF0000804F1190B05E0E568DAF84F
:100C4C000030ED1A45450CDD01235A463946304635
:100C5C00C847013008F10108F0D14FF0FF30BDE872
:100C6C00F88F216894F84330003B18BF01238A06A3
:100C7C000AD53021E21882F8431094F845105A1C1A
:100C8C002244023382F843103946304604F14302C1
:100C9C00C8470130E1D0D4E902202368DAF80050CB
:100CAC0003F00603042B21691BD08A4220DD4FF090
:100CBC000008521A904400251A3401E0454517DA11
:100CCC000123224639463046C847013005F101055B
:100CDC00F4D1C2E712F0060F0DD0003B18BF012370
:100CEC00D2E7401B8A4220EAE078E2DC0028E2DC12
:100CFC000020BDE8F88FE168DAF800309942D8BFDF
:100D0C00114696DCAEE700BF2DE9F04717460A7E88
:100D1C0084B00C46064698460C9D01F1430C002A03
:100D2C0035D0A2F15803D9B2202969D8202B67D825
:100D3C00DFE813F0E60066006600660066006600F9
:100D4C0066006600660066006600AC007000660017
:100D5C00660066006600700066006600660066004D
:100D6C0021008300C60066006600B60066008300A2
:100D7C0066006600EC002B682268181D616928600B
:100D8C0010061B6802D4520600F1E08019600023A3
:100D9C00E14623613B4621463046CDF8008003AA4C
:100DAC00FFF720FF013020D04A46394630462369F0
:100DBC00C047013019D02368E0689B07DDF80C9020
:100DCC0018D5484516DD002504F1190A04E0E06841
:100DDC00A0EB0903AB420DDD0123524639463046E8
:100DEC00C047013005F10105F1D14FF0FF3004B0DF
:100DFC00BDE8F0874845B8BF484604B0BDE8F08769
:100E0C00012084F8422004F142090023206184F877
:100E1C004330BFE72A682368111D1806296002D4E5
:100E2C00590600F195801068014600286268C0F2EE
:100E3C0093804FF00A0E534815E020682B6810F091
:100E4C00800F53F8041B02D1400648BF89B26F2AA9
:100E5C0014BF4FF00A0E4FF0080E4A482B600023C7
:100E6C00626884F84330002AA26051DB236823F0C7
:100E7C000403236000294BD1002A7BD1E146BEF14B
:100E8C00080F56D0ACEB0903236183E72A680120D5
:100E9C00116804322A6004F1420984F84210B4E764
:100EAC002B6800211A1D2A60D3F80090626848460E
:100EBC0000F070F8002863D0A0EB09006060A4E794
:100ECC00236843F02003236078222F4884F84520C0
:100EDC002A6813F0800F52F8041B03D113F0400F53
:100EEC0018BF89B22A60DA0744BF43F0200323609D
:100EFC0019B9236823F0200323604FF0100EAEE7DE
:100F0C005823204884F845302368E1E72368DBE761
:100F1C007546E146B1FBF5F30A4605FB131A194673
:100F2C0010F80A30AA4209F8013DF3D2BEF1080FBD
:100F3C00A8D12368DD07A5D5626823699A42A1DC94
:100F4C00302309F1FF3989F800309BE719801EE73F
:100F5C00B2F90010084668E72D20002AA26084F838
:100F6C00430002DB23F0040323600A250548AE4648
:100F7C004942CEE7037804F1420984F842307EE717
:100F8C00606842E7C4280008D8280008704700BFF2
:100F9C00704700BF5FFA81FC810744D00346511EA5
:100FAC0022B909E09A0709D0013905D3184602780D
:100FBC0001336245F6D1704700207047184603296B
:100FCC000CD80029F8D00346014401E08B42F3D041
:100FDC00184613F8012B6245F8D1704710B50CEB8D
:100FEC000C24024604EB044402E00439032915D90D
:100FFC00104652F8043B6340A3F1013E2EEA030372
:10100C0013F0803FF1D00346014401E08B4208D03D
:10101C00184613F8012B6245F8D110BD1046002973
:10102C00F1D1002010BD1146C9E700BF002238B530
:10103C00064D044608462A6001F0ECF8431C00D02B
:10104C0038BD2B68002BFBD0236038BDBC010020C1
:10105C0051F8043C181F002BBCBF0B58C01870472C
:10106C0030B589B000240494059406940794184B69
:10107C009A6942F010029A619A6902F01002019288
:10108C00019A9A6942F008029A619A6902F0080280
:10109C000292029A9A6942F004029A619B6903F0E7
:1010AC0004030393039B0B4D22464FF40051284637
:1010BC0001F03EF84FF4005304930123059306947A
:1010CC000223079304A9284600F024FF09B030BD81
:1010DC00001002400010014072B6FEE708B50A4845
:1010EC000A4B03604FF4E133436000238360C36019
:1010FC0003610C2242618361C36100F0FAF900B90B
:10110C0008BDFFF7E9FF00BFC00100200038014017
:10111C0000B585B000230193029303931048114A44
:10112C0002608360037303754FF46022C2614360F5
:10113C000123036101F0DCFA68B90923019301234F
:10114C0002930023039301A9054801F04DF920B93E
:10115C0005B05DF804FBFFF7BFFFFFF7BDFF00BF55
:10116C00080200200024014000B595B0282200217F
:10117C000DEB0200FFF730F800230593069307935D
:10118C0008930993019302930393049302230A9304
:10119C0001230E9310230F930AA800F0B5FAA8B9F7
:1011AC000F2305930021069107910891099105A839
:1011BC0000F0DCFC60B9022301930023039301A827
:1011CC0000F0B0FD30B915B05DF804FBFFF784FFFB
:1011DC00FFF782FFFFF780FF00B589B000F046FAF9
:1011EC00FFF7C2FFFFF73CFFFFF778FFFFF790FF19
:1011FC0006E0124801F000FB4FF47A7000F05AFA46
:10120C000E4801F0D5F90028F3D10A210B4801F062
:10121C0025F80028EDD1094801F0E2F80346084A08
:10122C0020216846FFF76EF80028E2DD4FF0FF330F
:10123C0082B26946034800F08CF9DAE70802002014
:10124C009C280008C0010020FEE7FEE7FEE7FEE751
:10125C00FEE770477047704708B500F019FA08BDF3
:10126C0082B00E4B9A6942F001029A619A6902F0BF
:10127C0001020092009ADA6942F08052DA61DB696D
:10128C0003F080530193019B054A536823F0E063FC
:10129C0043F00073536002B0704700BF001002406F
:1012AC000000014000B587B0002302930393049320
:1012BC0005930268114B9A4202D007B05DF804FB0B
:1012CC0003F56C439A6942F400729A619A6902F4CC
:1012DC0000720092009A9A6942F008029A619B6926
:1012EC0003F008030193019B02230293032303934E
:1012FC0002A9034800F00EFEDFE700BF0024014006
:10130C00000C014010B586B00023029303930493A4
:10131C0005930268174B9A4201D006B010BD03F535
:10132C0058439A6942F480429A619A6902F4804265
:10133C000092009A9A6942F004029A619B6903F048
:10134C0004030193019B4FF4007302930223039354
:10135C0003230593084C02A9204600F0DBFD4FF453
:10136C008063029300230393049302A9204600F0A8
:10137C00D1FDD2E70038014000080140026802F1BB
:10138C000C0353E8003F23F490730C3242E8003115
:10139C000029F3D1026802F1140353E8003F23F053
:1013AC000103143242E800310029F3D1036B012B05
:1013BC0005D0202380F84230002303637047026875
:1013CC0002F10C0353E8003F23F010030C3242E807
:1013DC0000310029F3D1ECE710B50446026813691B
:1013EC0023F44053C1680B431361836802691343B0
:1013FC0042691A430168CB6823F4B05323F00C0301
:10140C001343CB600268536923F4407381690B4327
:10141C0053610268134B9A4220D000F063FC0246E1
:10142C0002EB820202EB820263689B00B2FBF3F2D6
:10143C000D48A0FB02314909642303FB11231B0156
:10144C003233A0FB03035B0903F0F00202EB011241
:10145C0003F00F03216813448B6010BD00F052FCA5
:10146C000246DDE7003801401F85EB512DE9F043C2
:10147C0083B005460E4617469946DDF828802B6842
:10148C001C6836EA04040CBF01240024BC4228D199
:10149C00B8F1FF3FF3D000F007F9A0EB090040458D
:1014AC0023D8B8F1000F22D02B68DA6812F0040FA1
:1014BC00E5D0802EE3D0402EE1D01A6812F0080F50
:1014CC00DDD0002401941A6801925B680193019BA2
:1014DC002846FFF753FF08236B6485F84040012032
:1014EC0000E0002003B0BDE8F0830320FAE70320FE
:1014FC00F8E760B310B5044690F8413013B32423D9
:10150C0084F841302268D36823F40053D36020461A
:10151C00FFF762FF2268136923F49043136122687A
:10152C00536923F02A0353612268D36843F40053B0
:10153C00D36000206064202384F8413084F842306A
:10154C00606310BD80F84030FFF7DCFED7E7012068
:10155C0070472DE9F04182B01E4690F84130DBB265
:10156C00202B56D104460D469046002955D00AB979
:10157C0001204FE000234364212380F8413000F028
:10158C0093F80746A4F82480A4F82680A368B3F542
:10159C00805F02D04FF0000814E023692BB34FF0AA
:1015AC0000080FE0202384F84130032032E038F8A3
:1015BC00023B2268C3F308035360E28C92B2013AF7
:1015CC0092B2E284E38C9BB293B100963B4600222C
:1015DC0080212046FFF74AFF0028E3D1002DE6D0FA
:1015EC0015F8012B23685A60E7E7A8460025E9E7C0
:1015FC0000963B46002240212046FFF737FF18B9E2
:10160C00202384F8413005E0202384F84130032066
:10161C0000E0022002B0BDE8F0810120FAE70000F2
:10162C0010B504460E4B1A784FF47A73B3FBF2F3F1
:10163C000C4A1068B0FBF3F000F0D6FD68B90F2C23
:10164C0001D901200AE0002221464FF0FF3000F0C2
:10165C00BBFD054B1C60002000E0012010BD00BF4D
:10166C0050000020580000205400002008B5074A04
:10167C00136843F010031360032000F093FD0F2058
:10168C00FFF7CEFFFFF7ECFD002008BD0020024065
:10169C00034A1168034B1B780B441360704700BF5F
:1016AC003802002050000020014B1868704700BF22
:1016BC003802002038B50446FFF7F6FF0546B4F1B2
:1016CC00FF3F02D0044B1B781C44FFF7EDFF401B7F
:1016DC00A042FAD338BD00BF5000002082B0084BA6
:1016EC001B68084AA2FB03235B0A00FB03F301936C
:1016FC0000BF019B5A1E0192002BF9D102B070471A
:10170C0058000020D34D6210002800F0F18170B514
:10171C0082B00446036813F0010F2CD0994B5B6820
:10172C0003F00C03042B1DD0964B5B6803F00C03E9
:10173C00082B12D06368B3F5803F41D0002B55D1F4
:10174C0003F1804303F504331A6822F480321A60E3
:10175C001A6822F480221A6037E08A4B5B6813F413
:10176C00803FE7D0874B1B6813F4003F03D06368BE
:10177C00002B00F0BF81236813F0020F75D0814B52
:10178C005B6813F00C0F5FD07E4B5B6803F00C03AF
:10179C00082B54D02369002B00F08A807A4B01224D
:1017AC001A60FFF781FF0546764B1B6813F0020F9A
:1017BC0075D1FFF779FF401B0228F5D903209EE174
:1017CC00704A136843F480331360636843B3FFF7C4
:1017DC006BFF05466B4B1B6813F4003FCBD1FFF737
:1017EC0063FF401B6428F5D9032088E1B3F5A02FD3
:1017FC0009D0644B1A6822F480321A601A6822F4F9
:10180C0080221A60E1E703F18043A3F53C331A68A8
:10181C0042F480221A601A6842F480321A60D4E7CB
:10182C00FFF742FF0546574B1B6813F4003FA2D04D
:10183C00FFF73AFF401B6428F5D903205FE1514BB9
:10184C005B6813F4803FA5D14E4B1B6813F0020F5D
:10185C0003D02369012B40F04F814A4A136823F0CF
:10186C00F803616943EAC1031360236813F0080F9E
:10187C0033D0A369002B5CD0434B0122C3F88024E6
:10188C00FFF712FF05463F4B5B6A13F0020F21D1A5
:10189C00FFF70AFF401B0228F5D903202FE1394A34
:1018AC00136823F0F803616943EAC1031360DCE7B2
:1018BC00354B00221A60FFF7F7FE0546314B1B68CB
:1018CC0013F0020FD1D0FFF7EFFE401B0228F5D921
:1018DC00032014E10120FFF701FF236813F0040F2C
:1018EC0000F09680274BDB6913F0805F34D1254BD9
:1018FC00DA6942F08052DA61DB6903F080530193BC
:10190C00019B0125214B1B6813F4807F26D0E368D3
:10191C00012B3DD0002B53D103F1804303F504334D
:10192C001A6A22F001021A621A6A22F004021A627E
:10193C0033E0154B0022C3F88024FFF7B5FE0546B3
:10194C00104B5B6A13F0020FC7D0FFF7ADFE401BC4
:10195C000228F5D90320D2E00025D3E70B4A1368FF
:10196C0043F480731360FFF79FFE0646074B1B681A
:10197C0013F4807FCBD1FFF797FE801B6428F5D939
:10198C000320BCE000100240000042420070004006
:10199C005F4A136A43F001031362E36833B3FFF742
:1019AC0083FE06465A4B1B6A13F0020F2FD1FFF72A
:1019BC007BFE801B41F288339842F3D903209EE0D2
:1019CC00052B09D0524B1A6A22F001021A621A6ACC
:1019DC0022F004021A62E0E74D4B1A6A42F004024C
:1019EC001A621A6A42F001021A62D6E7FFF75CFE2D
:1019FC000646474B1B6A13F0020F08D0FFF754FE44
:101A0C00801B41F288339842F3D9032077E0E5B983
:101A1C00E369002B72D03E4A526802F00C02082A8D
:101A2C0056D0022B17D03B4B00221A66FFF73CFE18
:101A3C000446374B1B6813F0007F47D0FFF734FE8A
:101A4C00001B0228F5D9032059E0314AD36923F051
:101A5C008053D361DCE72F4B00221A66FFF724FE7C
:101A6C0005462B4B1B6813F0007F06D0FFF71CFEBE
:101A7C00401B0228F5D9032041E0236AB3F5803FCF
:101A8C001AD023494B6823F47413226A606A024308
:101A9C0013434B601F4B01221A66FFF705FE0446E9
:101AAC001B4B1B6813F0007F0ED1FFF7FDFD001BD5
:101ABC000228F5D9032022E0154A536823F4003399
:101ACC00A1680B435360DCE7002018E0002016E00F
:101ADC00012B16D00E4B5B6803F48031226A9142C5
:101AEC0011D103F47013626A93420ED1002006E008
:101AFC0001207047012002E0012000E0002002B02C
:101B0C0070BD0120FBE70120F9E70120F7E700BFDA
:101B1C0000100240000042420F4B5B6803F00C02C5
:101B2C00082A01D00D487047C3F383420C49885CE6
:101B3C0013F4803F0BD0084B5B68C3F34043094A56
:101B4C00D35C064A02FB00F0B0FBF3F07047064B87
:101B5C0003FB00F0704700BF0010024000127A0037
:101B6C00F0280008EC28000800093D00002800F0CF
:101B7C00A08070B50D460446524B1B6803F007035A
:101B8C008B420BD24F4A136823F007030B431360AD
:101B9C00136803F007038B4240F08D80236813F029
:101BAC00020F17D013F0040F04D0474A536843F4C4
:101BBC00E0635360236813F0080F04D0424A536863
:101BCC0043F460535360404A536823F0F003A16818
:101BDC000B435360236813F0010F31D06368012B62
:101BEC0020D0022B25D0384A126812F0020F64D094
:101BFC0035494A6822F0030213434B60FFF754FD4A
:101C0C000646314B5B6803F00C036268B3EB820F42
:101C1C0016D0FFF749FD801B41F288339842F0D96A
:101C2C00032045E0284A126812F4003FE0D101205D
:101C3C003EE0254A126812F0007FD9D1012037E02E
:101C4C00204B1B6803F00703AB420AD91D4A1368EB
:101C5C0023F007032B431360136803F00703AB4215
:101C6C002DD1236813F0040F06D0174A536823F4C0
:101C7C00E063E1680B435360236813F0080F07D04F
:101C8C00114A536823F46053216943EAC10353603A
:101C9C00FFF742FF0C4B5B68C3F303130B4AD35C97
:101CAC00D8400B4B18600B4B1868FFF7B9FC0020A1
:101CBC0070BD012070470120FAE70120F8E70120F0
:101CCC00F6E700BF00200240001002401C2900086B
:101CDC005800002054000020014B1868704700BFCA
:101CEC005800002008B5FFF7F7FF044B5B68C3F3FF
:101CFC000223034AD35CD84008BD00BF0010024049
:101D0C001429000808B5FFF7E7FF044B5B68C3F321
:101D1C00C223034AD35CD84008BD00BF0010024068
:101D2C001429000870B582B00446036813F0010F43
:101D3C0036D03F4BDB6913F0805F49D13C4BDA69FD
:101D4C0042F08052DA61DB6903F080530193019B0E
:101D5C000125384B1B6813F4807F3BD0344B1B6A36
:101D6C0013F4407313D0626802F440729A420ED09E
:101D7C002F4A136A23F440702F490126C1F840649E
:101D8C000026C1F84064106213F0010F36D1284AC6
:101D9C00136A23F4407361680B431362002D3ED128
:101DAC00236813F0020F06D0214A536823F44043F2
:101DBC00A1680B435360236813F0100F34D01C4AF6
:101DCC00536823F48003E1680B43536000202CE03C
:101DDC000025BEE7174A136843F480731360FFF7BE
:101DEC0063FC0646134B1B6813F4807FB6D1FFF7D8
:101DFC005BFC801B6428F5D9032016E0FFF754FC2C
:101E0C0006460B4B1B6A13F0020FC0D1FFF74CFCBC
:101E1C00801B41F288339842F3D9032005E0D36943
:101E2C0023F08053D361BBE7002002B070BD00BF2C
:101E3C0000100240007000400000424208B5022829
:101E4C004ED0102803D0012828D0002052E02B4B74
:101E5C005A68186810F080704CD0C2F3834328493C
:101E6C00C85C12F4803F15D0244B5B68C3F340432D
:101E7C00244AD25C244BB3FBF2F303FB00F01F4B60
:101E8C005B6813F4800F35D14000204BA3FB00306E
:101E9C0040082FE01E4B03FB00F0F0E7174B1B6ACA
:101EAC0040F202321A40B2F5817F24D003F4407321
:101EBC00B3F5007F04D0B3F5407F09D0002019E0C2
:101ECC000E4A526A12F0020FF5D049F6404011E06A
:101EDC000A4B186810F400300CD04FF2244009E083
:101EEC00FFF710FF054B5B68C3F3813301335B00D5
:101EFC00B0FBF3F008BD4FF40040FBE700100240CC
:101F0C00042900080029000800127A00ABAAAAAA2A
:101F1C0000093D0070B582B00024A446A1E07E4DBE
:101F2C00AB4214D00CD8A5F58015AB420FD005F5FB
:101F3C007025AB420BD0A5F58015AB4210D106E055
:101F4C00764DAB4203D005F58035AB4208D18B689A
:101F5C00002B50D0012B49D04261082400E0CC6802
:101F6C00BEF1FF0F49D806464FEA8C0233680F25A5
:101F7C00954023EA050304FA02F2134333604B68DD
:101F8C0013F0805F6BD0664B9A6942F001029A6144
:101F9C009B6903F001030193019B4FEA9C02951C82
:101FAC00604B53F825600CF00305AD000F23AB40DC
:101FBC0026EA03065C4B984226D003F580639842D0
:101FCC0000F08C8003F58063984200F0898003F563
:101FDC008063984216D0042317E0CC680434BFE722
:101FEC00CC680834BCE7CC680C34B9E7026108242F
:101FFC00B6E70024B4E70424B2E7061DACF10802EE
:10200C009200B3E7032300E00023AB4033430232DA
:10201C00444D45F822304B6813F4801F62D0434A7C
:10202C00936843EA0E0393604B6813F4001F5FD070
:10203C003E4AD36843EA0E03D3604B6813F4003F67
:10204C005CD03A4A536843EA0E0353604B6813F46E
:10205C00803F59D0354A136843EA0E0313600CF1E4
:10206C00010C0B6833FA0CF254D0012202FA0CF278
:10207C0003EA020E32EA0303F1D14B68122B3FF64E
:10208C004EAF122B3FF66CAF01A555F823F000BFF5
:10209C005B1F00086B1F0008ED1F0008FF1F0008E6
:1020AC006D1F00086D1F00086D1F00086D1F0008D4
:1020BC006D1F00086D1F00086D1F00086D1F0008C4
:1020CC006D1F00086D1F00086D1F00086D1F0008B4
:1020DC006D1F0008E71F0008F31F0008012394E799
:1020EC00022392E7114A936823EA0E0393609BE75D
:1020FC000E4AD36823EA0E03D3609EE70B4A53685B
:10210C0023EA0E035360A1E7084A136823EA0E037F
:10211C001360A4E702B070BD000022100000311063
:10212C000010024000000140000801400004014082
:10213C000AB101617047090401617047002808DB8E
:10214C000901C9B200F1604000F5614080F800134C
:10215C00704700F00F000901C9B2014B19547047C8
:10216C0014ED00E000B500F00700C0F1070CBCF165
:10217C00040F28BF4FF0040C031D062B0FD9C31EF0
:10218C004FF0FF3E0EFA0CF021EA000199400EFAD6
:10219C0003FE22EA0E0241EA02005DF804FB002372
:1021AC00EEE70000074AD36823F4E0631B041B0C22
:1021BC00000200F4E060034343F0BF6343F40033D8
:1021CC00D360704700ED00E010B50446054BD868AD
:1021DC00C0F30220FFF7C6FF01462046FFF7AEFF13
:1021EC0010BD00BF00ED00E00138B0F1807F0BD2D4
:1021FC004FF0E0235861054AF02182F823100020AB
:10220C00986107221A6170470120704700ED00E0C9
:10221C007047000010B503460C4A0D490D48006884
:10222C0040B10C4800680344521A934206D8094A3C
:10223C00136010BD0748084C0460F2E7FEF71CF869
:10224C000C2303604FF0FF30F3E700BF0050002079
:10225C00000400003C02002040020020F0B583B0D6
:10226C0005460C4600230193FFF71EFA2B689A686B
:10227C0012F4807F23D107465A6812F4807F03D171
:10228C00DB6A13F4700F29D0504B1E680220FFF745
:10229C00D5FDB6FBF0F62B6819694D4A114236D1C3
:1022AC00D96802F15C42114231D11969494A114293
:1022BC0040D1DA68484B1A423ED0292341E0AB6A40
:1022CC0043F02003AB62002385F82430012003B0D7
:1022DC00F0BD2B681B6813F0020F0FD02B681B6826
:1022EC0013F0020F4FD1B4F1FF3FF7D0002CF0D018
:1022FC00FFF7DAF9C31BA342F0D9EAE7AB6A43F064
:10230C000403AB62002385F824300320DFE719694E
:10231C00304A114204D1D96802F16E4211420DD0FB
:10232C0019692E4A0A405AB9DA682C4B13405BB132
:10233C00FC2306E0292304E0142302E0542300E0EC
:10234C00FC2303FB06F607E05423FAE7019BB34298
:10235C0010D3019B01330193019BB34213D2B4F10F
:10236C00FF3FF6D0002CF1D0FFF79EF9C01BA04226
:10237C00EFD9EBE7AB6A43F00403AB62002385F8BB
:10238C0024300320A3E72B686FF012021A60AB6AAB
:10239C0043F40073AB622B689B6803F46023B3F5C2
:1023AC00602F01D0002092E7287B60B9AB6A23F440
:1023BC008073AB62AB6A13F4805F88D1AB6A43F075
:1023CC000103AB6283E7002081E700BF58000020C7
:1023DC0024499224922449129224490049922400BF
:1023EC000368D86C7047000030B482B000220192B0
:1023FC0090F82420012A00F08F800346012280F8F7
:10240C0024204A68062A2DD80468606B02EB8202ED
:10241C00053A4FF01F0C0CFA02FC20EA0C000D6878
:10242C0005FA02F2024362630A68092A38D91C6869
:10243C00E06802EB42021E3A4FF0070C0CFA02FC69
:10244C0020EA0C008D6805FA02F20243E2600A6889
:10245C00103A012A34D90020002283F8242002B03B
:10246C0030BC70470C2A0DD80568286B02EB820231
:10247C00233A1F24944020EA04000C689440204323
:10248C002863D1E70568E86A02EB8202413A1F240F
:10249C00944020EA04000C6894402043E862C3E7AF
:1024AC001C68206902EB42024FF0070C0CFA02FC8C
:1024BC0020EA0C008D6805FA02F202432261C6E79D
:1024CC001A681648824205D09A6A42F020029A6233
:1024DC000120C1E7906810F4000F1BD1906840F404
:1024EC00000090600A68102A01D00020B4E70C4A62
:1024FC0012680C49A1FB0212920C02EB82025200F0
:10250C00019202E0019A013A0192019A002AF9D152
:10251C000020A1E700209FE70220A0E70024014053
:10252C005800002083DE1B4330B583B00023019399
:10253C0003689A6812F0010F33D104469A6842F08E
:10254C0001029A60184B1B68184AA2FB03239B0CD0
:10255C00019302E0019B013B0193019B002BF9D1FC
:10256C00FFF7A2F8054623689B6813F0010F16D1FC
:10257C00FFF79AF8431B022BF5D923689B6813F0DD
:10258C00010FF0D1A36A43F01003A362E36A43F096
:10259C000103E362002384F82430012002E00020D0
:1025AC0000E0002003B030BD5800002083DE1B4348
:1025BC0090F82430012B68D010B50446012380F824
:1025CC002430FFF7B1FF00285BD1A36A23F44073DA
:1025DC0023F0010343F48073A36223682C4A9342D3
:1025EC0027D0A26A22F48012A2625A6812F4806F79
:1025FC0005D0A26A22F4405242F48052A262A26A2E
:10260C0012F4805F2BD0E26A22F00602E262002212
:10261C0084F824206FF002021A6023689A6802F48E
:10262C006022B2F5602F1DD09A6842F480129A6035
:10263C002AE0A2F58062526812F4702FD1D0A26AFF
:10264C0042F48012A262134A526812F4806FD6D000
:10265C00A26A22F4405242F48052A262CFE70022D6
:10266C00E262D4E70A4A934204D09A6842F4A00288
:10267C009A6009E0A2F58062526812F4702FD3D1EF
:10268C00F3E7002384F8243010BD0220704700BF0C
:10269C00002801400024014038B503689A6812F004
:1026AC00010F01D1002038BD04469A6822F00102C6
:1026BC009A60FEF7F9FF054623689B6813F0010F3B
:1026CC0013D0FEF7F1FF431B022BF5D923689B684F
:1026DC0013F0010FF0D0A36A43F01003A362E36A76
:1026EC0043F00103E3620120DDE70020DBE700009B
:1026FC0000287BD070B50446836A002B4DD0204651
:10270C00FFF7CAFFA36A13F0100369D1002867D141
:10271C00A26A22F4885222F0020242F00202A26261
:10272C006268E1690A43217B42EA4102A568B5F57A
:10273C00807F02D0012D36D01D46267D012E35D04E
:10274C002668716821F46941294371602568AE6877
:10275C00274931401143A960A168B1F5807F01D0B0
:10276C00012902D12369013B1B052568E96A21F483
:10277C0070010B43EB62236899681E4B0B409A4225
:10278C0025D0A36A23F0120343F01003A362E36A7B
:10279C0043F00103E362012027E0C36280F8243098
:1027AC00FEF780FDABE74FF48075C6E731B9A16940
:1027BC00013945EA413141F40065C1E7A16A41F0B4
:1027CC002001A162E16A41F00101E162B8E7002356
:1027DC00E362A36A23F0030343F00103A36204E062
:1027EC00A36A43F01003A362012070BD012070475F
:1027FC00FDF7E1FFFE0E1FFF90F82430012B13D0E4
:10280C0010B50446012380F82430FFF745FF38B992
:10281C00A36A23F4885323F0010343F00103A3625A
:10282C00002384F8243010BD02207047FFF7F0FC21
:10283C000B480C490C4A002302E0D458C450043312
:10284C00C4188C42F9D3094A094C002301E01360E7
:10285C000432A242FBD3FDF797FCFEF7BDFC704798
:10286C00000000205C0000203C2900085C000020D7
:10287C0040020020FEE70000F8B500BFF8BC08BC21
:10288C009E467047F8B500BFF8BC08BC9E46704722
:10289C004144435F5042313A20256C7520560D0A55
:1028AC0000000000232D302B20000000686C4C0031
:1028BC00656667454647000030313233343536376C
:1028CC003839414243444546000000003031323330
:1028DC003435363738396162636465660000000050
:1028EC000102000002030405060708090A0B0C0D7F
:1028FC000E0F101001020000020304050607080960
:10290C000A0B0C0D0E0F1010000000000102030446
:10291C000000000000000000010203040607080983
:08292C0074E1FF7F01000000CF
:042934007501000821
:042938004D01000845
:10293C00040000200000000078000020E0000020CF
:10294C004801002000000000000000000000000012
:10295C00000000000000000000000000000000006B
:10296C00000000000000000000000000000000005B
:10297C00000000000000000000000000000000004B
:0C298C00010000001000000000127A00A2
:04000005080028398E
:00000001FF
