:020000040800F2
:1000000000500020210E000811040008130400080D
:100010001504000817040008190400080000000077
:100020000000000000000000000000001B040008A9
:100030001D040008000000001F040008210400083F
:10004000690E0008690E0008690E0008690E0008B4
:10005000690E0008690E0008690E0008690E0008A4
:10006000690E0008690E0008690E0008690E000894
:10007000690E0008690E0008690E0008690E000884
:10008000690E0008690E0008690E0008690E000874
:10009000690E0008690E0008690E0008690E000864
:1000A000690E0008690E0008690E0008690E000854
:1000B000690E0008690E0008690E0008690E000844
:1000C000690E0008690E0008690E0008690E000834
:1000D000690E0008690E0008690E0008690E000824
:1000E000690E0008690E0008690E00080000000093
:1000F0000000000000000000000000000000000000
:0C01000000000000000000005FF808F1A3
:10010C000348044B834202D0034B03B1184770479A
:10011C000C0000200C000020000000000548064BDD
:10012C001B1AD90F01EBA301491002D0034B03B1E9
:10013C00184770470C0000200C0000200000000045
:10014C0010B5064C237843B9FFF7DAFF044B13B113
:10015C000448AFF300800123237010BD0C00002075
:10016C00000000006C0E000808B5044B1BB10449DC
:10017C000448AFF30080BDE80840CFE70000000062
:10018C00100000206C0E000870B50F4B0F4DAB42E9
:10019C00A3EB050607D00024B61055F8043B013438
:1001AC009847A642F9D800F05BFE094D094B5E1B3F
:1001BC00AB424FEAA60606D0002455F8043B0134A6
:1001CC009847A642F9D870BDA80E0008A80E0008E2
:1001DC00A80E0008AC0E000870B5860747D0541E58
:1001EC00002A3ED00346CAB201E0013C39D303F8E1
:1001FC00012B9D07F9D1032C2CD9CDB205EB05258C
:10020C000F2C1A4605EB054534D9A4F1100C2CF033
:10021C000F0603F1100EB6444FEA1C1CC2E9005540
:10022C00C2E9025510327245F8D10CF1010214F0FA
:10023C000C0F03EB021204F00F0C13D0ACF10403FF
:10024C0023F003030433134442F8045B9342FBD1C1
:10025C000CF003042CB1C9B21C4403F8011BA342DB
:10026C00FBD170BD64461346002CF4D1F9E703466C
:10027C001446C0E7A446E1E72DE9F04188B000241C
:10028C000494059406940794204B9A6942F010024A
:10029C009A619A6902F010020192019A9A6942F0ED
:1002AC0008029A619A6902F008020292029A9A690B
:1002BC0042F004029A619B6903F004030393039BCD
:1002CC00DFF84C8022464FF40051404600F026FDEA
:1002DC00104D22460721284600F020FD4FF4005314
:1002EC0004930127059706940226079604A9404615
:1002FC0000F006FC0723049305970694079604A9BF
:10030C00284600F0FDFB08B0BDE8F081001002406B
:10031C00001001400008014008B5174A136801336A
:10032C00136041F2873293420DD8144A136801339B
:10033C001360B3F5FA7F0ED2114A136801331360C0
:10034C00312B10D808BD0C4B00221A6001210D482E
:10035C0000F0EAFCE9E7134600221A600221094882
:10036C0000F0E2FCE8E7134600221A60042105487D
:10037C0000F0DAFCE6E700BF300000202C00002083
:10038C00280000200008014072B6FEE700B591B0CD
:10039C002822002106A8FFF71FFF002301930293D8
:1003AC000393049305930223069301230A931023CA
:1003BC000B9306A800F0B6F868B90F23019300213F
:1003CC00029103910491059101A800F0DDFA20B986
:1003DC0011B05DF804FBFFF7D7FFFFF7D5FF000066
:1003EC0008B500F065F8FFF7D1FF00F083FB044B74
:1003FC00A3FB0030800900F0F7FCFFF73DFFFEE7A0
:10040C00D34D6210FEE7FEE7FEE7FEE7FEE770471E
:10041C007047704708B500F05DF8FFF77DFF08BD29
:10042C0082B00E4B9A6942F001029A619A6902F00D
:10043C0001020092009ADA6942F08052DA61DB69BB
:10044C0003F080530193019B054A536823F0E0634A
:10045C0043F00073536002B0704700BF00100240BD
:10046C000000014010B504460E4B1A784FF47A7315
:10047C00B3FBF2F30C4A1068B0FBF3F000F0B4FCE1
:10048C0068B90F2C01D901200AE0002221464FF057
:10049C00FF3000F099FC054B1C60002000E00120AF
:1004AC0010BD00BF00000020080000200400002048
:1004BC0008B5074A136843F010031360032000F0DB
:1004CC0071FC0F20FFF7CEFFFFF7AAFF002008BD3D
:1004DC0000200240034A1168034B1B780B44136045
:1004EC00704700BF3400002000000020014B18684A
:1004FC00704700BF3400002082B0084B1B68084ACC
:10050C00A2FB03235B0A00FB03F3019300BF019BD7
:10051C005A1E0192002BF9D102B07047080000203E
:10052C00D34D6210002800F0F18170B582B0044602
:10053C00036813F0010F2CD0994B5B6803F00C038C
:10054C00042B1DD0964B5B6803F00C03082B12D0C8
:10055C006368B3F5803F41D0002B55D103F1804344
:10056C0003F504331A6822F480321A601A6822F4F4
:10057C0080221A6037E08A4B5B6813F4803FE7D027
:10058C00874B1B6813F4003F03D06368002B00F00B
:10059C00BF81236813F0020F75D0814B5B6813F099
:1005AC000C0F5FD07E4B5B6803F00C03082B54D010
:1005BC002369002B00F08A807A4B01221A60FFF726
:1005CC0095FF0546764B1B6813F0020F75D1FFF7AC
:1005DC008DFF401B0228F5D903209EE1704A136859
:1005EC0043F480331360636843B3FFF77FFF054622
:1005FC006B4B1B6813F4003FCBD1FFF777FF401B0D
:10060C006428F5D9032088E1B3F5A02F09D0644BF9
:10061C001A6822F480321A601A6822F480221A6056
:10062C00E1E703F18043A3F53C331A6842F48022DE
:10063C001A601A6842F480321A60D4E7FFF756FF4A
:10064C000546574B1B6813F4003FA2D0FFF74EFF33
:10065C00401B6428F5D903205FE1514B5B6813F410
:10066C00803FA5D14E4B1B6813F0020F03D02369BA
:10067C00012B40F04F814A4A136823F0F80361695B
:10068C0043EAC1031360236813F0080F33D0A36946
:10069C00002B5CD0434B0122C3F88024FFF726FFCC
:1006AC0005463F4B5B6A13F0020F21D1FFF71EFF8B
:1006BC00401B0228F5D903202FE1394A136823F097
:1006CC00F803616943EAC1031360DCE7354B002290
:1006DC001A60FFF70BFF0546314B1B6813F0020F36
:1006EC00D1D0FFF703FF401B0228F5D9032014E1FA
:1006FC000120FFF701FF236813F0040F00F0968030
:10070C00274BDB6913F0805F34D1254BDA6942F05B
:10071C008052DA61DB6903F080530193019B012560
:10072C00214B1B6813F4807F26D0E368012B3DD04E
:10073C00002B53D103F1804303F504331A6A22F0E2
:10074C0001021A621A6A22F004021A6233E0154B93
:10075C000022C3F88024FFF7C9FE0546104B5B6AE4
:10076C0013F0020FC7D0FFF7C1FE401B0228F5D9CA
:10077C000320D2E00025D3E70B4A136843F48073BF
:10078C001360FFF7B3FE0646074B1B6813F4807F1C
:10079C00CBD1FFF7ABFE801B6428F5D90320BCE05E
:1007AC000010024000004242007000405F4A136A91
:1007BC0043F001031362E36833B3FFF797FE064679
:1007CC005A4B1B6A13F0020F2FD1FFF78FFE801BC1
:1007DC0041F288339842F3D903209EE0052B09D0CF
:1007EC00524B1A6A22F001021A621A6A22F00402AF
:1007FC001A62E0E74D4B1A6A42F004021A621A6A56
:10080C0042F001021A62D6E7FFF770FE0646474B2C
:10081C001B6A13F0020F08D0FFF768FE801B41F231
:10082C0088339842F3D9032077E0E5B9E369002BCC
:10083C0072D03E4A526802F00C02082A56D0022BA3
:10084C0017D03B4B00221A66FFF750FE0446374B7D
:10085C001B6813F0007F47D0FFF748FE001B0228EF
:10086C00F5D9032059E0314AD36923F08053D36181
:10087C00DCE72F4B00221A66FFF738FE05462B4BA0
:10088C001B6813F0007F06D0FFF730FE401B0228D8
:10089C00F5D9032041E0236AB3F5803F1AD02349F0
:1008AC004B6823F47413226A606A024313434B604F
:1008BC001F4B01221A66FFF719FE04461B4B1B68DF
:1008CC0013F0007F0ED1FFF711FE001B0228F5D9A3
:1008DC00032022E0154A536823F40033A1680B432C
:1008EC005360DCE7002018E0002016E0012B16D046
:1008FC000E4B5B6803F48031226A914211D103F4F0
:10090C007013626A93420ED1002006E001207047FA
:10091C00012002E0012000E0002002B070BD0120A7
:10092C00FBE70120F9E70120F7E700BF00100240C8
:10093C00000042420F4B5B6803F00C02082A01D006
:10094C000D487047C3F383420C49885C13F4803F15
:10095C000BD0084B5B68C3F34043094AD35C064A8F
:10096C0002FB00F0B0FBF3F07047064B03FB00F00A
:10097C00704700BF0010024000127A00880E000879
:10098C00840E000800093D00002800F0A08070B51E
:10099C000D460446524B1B6803F007038B420BD2E7
:1009AC004F4A136823F007030B431360136803F0DB
:1009BC0007038B4240F08D80236813F0020F17D091
:1009CC0013F0040F04D0474A536843F4E0635360B8
:1009DC00236813F0080F04D0424A536843F4605361
:1009EC005360404A536823F0F003A1680B435360F3
:1009FC00236813F0010F31D06368012B20D0022B38
:100A0C0025D0384A126812F0020F64D035494A6872
:100A1C0022F0030213434B60FFF768FD0646314B8F
:100A2C005B6803F00C036268B3EB820F16D0FFF720
:100A3C005DFD801B41F288339842F0D9032045E0DC
:100A4C00284A126812F4003FE0D101203EE0254A0A
:100A5C00126812F0007FD9D1012037E0204B1B68BF
:100A6C0003F00703AB420AD91D4A136823F00703AE
:100A7C002B431360136803F00703AB422DD123689B
:100A8C0013F0040F06D0174A536823F4E063E168AF
:100A9C000B435360236813F0080F07D0114A5368B7
:100AAC0023F46053216943EAC1035360FFF742FF0B
:100ABC000C4B5B68C3F303130B4AD35CD8400B4B52
:100ACC0018600B4B1868FFF7CDFC002070BD01209F
:100ADC0070470120FAE70120F8E70120F6E700BF94
:100AEC000020024000100240980E00080800002070
:100AFC0004000020014B1868704700BF080000205C
:100B0C0070B582B00024A446A1E07E4DAB4214D057
:100B1C000CD8A5F58015AB420FD005F57025AB426E
:100B2C000BD0A5F58015AB4210D106E0764DAB424B
:100B3C0003D005F58035AB4208D18B68002B50D023
:100B4C00012B49D04261082400E0CC68BEF1FF0FB4
:100B5C0049D806464FEA8C0233680F25954023EAA4
:100B6C00050304FA02F2134333604B6813F0805F01
:100B7C006BD0664B9A6942F001029A619B6903F053
:100B8C0001030193019B4FEA9C02951C604B53F8A7
:100B9C0025600CF00305AD000F23AB4026EA0306DD
:100BAC005C4B984226D003F58063984200F08C8011
:100BBC0003F58063984200F0898003F580639842C6
:100BCC0016D0042317E0CC680434BFE7CC68083493
:100BDC00BCE7CC680C34B9E702610824B6E7002402
:100BEC00B4E70424B2E7061DACF108029200B3E7A7
:100BFC00032300E00023AB4033430232444D45F85D
:100C0C0022304B6813F4801F62D0434A936843EA46
:100C1C000E0393604B6813F4001F5FD03E4AD368F9
:100C2C0043EA0E03D3604B6813F4003F5CD03A4A9E
:100C3C00536843EA0E0353604B6813F4803F59D05A
:100C4C00354A136843EA0E0313600CF1010C0B6870
:100C5C0033FA0CF254D0012202FA0CF203EA020E1F
:100C6C0032EA0303F1D14B68122B3FF64EAF122B35
:100C7C003FF66CAF01A555F823F000BF470B0008F9
:100C8C00570B0008D90B0008EB0B0008590B000898
:100C9C00590B0008590B0008590B0008590B000898
:100CAC00590B0008590B0008590B0008590B000888
:100CBC00590B0008590B0008590B0008590B000878
:100CCC00D30B0008DF0B0008012394E7022392E703
:100CDC00114A936823EA0E0393609BE70E4AD3688C
:100CEC0023EA0E03D3609EE70B4A536823EA0E03F4
:100CFC005360A1E7084A136823EA0E031360A4E7C4
:100D0C0002B070BD00002210000031100010024033
:100D1C000000014000080140000401400AB10161DB
:100D2C007047090401617047C36801EA030221EAB4
:100D3C00030141EA0241016170470000002808DB11
:100D4C000901C9B200F1604000F5614080F8001360
:100D5C00704700F00F000901C9B2014B19547047DC
:100D6C0014ED00E000B500F00700C0F1070CBCF179
:100D7C00040F28BF4FF0040C031D062B0FD9C31E04
:100D8C004FF0FF3E0EFA0CF021EA000199400EFAEA
:100D9C0003FE22EA0E0241EA02005DF804FB002386
:100DAC00EEE70000074AD36823F4E0631B041B0C36
:100DBC00000200F4E060034343F0BF6343F40033EC
:100DCC00D360704700ED00E010B50446054BD868C1
:100DDC00C0F30220FFF7C6FF01462046FFF7AEFF27
:100DEC0010BD00BF00ED00E00138B0F1807F0BD2E8
:100DFC004FF0E0235861054AF02182F823100020BF
:100E0C00986107221A6170470120704700ED00E0DD
:100E1C0070470000FFF7FCFF0B480C490C4A0023FD
:100E2C0002E0D458C4500433C4188C42F9D3094A94
:100E3C00094C002301E013600432A242FBD3FFF7FC
:100E4C00A3F9FFF7CDFA7047000000200C0000203A
:100E5C00B00E00080C00002038000020FEE7000057
:100E6C00F8B500BFF8BC08BC9E467047F8B500BF8B
:080E7C00F8BC08BC9E4670475B
:100E84000102000002030405060708090A0B0C0D01
:100E94000E0F101000000000000000000102030407
:040EA400060708092C
:040EA80075010008C8
:040EAC004D010008EC
:0C0EB000010000001000000000127A0099
:0400000508000E21C0
:00000001FF
