:020000040800F2
:1000000000500020F52700082715000829150008D2
:100010002B1500082D1500082F1500080000000002
:100020000000000000000000000000003115000882
:1000300033150008000000003515000837150008CA
:100040003D2800083D2800083D2800083D280008FC
:100050003D2800083D2800083D2800083D280008EC
:100060003D2800083D2800083D2800083D280008DC
:100070003D2800083D2800083D2800083D280008CC
:100080003D2800083D2800083D2800083D280008BC
:100090003D2800083D2800083D2800083D280008AC
:1000A0003D2800083D2800083D2800083D2800089C
:1000B0003D2800083D2800083D2800083D2800088C
:1000C0003D2800083D2800083D2800083D2800087C
:1000D0003D2800083D2800083D2800083D2800086C
:1000E0003D2800083D2800083D28000800000000C9
:1000F0000000000000000000000000000000000000
:0C01000000000000000000005FF808F1A3
:10010C000348044B834202D0034B03B1184770479A
:10011C005C0000205C000020000000000548064B3D
:10012C001B1AD90F01EBA301491002D0034B03B1E9
:10013C00184770475C0000205C00002000000000A5
:10014C0010B5064C237843B9FFF7DAFF044B13B113
:10015C000448AFF300800123237010BD5C00002025
:10016C00000000004028000808B5044B1BB10449EE
:10017C000448AFF30080BDE80840CFE70000000062
:10018C00600000204028000870B50F4B0F4DAB42AB
:10019C00A3EB050607D00024B61055F8043B013438
:1001AC009847A642F9D802F045FB094D094B5E1B56
:1001BC00AB424FEAA60606D0002455F8043B0134A6
:1001CC009847A642F9D870BDB4290008B429000894
:1001DC00B4290008B829000870B5860747D0541E0A
:1001EC00002A3ED00346CAB201E0013C39D303F8E1
:1001FC00012B9D07F9D1032C2CD9CDB205EB05258C
:10020C000F2C1A4605EB054534D9A4F1100C2CF033
:10021C000F0603F1100EB6444FEA1C1CC2E9005540
:10022C00C2E9025510327245F8D10CF1010214F0FA
:10023C000C0F03EB021204F00F0C13D0ACF10403FF
:10024C0023F003030433134442F8045B9342FBD1C1
:10025C000CF003042CB1C9B21C4403F8011BA342DB
:10026C00FBD170BD64461346002CF4D1F9E703466C
:10027C001446C0E7A446E1E7014B1868704700BF7D
:10028C000000002008B410B5002A04469DB034DBF1
:10029C004FF4027C4FF00003ADF814C01B934FF6E3
:1002AC00FF7C0291069120AB15D0013A0492079283
:1002BC0002A91F9A0193ADF816C000F051F9421C27
:1002CC0001DA8B2323600022029B1A701DB0BDE85B
:1002DC00104001B070470492079202A91F9A019333
:1002EC00ADF816C000F03CF9431C01DA8B232360F7
:1002FC001DB0BDE8104001B070478B234FF0FF30AC
:10030C002360F5E70CB410B5204B00291C689CB099
:10031C0036DB4FF000034FF402721B934FF6FF7C59
:10032C0002900690ADF814201FAB16D001391E9A1E
:10033C0004910791204602A90193ADF816C000F074
:10034C000FF9421C01DA8B2323600022029B1A70E6
:10035C001CB0BDE8104002B07047049107912046D4
:10036C001E9A02A90193ADF816C000F0F9F8431CCF
:10037C0001DA8B2323601CB0BDE8104002B070473B
:10038C008B234FF0FF302360F5E700BF0000002007
:10039C002DE9F0471D468F680C46AF4216460B6898
:1003AC0036D8B1F90CC01CF4906F0ED13D461846EE
:1003BC0031462A4600F0F0FA0020A368DF1B2368C0
:1003CC00A7602B442360BDE8F0874A69096902EBFA
:1003DC0042025F1A02EBD2726B1C52103B449342E6
:1003EC0092BF914699461A461CF4806F804611D0F4
:1003FC00114600F0F3F9824600B33A46216900F049
:10040C0049FBA38923F4906343F08003A38105E0A7
:10041C002F46CCE700F0B4FB824658B10AEB070339
:10042C00A9EB0707A760C4F810A02F46C4F81490D6
:10043C002360BCE74046216900F050FA0C22A389E6
:10044C004FF0FF3043F04003C8F80020A381BAE717
:10045C002DE9F04F936883B0924617680190002BFA
:10046C0076D04FF0000B0C465D468B680A6848E06E
:10047C00B4F90CC01CF4906F2FD0D4E90403A2EB98
:10048C00000803EB430202EBD27208F10101521097
:10049C002944914292BF914689460A461CF4806FCA
:1004AC0039D01146019800F099F9064600283DD044
:1004BC004246216900F0EEFAA28922F4906242F0E1
:1004CC008002A28106EB0800A9EB08022661A8466F
:1004DC002E46A2602060C4F814903246594600F0B3
:1004EC005BFADAF80810A3682268A3EB080332441D
:1004FC00491BA3602260CAF8081049B3D7E900B5BC
:10050C00083798461046002DF8D09D421E46AFD2B3
:10051C00A8462E46E1E70146019800F031FB06465D
:10052C000028CFD10198216900F0D8F90C21A389BA
:10053C00019D43F0400329600022A3814FF0FF305E
:10054C000023CAF80820CAF8043003B0BDE8F08FC5
:10055C0000200023CAF8043003B0BDE8F08F00BFC0
:10056C002DE9F04F1C468B8989461D068246934621
:10057C009DB003D50B69002B00F0EE80002343F2F5
:10058C00200209939BF8003001277C4E0394ADF8B0
:10059C002920002B71D05D4603E015F8013F002B9C
:1005AC0073D0252BF9D1B5EB0B0471D12A78002A25
:1005BC0063D000234FF0FF320135CDE905230493BE
:1005CC0007938DF853301A9306E02546049B801B45
:1005DC0007FA00F0034304932C46052214F8011B80
:1005EC00304600F0D7FCA3460028EED1049BD90678
:1005FC0044BF20228DF853201A0748BF2B2229789C
:10060C0048BF8DF853202A294FD1039A1168043220
:10061C00002903927BDB079169782E295BD0584C1B
:10062C000322204600F0B6FC38B14022049B001B8C
:10063C00824013430BF1010B04931BF8011B0622A0
:10064C0050488DF8281000F0A5FC002865D04E4BC2
:10065C00002B55D003A900914A4650464B4B04A998
:10066C00AFF300808046B8F1FF3F06D0099B4344AE
:10067C0009939BF80030002B8DD1B9F80C305B0638
:10068C0079D409981DB0BDE8F08FB5EB0B04F4D00C
:10069C0023465A4649465046FFF77AFE0130ECD0C5
:1006AC00099B2A782344099381E7A1F13002092A96
:1006BC0088BFAB46B1D8079B00E00134217803EB2F
:1006CC00830302EB4303A1F13002092AF5D92E2949
:1006DC00A3460793A3D19BF801102A2927D1039B8A
:1006EC000BF102001A680433002A0393B8BF4FF0D1
:1006FC00FF339BF8021005928346B8BF05938EE733
:10070C00039B073323F0070308330393AEE74942F7
:10071C0043F00203079104937EE703A900914A4634
:10072C0050461A4B04A900F0EFFA80469BE70023D1
:10073C00A1F13002092A0BF1010B05933FF66FAFC3
:10074C001BF8011F03EB830302EB4303A1F13002FF
:10075C00092AF5D9059362E7402100F03FF8C9F862
:10076C000000C9F8100018B14023C9F8143005E78F
:10077C000C23CAF800304FF0FF3083E768280008DC
:10078C007028000874280008000000009D03000871
:10079C0070B5114E054633680C46BBB12146284650
:1007AC0000F044FC431C01460CD0C41C24F0030490
:1007BC00A04205D02846611A00F038FC013001D067
:1007CC00204670BD4FF0FF34204670BD194600F036
:1007DC002DFC3060E2E700BFB40100202DE9F843A6
:1007EC00CD1C25F0030508350C2D38BF0C25002D2C
:1007FC00064618DBA94216D8DFF8DC8000F0C6FBF1
:10080C00D8F80420A2B1144603E0636822467BB1F9
:10081C001C4623685B1BF8D40B2B1FD894426368CF
:10082C0054D053600CE00C2333600020BDE8F883F7
:10083C0029463046FFF7ACFF431C044619D005602F
:10084C00304600F0A5FB04F10B00231D20F007003F
:10085C00C21A1CBF1B1AA350BDE8F883611994423D
:10086C00256014BF5160C8F80410635163684B6075
:10087C00E6E7D8F804701FB33C467F68002FFBD125
:10088C0023683946304604EB030900F0CFFB814561
:10089C0016D123683046ED1A2946FFF779FF01304F
:1008AC000ED02368D8F804202B442360536883B1FE
:1008BC00A34203D01A465B689C42FBD10023B0E7ED
:1008CC000C233046336000F063FBAEE7C8F804300D
:1008DC00B6E7C8F80470B3E7B4010020002950D083
:1008EC0038B551F8043C0C1F002BB8BFE418054672
:1008FC0000F04CFB274A13682BB1A3420CD921689A
:10090C00601883422CD0284663601460BDE83840E0
:10091C0000F03EBBA3420FD81A465B68002BF9D1FE
:10092C0011685018844217D02CD363605460284649
:10093C00BDE8384000F02CBB11685018A04214D010
:10094C0020D8216860188342EFD118685B6808448E
:10095C00C4E900035460EAE723680B441360E6E73C
:10096C0018685B6808442060CDE720680144501883
:10097C0083421160DBD1D3E900040144C2E90014C5
:10098C00D5E770470C2328462B60BDE8384000F0B3
:10099C00FFBA00BFB801002088420ED98B188342E1
:1009AC000BD900EB020C002A6DD0624613F801CD76
:1009BC00994202F801CDF9D170470F2A0FD803469E
:1009CC0002F1FF3C002A5ED00CF1010C013B8C447F
:1009DC0011F8012B614503F8012FF9D1704740EA5A
:1009EC0001039B0750D1A2F1100370B501F1200C4B
:1009FC0023F00F0501F1100E00F11004AC441B099B
:100A0C005EF8105C0EF1100E44F8105C5EF81C5C85
:100A1C00103444F81C5C5EF8185C44F8185C5EF802
:100A2C00145CE64544F8145CEAD1013312F00C0F67
:100A3C0001EB031102F00F0400EB031328D08E46D8
:100A4C00043C24F003064FEA940C1E441C1F5EF871
:100A5C00045B44F8045FB442F9D10CF1010402F0D8
:100A6C00030203EB840301EB840102F1FF3C4AB166
:100A7C000CF1010C013B8C4411F8012B614503F87E
:100A8C00012FF9D170BD7047034602F1FF3C9BE783
:100A9C002246EAE7844641EA000313F0030349D1F6
:100AAC00403A23D30B6803604B6843608B688360C8
:100ABC00CB68C3600B6903614B6943618B698361CC
:100ACC00CB69C3610B6A03624B6A43628B6A8362B4
:100ADC00CB6AC3620B6B03634B6B43638B6B83639C
:100AEC00CB6BC36340304031403ADBD230320BD356
:100AFC000B6803604B6843608B688360CB68C36092
:100B0C0010301031103AF3D20C3205D351F8043BAB
:100B1C0040F8043B043AF9D2043208D0D2071CBF87
:100B2C0011F8013B00F8013B01D30B8803806046B0
:100B3C00704700BF082A13D38B07B1D010F0030302
:100B4C00AED0C3F10403D21ADB071CBF11F8013B72
:100B5C0000F8013BA4D331F8023B20F8023B9FE79D
:100B6C00043AD9D3013A11F8013B00F8013BF9D210
:100B7C000B7803704B7843708B78837060467047AA
:100B8C002DE9F041144641B30AB306460D4600F078
:100B9C005FFA8442074602D8B4EB500F13D82146B3
:100BAC003046FFF71BFE804650B1BC422246294618
:100BBC0028BF3A46FFF76EFF29463046FFF78EFEF8
:100BCC004046BDE8F081A8464046BDE8F081A0460D
:100BDC00FFF784FE4046BDE8F0811146BDE8F041C8
:100BEC00FFF7FCBD2DE9F84F92461F460A698B684A
:100BFC000C469A42B8BF1A46CAF8002091F8433006
:100C0C000646DDF8289013B10132CAF8002022689C
:100C1C0091065FD5DAF800300233CAF8003022684A
:100C2C0012F0060F11461DD1E1689942D8BF11464A
:100C3C0018DD4FF0000804F1190B05E0E568DAF84F
:100C4C000030ED1A45450CDD01235A463946304635
:100C5C00C847013008F10108F0D14FF0FF30BDE872
:100C6C00F88F216894F84330003B18BF01238A06A3
:100C7C000AD53021E21882F8431094F845105A1C1A
:100C8C002244023382F843103946304604F14302C1
:100C9C00C8470130E1D0D4E902202368DAF80050CB
:100CAC0003F00603042B21691BD08A4220DD4FF090
:100CBC000008521A904400251A3401E0454517DA11
:100CCC000123224639463046C847013005F101055B
:100CDC00F4D1C2E712F0060F0DD0003B18BF012370
:100CEC00D2E7401B8A4220EAE078E2DC0028E2DC12
:100CFC000020BDE8F88FE168DAF800309942D8BFDF
:100D0C00114696DCAEE700BF2DE9F04717460A7E88
:100D1C0084B00C46064698460C9D01F1430C002A03
:100D2C0035D0A2F15803D9B2202969D8202B67D825
:100D3C00DFE813F0E60066006600660066006600F9
:100D4C0066006600660066006600AC007000660017
:100D5C00660066006600700066006600660066004D
:100D6C0021008300C60066006600B60066008300A2
:100D7C0066006600EC002B682268181D616928600B
:100D8C0010061B6802D4520600F1E08019600023A3
:100D9C00E14623613B4621463046CDF8008003AA4C
:100DAC00FFF720FF013020D04A46394630462369F0
:100DBC00C047013019D02368E0689B07DDF80C9020
:100DCC0018D5484516DD002504F1190A04E0E06841
:100DDC00A0EB0903AB420DDD0123524639463046E8
:100DEC00C047013005F10105F1D14FF0FF3004B0DF
:100DFC00BDE8F0874845B8BF484604B0BDE8F08769
:100E0C00012084F8422004F142090023206184F877
:100E1C004330BFE72A682368111D1806296002D4E5
:100E2C00590600F195801068014600286268C0F2EE
:100E3C0093804FF00A0E534815E020682B6810F091
:100E4C00800F53F8041B02D1400648BF89B26F2AA9
:100E5C0014BF4FF00A0E4FF0080E4A482B600023C7
:100E6C00626884F84330002AA26051DB236823F0C7
:100E7C000403236000294BD1002A7BD1E146BEF14B
:100E8C00080F56D0ACEB0903236183E72A680120D5
:100E9C00116804322A6004F1420984F84210B4E764
:100EAC002B6800211A1D2A60D3F80090626848460E
:100EBC0000F070F8002863D0A0EB09006060A4E794
:100ECC00236843F02003236078222F4884F84520C0
:100EDC002A6813F0800F52F8041B03D113F0400F53
:100EEC0018BF89B22A60DA0744BF43F0200323609D
:100EFC0019B9236823F0200323604FF0100EAEE7DE
:100F0C005823204884F845302368E1E72368DBE761
:100F1C007546E146B1FBF5F30A4605FB131A194673
:100F2C0010F80A30AA4209F8013DF3D2BEF1080FBD
:100F3C00A8D12368DD07A5D5626823699A42A1DC94
:100F4C00302309F1FF3989F800309BE719801EE73F
:100F5C00B2F90010084668E72D20002AA26084F838
:100F6C00430002DB23F0040323600A250548AE4648
:100F7C004942CEE7037804F1420984F842307EE717
:100F8C00606842E77C28000890280008704700BF82
:100F9C00704700BF5FFA81FC810744D00346511EA5
:100FAC0022B909E09A0709D0013905D3184602780D
:100FBC0001336245F6D1704700207047184603296B
:100FCC000CD80029F8D00346014401E08B42F3D041
:100FDC00184613F8012B6245F8D1704710B50CEB8D
:100FEC000C24024604EB044402E00439032915D90D
:100FFC00104652F8043B6340A3F1013E2EEA030372
:10100C0013F0803FF1D00346014401E08B4208D03D
:10101C00184613F8012B6245F8D110BD1046002973
:10102C00F1D1002010BD1146C9E700BF002238B530
:10103C00064D044608462A6001F0B2FB431C00D062
:10104C0038BD2B68002BFBD0236038BDBC010020C1
:10105C0051F8043C181F002BBCBF0B58C01870472C
:10106C0082B0064B9A6942F008029A619B6903F0C0
:10107C0008030193019B02B0704700BF00100240AF
:10108C0072B6FEE708B50A480A4B03600A4B436088
:10109C0000238360C3604FF480420261436183612B
:1010AC00C361036200F02CFC00B908BDFFF7E8FF38
:1010BC00C001002000540040A086010000B591B092
:1010CC002822002106A8FFF787F80023019302933A
:1010DC000393049305930223069301230A9310238D
:1010EC000B9306A800F0E4FE68B90F2301930021CE
:1010FC00029103910491059101A801F00BF920B91B
:10110C0011B05DF804FBFFF7BBFFFFF7B9FF000060
:10111C0010B586B000F07EFEFFF7D0FFFFF7A0FF02
:10112C00FFF7B0FF224800F0B5F814210A2000F0B8
:10113C0007F9022000F00EF91E4800F0E3F900F068
:10114C0053F84FF47A7000F089FE002000F092F80A
:10115C0000F04AF84FF47A7000F080FE012000F0A5
:10116C0089F800F041F84FF47A7000F077FE002413
:10117C002346114A142101A8FFF7C4F8002000F0FF
:10118C0079F814210A2000F0DBF8022000F0E2F8D4
:10119C0001A800F0B7F900F027F84FF47A7000F0CE
:1011AC005DFE013424B23C2CE2DD0024E0E700BFFC
:1011BC00C0010020582800086028000800B585B040
:1011CC0000238DF80C308DF80D006423009302235E
:1011DC0003AA78210348006800F070FC05B05DF8A4
:1011EC0004FB00BF18060020204B1B68002B38D0D6
:1011FC0010B5A4B040238DF80C3000241AE0012067
:10120C002DE003EBC4121A49895C03F191020133FE
:10121C006A4402F8841C9BB27F2BF2D9642300939E
:10122C00812303AA78211148006800F047FCD0B94B
:10123C000134E4B2072C11D8A4F15000C0B2FFF76E
:10124C00BDFF0028DBD1FFF7B9FF0028D7D1102054
:10125C00FFF7B4FF0028D2D10023DDE7002024B033
:10126C0010BD012070470120F9E700BF18060020CF
:10127C0018020020014600B1FF21002303E0044ABC
:10128C00D15401339BB2B3F5806FF8D3704700BFD4
:10129C001802002018B310B5124B186064230222F8
:1012AC00782100F0C7FC034658B9002400E0013453
:1012BC001B2C08D80C4B185DFFF780FF0346002849
:1012CC00F5D0184610BD0020FFF7D4FF0023074AC5
:1012DC001370074A1370FFF787FF0346F1E70123EA
:1012EC001846704718060020A42800081502002094
:1012FC001402002010F0800F1FD13F291DD810B40C
:10130C00012A0DD0CB0800EBC3100C4C235C01F070
:10131C00070101228A4023EA0203235410BC7047C0
:10132C00CB0800EBC310054C225C01F00701012334
:10133C008B40DBB213432354F0E7704718020020B4
:10134C00024B1870024B1970704700BF1502002039
:10135C0014020020034618B1042802D9042300E02B
:10136C000123014A13707047500000202DE9F0470B
:10137C008246A0F13003DBB2092B34D8A0F130093E
:10138C0009EB8909594B9944AAF14103DBB2192B9A
:10139C0038D8AAF1410909EB8909554B9944BAF19E
:1013AC00200F35D0B9F1000F00F09B80514B1A780B
:1013BC0002EB4201504B1B7803EB4103802B08D905
:1013CC004D4B00211970D300DBB24C490878034413
:1013DC000B704A4B1B7803EBC203402B00F283804B
:1013EC004FF0000869E0A0F16103DBB2192B06D8BD
:1013FC00A0F1200A5FFA8AFA4FF00009C4E74FF017
:10140C000009C1E7BAF13A0FC9D1DFF8F490C9E786
:10141C00384B1B7803EB4301374A127802EB41023D
:10142C00802A08D9344A00211170DA00D2B233492B
:10143C00087802440A70314A127802EBC302402A3F
:10144C004DD803EB43035B00DBB22B4A11780B4402
:10145C001370504641E008FB03F2D2B226490978DA
:10146C000A44D2B206FB03F1C9B2244B1B781944CF
:10147C00C9B2214450193A46C9B2C0B2FFF73AFF7B
:10148C000134E4B21B4B1B78A342E4D80135EDB216
:10149C00184B1B78AB4201D90024F3E70136F6B2A6
:1014AC00062E06D819F80870F74007F0010700253A
:1014BC00EEE708F101085FFA88F8B8F1040F01D8DB
:1014CC000026EDE70B4B1B7803EB43035B00DBB211
:1014DC00094A11780B4413705046BDE8F087002080
:1014EC00FBE70020F9E70020F7E700BF4C290008D4
:1014FC00C82800085000002015020020140200200B
:10150C00C028000810B50446207820B10134FFF73C
:10151C002DFF0028F8D1204610BDFEE7FEE7FEE7C0
:10152C00FEE7FEE770477047704708B500F084FC93
:10153C0008BD000082B00E4B9A6942F001029A611C
:10154C009A6902F001020092009ADA6942F0805224
:10155C00DA61DB6903F080530193019B054A536800
:10156C0023F0E06343F08063536002B0704700BF28
:10157C00001002400000014010B586B00023029319
:10158C000393049305930268114B9A4201D006B061
:10159C0010BD104CA36943F00803A361A36903F0C9
:1015AC0008030093009BC02302931223039303238D
:1015BC00059302A9084800F079FFE36943F400138E
:1015CC00E361E36903F400130193019BDFE700BFC0
:1015DC000054004000100240000C014003685A699E
:1015EC0012F4806F01D1002070476FF480625A6151
:1015FC0000230363202280F83D2080F83E30026CEB
:10160C0042F00402026480F83C30012070472DE95E
:10161C00F04106460C46174698463BE000F018FC95
:10162C00069BC01A404502D8B8F1000F32D1012DEB
:10163C0018D033689B6924EA03039BB2B3FA83F393
:10164C005B099F4226D100233363202286F83D207C
:10165C0086F83E30326C42F02002326486F83C3020
:10166C00012027E033685B6924EA03039BB2B3FAD9
:10167C0083F35B09E5E733685B6924EA030C1FFA23
:10168C008CFCBCFA8CFC4FEA5C1C674511D1B8F1A0
:10169C00FF3FC3D1C4F30745012DECD033689B69E0
:1016AC0024EA030C1FFA8CFCBCFA8CFC4FEA5C1C81
:1016BC00EBE70020BDE8F0812DE9F84305460E4626
:1016CC009046994653E01A6842F400721A602B68EF
:1016DC006FF480625A6100232B63202285F83D2031
:1016EC0085F83E302A6C42F004022A6485F83C30BE
:1016FC0001204AE000F0ACFBA0EB0900404502D809
:10170C00B8F1000F33D1012F17D02B689B6926EA53
:10171C0003039BB2003B18BF012343B300232B638D
:10172C00202285F83D2085F83E302A6C42F02002BC
:10173C002A6485F83C30012027E02B685B6926EA97
:10174C0003039BB2003B18BF0123E6E72B689C699F
:10175C0026EA0404A4B2003C18BF0124A4B12B68EF
:10176C005A6912F4806FAED1B8F1FF3FC2D1C6F303
:10177C000747012FEAD12B685C6926EA0404A4B25E
:10178C00003C18BF0124E9E70020BDE8F883000005
:10179C00F0B583B004460D4616461F46C36A082BA7
:1017AC000DD0012B0BD013F5803F08D0036B122BFF
:1017BC000AD10268136843F48073136004E0226852
:1017CC00136843F4807313600097334600224FF084
:1017DC0001112046FFF71BFF80B92369B3F5804F39
:1017EC0016D1236805F0FE051D613B4632461349B0
:1017FC002046FFF761FFF8B903B0F0BD23681B6802
:10180C0013F4807F02D04FF4007323640320F3E7BA
:10181C00EB11226803F0060343F0F00313613B461F
:10182C00324607492046FFF747FF18B92368EDB247
:10183C001D61DAE70120DFE70120DDE7020001008E
:10184C000800010070B504460D46164623685B6916
:10185C0013F0800F21D12046FFF7C0FEF8B9B5F187
:10186C00FF3FF3D000F0F4FA801BA84201D8002D02
:10187C00ECD123685B6913F0800FE7D1002323635D
:10188C00202284F83D2084F83E30226C42F0200265
:10189C00226484F83C30012000E0002070BD01205F
:1018AC00FCE770B504460D46164623685B6913F0D9
:1018BC00040F21D12046FFF791FEF8B9B5F1FF3F97
:1018CC00F3D000F0C5FA801BA84201D8002DECD152
:1018DC0023685B6913F0040FE7D1002323632022F4
:1018EC0084F83D2084F83E30226C42F020022264C1
:1018FC0084F83C30012000E0002070BD0120FCE7A2
:10190C00002800F0CC8070B5044690F83D30002BD8
:10191C0077D0242384F83D302268136823F0010328
:10192C0013602268136843F4004313602268136841
:10193C0023F40043136000F0A9FD62685A4B9A42ED
:10194C0064D85A4B98428CBF00230123002B40F0E3
:10195C00A8805749A1FB00318B0C25686A6822F0DE
:10196C003F0242EA91426A6021680A6A22F03F0211
:10197C0066684D4DAE424FD8013313430B6221685C
:10198C00CA6922F44F4222F0FF026568464B9D4221
:10199C004CD8431E6D00B3FBF5F3013340F6FC70DD
:1019AC00034278D0C3F30B031A43CA6121680B6856
:1019BC0023F0C003E269206A024313430B602168E1
:1019CC008B6823F4034323F0FF032269E06802438E
:1019DC0013438B602168CB6823F0FF036269A06915
:1019EC0002431343CB602268136843F00103136076
:1019FC0000202064202384F83D30206384F83E00CE
:101A0C0070BD80F83C30FFF7B7FD82E7294B984258
:101A1C008CBF0023012399E74FF4967505FB03F364
:101A2C00254DA5FB03539B090133A6E7A668BEB958
:101A3C00431E05EB450CB3FBFCF30133C3F30B0363
:101A4C00B3FA83F35B0943BBC6B9431E05EB4505EB
:101A5C00B3FBF5F30133C3F30B0343F40043A3E7E8
:101A6C00431E05EB850C0CEB8C0CB3FBFCF3013328
:101A7C00C3F30B03B3FA83F35B09E4E7431E05EBF3
:101A8C00850505EB8505B3FBF5F30133C3F30B03B8
:101A9C0043F4404388E7042386E7012384E70120CD
:101AAC0070470120ACE700BFA08601007F841E00B8
:101ABC0083DE1B43FF083D00D34D62102DE9F0433C
:101ACC0085B004460F46914698460C9E00F0C0F92E
:101ADC00054694F83D00C0B2202804D002273846B1
:101AEC0005B0BDE8F0830095192301224F4920462B
:101AFC00FFF78DFD002840F0928094F83C30012BCC
:101B0C0000F08F80012384F83C3023681A6812F0AF
:101B1C00010F03D11A6842F001021A60226813689F
:101B2C0023F400631360212384F83D30102384F8E0
:101B3C003E3000232364C4F82490A4F82A80638DDB
:101B4C0023853B4BE3622B46324639462046FFF752
:101B5C001FFE0746002866D10023039323685A69A9
:101B6C0003929B690393039B11E0236C042B01D01C
:101B7C000127B4E72268136843F400731360F7E796
:101B8C002A4631462046FFF78CFE00282ED1238DA5
:101B9C00002B36D02A4631462046FFF753FE00284C
:101BAC00E3D1626A236812781A61606A431C63622B
:101BBC00618D89B2013989B26185238D013B9BB25C
:101BCC0023852268516911F0040FD9D0002BD7D08E
:101BDC0043781361636A01336362638D9BB2013B8B
:101BEC009BB26385238D013B2385C9E7236C042BB2
:101BFC0001D0012773E72268136843F40073136064
:101C0C00F7E72268136843F400731360202384F809
:101C1C003D30002384F83E3084F83C305FE70227E7
:101C2C005DE702275BE7012759E700BF02001000C0
:101C3C000000FFFF2DE9F04385B00446884691462D
:101C4C001D4600F005F994F83D30DBB2202B03D093
:101C5C00022005B0BDE8F08306460090192301224E
:101C6C0057492046FFF7D3FC002840F0A08094F899
:101C7C003C30012B00F09D80012384F83C3023681C
:101C8C001A6812F0010F03D11A6842F001021A60AF
:101C9C002268136823F400631360242384F83D3016
:101CAC0000272764474BE36240E023681B6813F46A
:101CBC00807F02D04FF4007323640320C9E7A02374
:101CCC0084F83D3022685369C3F340035269C2F370
:101CDC00802294F83DC05FFA8CFCBCF1A00F09D0B7
:101CEC0043B93AB900F0B4F8801BA842E7D8002DEC
:101CFC00E8D1E4E7202384F83D3023685A6912F0D8
:101D0C00020F31D11A6842F400721A6023686FF422
:101D1C0080625A6100961923012229492046FFF757
:101D2C0076FC002849D101374F4538D22268136818
:101D3C0043F48073136000962B4600224FF0011180
:101D4C002046FFF764FC0028AFD1236808F0FE02A0
:101D5C001A6100F07DF8064622685369C3F340030C
:101D6C005269C2F38022B4E71A6842F400721A6016
:101D7C000023039323685A6903929B690393039B83
:101D8C000096192301220E492046FFF740FC90B91A
:101D9C00202384F83D30002384F83C3059E720237D
:101DAC0084F83D30002384F83C30012051E70220B8
:101DBC004FE702204DE701204BE7012049E700BF28
:101DCC00020010000000FFFF10B504460E4B1A78FD
:101DDC004FF47A73B3FBF2F30C4A1068B0FBF3F0D8
:101DEC0000F0C8FC68B90F2C01D901200AE00022D0
:101DFC0021464FF0FF3000F0ADFC054B1C6000207D
:101E0C0000E0012010BD00BF510000205800002050
:101E1C005400002008B5074A136843F01003136000
:101E2C00032000F085FC0F20FFF7CEFFFFF782FBAD
:101E3C00002008BD00200240034A1168034B1B78A8
:101E4C000B441360704700BF1C060020510000209B
:101E5C00014B1868704700BF1C06002038B50446BB
:101E6C00FFF7F6FF0546B4F1FF3F02D0044B1B7899
:101E7C001C44FFF7EDFF401BA042FAD338BD00BF56
:101E8C005100002082B0084B1B68084AA2FB0323B8
:101E9C005B0A00FB03F3019300BF019B5A1E0192E6
:101EAC00002BF9D102B0704758000020D34D6210BE
:101EBC00002800F0F18170B582B00446036813F07D
:101ECC00010F2CD0994B5B6803F00C03042B1DD035
:101EDC00964B5B6803F00C03082B12D06368B3F5C8
:101EEC00803F41D0002B55D103F1804303F50433DF
:101EFC001A6822F480321A601A6822F480221A605E
:101F0C0037E08A4B5B6813F4803FE7D0874B1B6844
:101F1C0013F4003F03D06368002B00F0BF812368EB
:101F2C0013F0020F75D0814B5B6813F00C0F5FD070
:101F3C007E4B5B6803F00C03082B54D02369002BF9
:101F4C0000F08A807A4B01221A60FFF781FF054668
:101F5C00764B1B6813F0020F75D1FFF779FF401B0E
:101F6C000228F5D903209EE1704A136843F48033AC
:101F7C001360636843B3FFF76BFF05466B4B1B683D
:101F8C0013F4003FCBD1FFF763FF401B6428F5D956
:101F9C00032088E1B3F5A02F09D0644B1A6822F412
:101FAC0080321A601A6822F480221A60E1E703F189
:101FBC008043A3F53C331A6842F480221A601A68F5
:101FCC0042F480321A60D4E7FFF742FF0546574BC4
:101FDC001B6813F4003FA2D0FFF73AFF401B6428A4
:101FEC00F5D903205FE1514B5B6813F4803FA5D119
:101FFC004E4B1B6813F0020F03D02369012B40F0EA
:10200C004F814A4A136823F0F803616943EAC1031C
:10201C001360236813F0080F33D0A369002B5CD036
:10202C00434B0122C3F88024FFF712FF05463F4BB8
:10203C005B6A13F0020F21D1FFF70AFF401B022845
:10204C00F5D903202FE1394A136823F0F8036169AD
:10205C0043EAC1031360DCE7354B00221A60FFF73B
:10206C00F7FE0546314B1B6813F0020FD1D0FFF77A
:10207C00EFFE401B0228F5D9032014E10120FFF7E5
:10208C0001FF236813F0040F00F09680274BDB69E7
:10209C0013F0805F34D1254BDA6942F08052DA615B
:1020AC00DB6903F080530193019B0125214B1B68D5
:1020BC0013F4807F26D0E368012B3DD0002B53D145
:1020CC0003F1804303F504331A6A22F001021A6209
:1020DC001A6A22F004021A6233E0154B0022C3F88C
:1020EC008024FFF7B5FE0546104B5B6A13F0020F18
:1020FC00C7D0FFF7ADFE401B0228F5D90320D2E074
:10210C000025D3E70B4A136843F480731360FFF781
:10211C009FFE0646074B1B6813F4807FCBD1FFF75D
:10212C0097FE801B6428F5D90320BCE00010024008
:10213C0000004242007000405F4A136A43F0010302
:10214C001362E36833B3FFF783FE06465A4B1B6AF0
:10215C0013F0020F2FD1FFF77BFE801B41F2883367
:10216C009842F3D903209EE0052B09D0524B1A6AF2
:10217C0022F001021A621A6A22F004021A62E0E7E3
:10218C004D4B1A6A42F004021A621A6A42F00102BA
:10219C001A62D6E7FFF75CFE0646474B1B6A13F044
:1021AC00020F08D0FFF754FE801B41F2883398428F
:1021BC00F3D9032077E0E5B9E369002B72D03E4AEE
:1021CC00526802F00C02082A56D0022B17D03B4B57
:1021DC0000221A66FFF73CFE0446374B1B6813F0CF
:1021EC00007F47D0FFF734FE001B0228F5D90320EF
:1021FC0059E0314AD36923F08053D361DCE72F4B8C
:10220C0000221A66FFF724FE05462B4B1B6813F0C1
:10221C00007F06D0FFF71CFE401B0228F5D90320D7
:10222C0041E0236AB3F5803F1AD023494B6823F46D
:10223C007413226A606A024313434B601F4B0122E2
:10224C001A66FFF705FE04461B4B1B6813F0007F54
:10225C000ED1FFF7FDFD001B0228F5D9032022E06B
:10226C00154A536823F40033A1680B435360DCE731
:10227C00002018E0002016E0012B16D00E4B5B68F6
:10228C0003F48031226A914211D103F47013626A13
:10229C0093420ED1002006E001207047012002E09D
:1022AC00012000E0002002B070BD0120FBE70120FE
:1022BC00F9E70120F7E700BF00100240000042429E
:1022CC000F4B5B6803F00C02082A01D00D487047D5
:1022DC00C3F383420C49885C13F4803F0BD0084B4A
:1022EC005B68C3F34043094AD35C064A02FB00F027
:1022FC00B0FBF3F07047064B03FB00F0704700BFD8
:10230C000010024000127A0084290008802900087D
:10231C0000093D00002800F0A08070B50D46044671
:10232C00524B1B6803F007038B420BD24F4A1368C6
:10233C0023F007030B431360136803F007038B426E
:10234C0040F08D80236813F0020F17D013F0040FA8
:10235C0004D0474A536843F4E0635360236813F096
:10236C00080F04D0424A536843F460535360404A08
:10237C00536823F0F003A1680B435360236813F0F8
:10238C00010F31D06368012B20D0022B25D0384AA5
:10239C00126812F0020F64D035494A6822F0030229
:1023AC0013434B60FFF754FD0646314B5B6803F05B
:1023BC000C036268B3EB820F16D0FFF749FD801B4C
:1023CC0041F288339842F0D9032045E0284A12683C
:1023DC0012F4003FE0D101203EE0254A126812F0D1
:1023EC00007FD9D1012037E0204B1B6803F0070395
:1023FC00AB420AD91D4A136823F007032B43136021
:10240C00136803F00703AB422DD1236813F0040FBC
:10241C0006D0174A536823F4E063E1680B4353601A
:10242C00236813F0080F07D0114A536823F4605344
:10243C00216943EAC1035360FFF742FF0C4B5B6811
:10244C00C3F303130B4AD35CD8400B4B18600B4BF4
:10245C001868FFF7B9FC002070BD012070470120FF
:10246C00FAE70120F8E70120F6E700BF0020024060
:10247C00001002409C290008580000205400002045
:10248C00014B1868704700BF5800002008B5FFF7D3
:10249C00F7FF044B5B68C3F30223034AD35CD840B9
:1024AC0008BD00BF001002409429000870B582B02E
:1024BC000024A446A1E07E4DAB4214D00CD8A5F567
:1024CC008015AB420FD005F57025AB420BD0A5F5AE
:1024DC008015AB4210D106E0764DAB4203D005F52A
:1024EC008035AB4208D18B68002B50D0012B49D0E2
:1024FC004261082400E0CC68BEF1FF0F49D80646C3
:10250C004FEA8C0233680F25954023EA050304FA41
:10251C0002F2134333604B6813F0805F6BD0664B51
:10252C009A6942F001029A619B6903F001030193DD
:10253C00019B4FEA9C02951C604B53F825600CF0F4
:10254C000305AD000F23AB4026EA03065C4B984213
:10255C0026D003F58063984200F08C8003F58063ED
:10256C00984200F0898003F58063984216D00423CA
:10257C0017E0CC680434BFE7CC680834BCE7CC68FF
:10258C000C34B9E702610824B6E70024B4E704244C
:10259C00B2E7061DACF108029200B3E7032300E09A
:1025AC000023AB4033430232444D45F822304B6894
:1025BC0013F4801F62D0434A936843EA0E0393607E
:1025CC004B6813F4001F5FD03E4AD36843EA0E03F6
:1025DC00D3604B6813F4003F5CD03A4A536843EA2B
:1025EC000E0353604B6813F4803F59D0354A13687F
:1025FC0043EA0E0313600CF1010C0B6833FA0CF276
:10260C0054D0012202FA0CF203EA020E32EA03035E
:10261C00F1D14B68122B3FF64EAF122B3FF66CAF3D
:10262C0001A555F823F000BFF3240008032500088A
:10263C0085250008972500080525000805250008B4
:10264C0005250008052500080525000805250008B6
:10265C0005250008052500080525000805250008A6
:10266C000525000805250008052500087F2500081C
:10267C008B250008012394E7022392E7114A936803
:10268C0023EA0E0393609BE70E4AD36823EA0E03FA
:10269C00D3609EE70B4A536823EA0E035360A1E70D
:1026AC00084A136823EA0E031360A4E702B070BD56
:1026BC000000221000003110001002400000014008
:1026CC000008014000040140002808DB0901C9B2E0
:1026DC0000F1604000F5614080F80013704700F095
:1026EC000F000901C9B2014B1954704714ED00E0F9
:1026FC0000B500F00700C0F1070CBCF1040F28BFB7
:10270C004FF0040C031D062B0FD9C31E4FF0FF3ED8
:10271C000EFA0CF021EA000199400EFA03FE22EAAF
:10272C000E0241EA02005DF804FB0023EEE7000014
:10273C00074AD36823F4E0631B041B0C000200F46B
:10274C00E060034343F0BF6343F40033D36070474E
:10275C0000ED00E010B50446054BD868C0F302202C
:10276C00FFF7C6FF01462046FFF7AEFF10BD00BFC6
:10277C0000ED00E00138B0F1807F0BD24FF0E02388
:10278C005861054AF02182F8231000209861072235
:10279C001A6170470120704700ED00E0704700009F
:1027AC0010B503460C4A0D490D48006840B10C4861
:1027BC0000680344521A934206D8094A136010BDAC
:1027CC000748084C0460F2E7FDF756FD0C23036044
:1027DC004FF0FF30F3E700BF005000200004000072
:1027EC002006002028060020FFF7D8FF0B480C49D4
:1027FC000C4A002302E0D458C4500433C4188C4251
:10280C00F9D3094A094C002301E013600432A242B7
:10281C00FBD3FDF7B9FCFEF77BFC704700000020F2
:10282C005C000020BC2900085C000020240600206D
:10283C00FEE70000F8B500BFF8BC08BC9E46704728
:0C284C00F8B500BFF8BC08BC9E46704701
:1028580048454C4C4F00000044454D3A2025640043
:10286800232D302B20000000686C4C0065666745FE
:102878004647000030313233343536373839414233
:102888004344454600000000303132333435363792
:10289800383961626364656600000000AE2000B0EC
:1028A800C8001040817FA1A6A83FA4D300D580D935
:1028B800F1DA12DB408D14AF00363600000000005C
:1028C8007E1111117E7F494949363E414141227F9F
:1028D8004141221C7F494949417F090909013E417B
:1028E80049497A7F0808087F00417F41002040411C
:1028F8003F017F081422417F404040407F020C0284
:102908007F7F0408107F3E4141413E7F0909090647
:102918003E4151215E7F09192946464949493101FD
:10292800017F01013F4040403F1F2040201F7F2082
:1029380018207F6314081463070870080761514959
:10294800454300003E5149453E00427F40004261F8
:102958005149462141454B311814127F10274545EE
:1029680045393C4A49493001710905033649494905
:1029780036064949291E0000010200000203040529
:10298800060708090A0B0C0D0E0F101000000000B6
:10299800010203040000000000000000010203041B
:0429A800060708090D
:0829AC00F4E0FF7F01000000D0
:0429B40075010008A1
:0429B8004D010008C5
:1029BC00040000200000000078000020E00000204F
:1029CC004801002000000000000000000000000092
:1029DC0000000000000000000000000000000000EB
:1029EC0000000000000000000000000000000000DB
:1029FC0000000000000000000000000000000000CB
:0C2A0C00010100001000000000127A0020
:04000005080027F5D3
:00000001FF
