:020000040800F2
:1000000000500020550F0008870F0008870F0008D8
:10001000870F0008870F0008870F0008870F000868
:10002000870F0008870F0008870F0008870F000858
:10003000870F0008870F0008870F0008870F000848
:10004000B5020008870F0008870F0008870F000817
:10005000870F0008870F0008870F0008870F000828
:10006000870F0008870F0008870F0008870F000818
:10007000870F0008870F0008870F0008870F000808
:10008000870F0008870F0008870F0008870F0008F8
:10009000870F0008870F0008870F0008870F0008E8
:1000A000870F0008870F0008870F0008870F0008D8
:1000B000870F0008870F0008870F0008870F0008C8
:1000C000870F0008870F0008870F0008870F0008B8
:1000D000870F0008870F0008870F0008870F0008A8
:1000E000870F0008870F0008870F0008870F000898
:1000F000870F0008870F0008870F0008870F000888
:10010000870F0008870F0008870F0008870F000877
:10011000870F0008870F0008870F0008870F000867
:10012000870F0008870F0008870F0008870F000857
:10013000870F0008870F0008870F0008870F000847
:10014000870F0008870F0008870F0008870F000837
:04015000870F00080D
:1001540080B590B000F0D4F84FF48032002301262B
:100164004FF48037012102240E924FF4E01206A8C6
:10017400CDE90667CDE90B33CDE90233CDE904338C
:10018400089301930A910D9409930F9200F04AFA8F
:1001940008B172B6FEE703460F22CDE90243059388
:1001A4004FF48063214601A80493019200F052FCAD
:1001B4000546002835D13B4E0890B3690F2243F021
:1001C4000403B361B369384803F0040301930223C1
:1001D400019906A9CDE90623099400F01BF94723E8
:1001E4004FF08042314CCDE90655CDE90855CDE9B3
:1001F4000A5563600C95F369A56043F0010325611A
:10020400F361F369226040F2E73203F001030093E3
:100214002046E260009B00F0DBFD024618B172B696
:10022400FEE772B6FEE76026642708900A9006A9E6
:100234002046CDE9066700F029FE08B172B6FEE754
:100244004FF496730422204606A9079300F01EFE7D
:1002540008B172B6FEE74FF4FA730822204606A9E5
:10026400079300F013FE08B172B6FEE74FF42F7344
:1002740006A90C222046079300F008FE014608B1A7
:1002840072B6FEE7204600F05FFD0421204600F030
:100294005BFD0821204600F057FD0C21204600F0AC
:1002A40053FDFEE700100240000801400C0000204E
:1002B40000F038B8704700BF38B54FF47A730D4A70
:1002C400054611780C4AB3FBF1F31268B2FBF3F064
:1002D40000F088F808B90F2D01D9012038BD044673
:1002E400024629464FF0FF3000F040F8034B204609
:1002F4001D6038BD0000002008000020040000201C
:10030400074A08B51368032043F01003136000F094
:100314001BF80020FFF7D0FFFFF7CCFF002008BD3B
:1003240000200240034A044B11681B780B441360FD
:10033400704700BF5400002000000020014B1868E3
:10034400704700BF540000204FF6FF0C064903021B
:10035400CA6803F4E06302EA0C02134343F0BF6388
:1003640043F40033CB60704700ED00E01B4B00B555
:10037400DB68C3F30223C3F1070EBEF1040F03F1DC
:10038400040C28BF4FF0040EBCF1060F1CD9A3F1D6
:10039400030C4FF0FF3303FA0CF322EA03024FF08D
:1003A400FF3303FA0EF321EA030303FA0CF31343B6
:1003B4001B010028DBB20ADB00F1604000F561405C
:1003C40080F800335DF804FB00229446E7E7044A12
:1003D40000F00F00024413765DF804FB00ED00E02A
:1003E400FCEC00E00138B0F1807F01D301207047BC
:1003F4004FF0E0234FF0F00C0022072110B4044C1E
:10040400586184F823C010469A6110BC1961704782
:1004140000ED00E02DE9F04F0C6885B0002C00F0F1
:10042400A4800022031D019301254FF00F0892467A
:1004340013468146744F06E0013334FA03F002F1A7
:10044400040200F0928005FA03F030EA040C00EA9A
:100454000406F1D14C68122C00F28F80122C0DD8B6
:10046400DFE804F09D0AA9CF0C0C0C0C0C0C0C0C4E
:100474000C0C0C0C0CB1AD00D1F80CA0FF2E99BFE4
:100484004C469446019CA2F1200C206808FA0CFE0C
:1004940020EA0E000AFA0CFC40EA0C0020604C68CA
:1004A400E00068D5B86923F0030C40F00100B8619E
:1004B400B8690CF1804C00F0010003900CF5803C0D
:1004C40003F0030E03984FEA8E0EDCF8080008FAD6
:1004D4000EFB20EA0B00DFF834B1D94513D00BF53D
:1004E400806BD94573D0DFF828B1D9455CD0DFF8EB
:1004F40024B1D9450CBF4FF0030B4FF0040B0BFA9A
:100504000EFB40EA0B00CCF80800DFF80CC114F431
:10051400801FDCF8080014BF3043B043CCF8080057
:10052400DFF8F4C014F4001FDCF80C0014BF3043EF
:10053400B043CCF80C00DFF8E0C014F4003FDCF862
:10054400040014BF3043B04314F4803F324CCCF861
:10055400040020680CD0304320600C68013334FA66
:1005640003F002F104027FF46EAF05B0BDE8F08F32
:1005740020EA060020600C685EE7DFF8A0C064454E
:100584000DD02BD8ACF5801C644508D00CF5702C2C
:10059400644504D0ACF5801C64457FF46FAF8C686F
:1005A40034BB4FF0040A69E74FF0020B0BFA0EFB61
:1005B40040EA0B00A7E7C86800F1080A5EE7C868CC
:1005C40000F10C0A5AE7C86800F1040A56E74FF034
:1005D400010B0BFA0EFB40EA0B0094E7DFF840C076
:1005E4006445DCD00CF5803C64457FF447AFD6E726
:1005F400012C4FF0080A0CBFC9F81000C9F8140008
:100604003CE74FF0000A39E70010024000080140BF
:1006140000100140001401400004014000002210B9
:1006240000003110002800F0B6812DE9F041036884
:100634000446DD0782B035D59A494A6802F00C02B7
:10064400042A00F0EF804A6802F00C02082A00F045
:10065400E5806368B3F5803F10D0002B00F00C8177
:10066400B3F5A02F00F082818E4B1A6822F48032F9
:100674001A601A6822F480221A6004E0894A136816
:1006840043F480331360FFF759FE864E054605E0B8
:10069400FFF754FE401B642800F2EA8033689A0393
:1006A400F6D523689F0728D57E4A516811F00C0FB0
:1006B40000F08D80516801F00C01082900F083805E
:1006C4002369002B00F018810122774B754E1A60C4
:1006D400FFF734FE054605E0FFF730FE401B022815
:1006E40000F2C68033689807F6D53368626923F050
:1006F400F80343EAC203336023681A071FD45D0773
:1007040042D5684BDA69D0007DD50025674E336841
:10071400D90540F19D80E368012B00F0FE80002B99
:1007240000F0CA80052B5F4B1A6A00F02C8122F07E
:1007340001021A621A6A22F004021A62F2E0A36940
:10074400002B4FD00122584B564EC3F88024FFF79C
:10075400F5FD054605E0FFF7F1FD401B022800F218
:100764008780736A9B07F6D5514B524A1B68A2FBDC
:1007740003235B0A019300BF019B5A1E0192002BC5
:10078400F9D123685D07BCD4E369C3B1454D6A68F8
:1007940002F00C02082A00F0D8800022022B424BFF
:1007A4001A6600F0FA80FFF7C9FD044604E0FFF77B
:1007B400C5FD001B02285BD82B689B01F7D40020E1
:1007C40002B0BDE8F0815268D6033FF579AF354AEF
:1007D4001268950730D52269012A2DD0012002B074
:1007E400BDE8F081304A2F4EC2F88034FFF7A6FDF1
:1007F400054604E0FFF7A2FD401B022838D8736ABF
:100804009F07F7D4BDE7DA69012542F08052DA6127
:10081400DB6903F080530093009B77E74A68D003B9
:100824007FF517AF1F4A126891037FF53BAF6268EB
:10083400002A7FF437AFD1E71A4960690A6822F0C9
:10084400F80242EAC0020A601A077FF558AF76E759
:10085400336843F480733360FFF770FD07463368F1
:10086400DA053FF558AFFFF769FDC01B6428F6D9D8
:10087400032002B0BDE8F0810A4D2B6823F48033D5
:100884002B602B6823F480232B60FFF757FD06466B
:1008940004E0FFF753FD801B6428E9D82B689B0311
:1008A400F7D4FEE60010024000004242007000400F
:1008B40008000020D34D6210504E41F28838336A4C
:1008C40023F001033362336A23F004033362FFF736
:1008D40035FD074604E0FFF731FDC01B4045C7D88E
:1008E400336A9807F7D4002D3FF44EAF434AD369D7
:1008F40023F08053D36147E7414A404E1360FFF72A
:100904001DFD054604E0FFF719FD401B0228AFD882
:1009140033689907F7D42368EFE6384A136A43F03B
:1009240001031362FFF70AFD41F288380646334F8C
:1009340004E0FFF703FD801B404599D83B6A9B0701
:10094400F7D5002D3FF420AFD0E7012B3FF446AF9D
:100954006B68226A03F4803191427FF43FAF606A8E
:1009640003F47013181A18BF012029E703F1804318
:10097400A3F53C331A6842F480221A601A6842F4E0
:1009840080321A607FE642F004021A621A6A42F068
:1009940001021A62C6E701207047FFF7CFFC064642
:1009A40005E0FFF7CBFC801B02283FF661AF2B6804
:1009B4009901F6D4236AB3F5803F05D16A68A1682A
:1009C40022F400320A436A6001200C4D616A6A68AD
:1009D4000B4322F474120A4913436B600866FFF751
:1009E400ADFC044605E0FFF7A9FC001B02283FF616
:1009F4003FAF2B689A01F6D5E1E600BF0010024034
:100A0400000042420E4A536803F00C01082901D049
:100A14000C4870470C48C3F38341DB03405C0AD5A0
:100A24000849536801FB00F0084AC3F34043D35C10
:100A3400B0FBF3F07047064B03FB00F0704700BFB8
:100A44000010024000127A00A40F0008A00F000852
:100A540000093D00002800F08C80494A2DE9F0414E
:100A64001368044603F007038B420D460CD2136847
:100A740023F007030B431360136803F007038B424F
:100A840002D00120BDE8F0812368980714D55907E6
:100A940004D53C494A6842F4E0624A601A0704D526
:100AA40038494A6842F460524A603649A0684A6844
:100AB40022F0F00202434A60DF0720D56268314B1E
:100AC400012A1B6857D0022A50D09907D9D52D4E38
:100AD40041F28838736823F0030313437360FFF70C
:100AE4002DFC074604E0FFF729FCC01B404545D810
:100AF4007368626803F00C03B3EB820FF3D1204AEE
:100B0400136803F00703AB4209D9136823F0070302
:100B14002B431360136803F00703AB42B1D123687E
:100B24005A0706D51749E0684A6822F4E06202438E
:100B34004A601B0707D5134A2169536823F460539D
:100B440043EAC1035360FFF75DFF03460D4A0E49B4
:100B540052680E48C2F30312895C0D4ACB40006808
:100B64001360FFF7A9FB0020BDE8F0819801AED423
:100B740087E7012070479E03A9D482E7032081E719
:100B84000020024000100240B40F000804000020BE
:100B940008000020036A026A70B422F001020262B3
:100BA400446882690E68104D22F0730232438E68E5
:100BB40023F00203A84243EA060306D049684460CE
:100BC400826170BC416303627047056A24F4407417
:100BD40025F004050562D1E9055635432C43CD685B
:100BE40023F008032B43E9E7002C0140036A026A5F
:100BF40070B422F4807202624468C2690E68114DB6
:100C040022F0730232438E6823F40073A84243EA4D
:100C1400062306D049684460C26170BCC1630362A4
:100C24007047056A24F4405425F480650562D1E9CF
:100C34000556354344EA0514CD6823F4006343EABA
:100C44000523E7E7002C0140036A026A30B422F46A
:100C5400805202624468C269D1F800C00C4D22F48B
:100C6400E64242EA0C22D1F808C023F40053A84219
:100C740043EA0C3306D049684460C26130BC016465
:100C8400036270474D6924F4804444EA8514F2E712
:100C9400002C014039BB90F83E30012B2FD10223A8
:100CA40080F83E300122036801F01F01186A8A406F
:100CB40020EA020010B41862196A204C0A43A342C5
:100CC4001A621ED0B3F1804F1FD01D4A93421CD02C
:100CD40002F58062934218D01A68002042F00102A3
:100CE40010BC1A607047042917D008291DD090F849
:100CF4004130012B03D1022380F84130D2E7012097
:100D040070475A6C42F400425A649A6802F007022F
:100D1400062AE1D1002010BC704790F83F30012B27
:100D2400EDD1022380F83F30BCE790F84030012B2E
:100D3400E5D1022380F84030B4E700BF002C014025
:100D440000040040704700BFFFF7A4BF70B41F4EFB
:100D54000368B0424A698D680C6826D0B0F1804FB0
:100D64000DD0A6F59436B04209D006F58066B0429F
:100D740005D023F08003C5621A4384620CE04E68F8
:100D840023F07003C968334323F440730B4323F007
:100D94008003C5621A438462012170BC036843F076
:100DA400040303604161026070474E6823F07003DE
:100DB4003343CE6823F44073C562846209693343C4
:100DC40023F080031A430163E6E700BF002C0140CF
:100DD40050B310B590F83D30044603F0FF02F3B170
:100DE4000223214684F83D3051F8040BFFF7AEFF8F
:100DF400012384F8463084F83E3084F83F3084F888
:100E0400403084F8413084F8423084F8433084F828
:100E1400443084F8453084F83D30002010BD80F81B
:100E24003C20FFF78FFFDBE701207047036A026A6B
:100E340070B422F010020262446882690E68124D96
:100E440022F4E64242EA06228E6823F02003A842F6
:100E540043EA061306D049684460826170BC81632A
:100E640003627047056A24F4406425F04005056276
:100E7400D1E90556354344EA8504CD6823F080035F
:100E840043EA0513E7E700BF002C014038B590F8AA
:100E94003C30012B57D0012304460D4680F83C30EA
:100EA4000C2A08D8DFE802F01E0707072E070707F9
:100EB4003F0707070C000120002384F83C3038BDAD
:100EC4000068FFF7C1FEC3692A6943F40063C36184
:100ED400C36923F48063C361C36943EA0223C36122
:100EE4000020E9E70068FFF755FE83692A6943F0AB
:100EF40008038361836923F00403836183691343D3
:100F04008361EDE70068FFF791FF83692A6943F481
:100F140000638361836923F480638361836943EAA3
:100F240002238361DCE70068FFF760FEC3692A6976
:100F340043F00803C361C36923F00403C361C369B5
:100F44001343C361CCE7022038BD00BF704700BF24
:100F54000C4885460C480D490D4A914204D2036859
:100F64000B6004300431F8E70A490B4A002091422F
:100F740002D208600431FAE7FFF7E8FFFFF7E8F868
:100F8400FEE7FEE700500020CC0F00080000002020
:100F94000C0000200C00002058000020010200007A
:100FA40002030405060708090A0B0C0D0E0F1010A6
:100FB4000000000000000000010203040607080905
:040FC400F8B500BFBD
:040FC800F8B500BFB9
:0C0FCC00010000001000000000127A007C
:0400000508000F558B
:00000001FF
