:020000040800F2
:1000000000500020893F0008592700085B2700089E
:100010005D2700085F270008612700080000000036
:10002000000000000000000000000000632700083E
:1000300065270008000000006727000869270008FE
:10004000D13F0008D13F0008D13F0008D13F000850
:10005000D13F0008D13F0008D13F0008D13F000840
:10006000D13F0008D13F0008D13F0008D13F000830
:10007000D13F0008D13F0008D13F0008D13F000820
:10008000D13F0008D13F0008D13F0008D13F000810
:10009000D13F0008D13F0008D13F0008D13F000800
:1000A000D13F0008D13F0008D13F0008D13F0008F0
:1000B000D13F0008D13F0008D13F0008D13F0008E0
:1000C000D13F0008D13F0008D13F0008D13F0008D0
:1000D000D13F000871270008D13F0008D13F000838
:1000E000D13F0008D13F0008D13F000800000000C8
:1000F0000000000000000000000000000000000000
:0C01000000000000000000005FF808F1A3
:10010C000348044B834202D0034B03B1184770479A
:10011C006800002068000020000000000548064B25
:10012C001B1AD90F01EBA301491002D0034B03B1E9
:10013C00184770476800002068000020000000008D
:10014C0010B5064C237843B9FFF7DAFF044B13B113
:10015C000448AFF300800123237010BD6800002019
:10016C0000000000D43F000808B5044B1BB1044943
:10017C000448AFF30080BDE80840CFE70000000062
:10018C006C000020D43F000820F0030110F00300A5
:10019C00C0F1000051F8043B00F1040C4FEACC0C08
:1001AC006FF000021CBF22FA0CF213434FF0010C4B
:1001BC004CEA0C2C4CEA0C4CA3EB0C0222EA03028A
:1001CC0012EACC1204BF51F8043B0430F4D0C2F153
:1001DC00000102EA0102B2FA82F2C2F11F0200EB44
:1001EC00D200704770B50F4B0F4DAB42A3EB050619
:1001FC0007D00024B61055F8043B01349847A642AA
:10020C00F9D803F0E1FE094D094B5E1BAB424FEAF6
:10021C00A60606D0002455F8043B01349847A642A4
:10022C00F9D870BDF0410008F0410008F041000819
:10023C00F44100080EB44FF40172F0B500269CB0E6
:10024C0021AD55F8047BADF814201B960290069056
:10025C00FFF79AFF4FF6FF7204460A4B0A49ADF8B6
:10026C0016200B933A462B46086802A90F96149653
:10027C0001950394079400F093FC1CB0BDE8F0408A
:10028C0003B0704789060008000000200CB44FF43E
:10029C0001732DE9F04100269CB022AD07460846BB
:1002AC0055F8048BADF81430029106911B96FFF7AC
:1002BC006BFF4FF6FF7304460949ADF816300B91EE
:1002CC00424638462B4602A90F9614960195039484
:1002DC00079400F065FC1CB0BDE8F04102B070471B
:1002EC008906000870B5860747D0541E002A3ED0F8
:1002FC000346CAB201E0013C39D303F8012B9D0738
:10030C00F9D1032C2CD9CDB205EB05250F2C1A46AF
:10031C0005EB054534D9A4F1100C2CF00F0603F1B4
:10032C00100EB6444FEA1C1CC2E90055C2E9025536
:10033C0010327245F8D10CF1010214F00C0F03EBE2
:10034C00021204F00F0C13D0ACF1040323F00303DE
:10035C000433134442F8045B9342FBD10CF00304C6
:10036C002CB1C9B21C4403F8011BA342FBD170BDD4
:10037C0064461346002CF4D1F9E703461446C0E753
:10038C00A446E1E7014B1868704700BF000000204D
:10039C0080EA010C1CF0030F37D110F0030C20F095
:1003AC00030021F0030150F8042B08BF51F8043B63
:1003BC000ED08CF0030C6FF07F434FEACC0C23FA79
:1003CC000CFC51F8043B42EA0C0243EA0C0300BF5C
:1003DC00A2F1013C9A4201BF2CEA020C1CF0803FB6
:1003EC0050F8042B51F8043BF2D04FEA02604FEA6C
:1003FC001222012828BFB0EB036F08BF1B0AF4D0F0
:10040C0003F0FF03000EC01A704710F0030F0AD060
:10041C0010F8012B11F8013B012A28BF9A42F4D0A5
:10042C00A2EB030070474DF8045D50F8042B01F06B
:10043C00030521F0030151F8043B022D26D04DD8C1
:10044C0022F07F45B5EB132FA2F1013C2CEA020CF4
:10045C000DD11CF0803C08BF51F8043B0AD185EA51
:10046C000205B5EB036F0CD150F8042BE8E74FEA0B
:10047C0013235BE03CF07F4C54D10B784FEA1265B0
:10048C0054E04FEA126503F0FF034FE04FEA0245D8
:10049C00A2F1013C4FEA15452CEA020CB5EB134FC7
:1004AC0018D11CF0803C08BF51F8043B07D185EAF9
:1004BC000205B5EB034F09D150F8042BE6E75FEAD0
:1004CC000C4C2FD10B884FEA12452FE04FEA034317
:1004DC004FEA12454FEA134328E000BF02F0FF0534
:1004EC00B5EB136FA2F1013C2CEA020C0DD11CF000
:1004FC00803C08BF51F8043B0AD185EA0205B5EBF4
:10050C00032F0AD150F8042BE8E74FEA13630DE0F0
:10051C0012F0FF0F06D051F8043B4FEA122523F0DE
:10052C007F4303E04FF0000020BC704705F0FF0252
:10053C0003F0FF00012828BF904204BF2D0A1B0ABC
:10054C00F4D0A2EB000020BC704700BF08B410B57B
:10055C00002A04469DB034DB4FF4027C4FF00003BC
:10056C00ADF814C01B934FF6FF7C0291069120ABA3
:10057C0015D0013A0492079202A91F9A0193ADF883
:10058C0016C000F09BF9421C01DA8B232360002279
:10059C00029B1A701DB0BDE8104001B07047049268
:1005AC00079202A91F9A0193ADF816C000F086F9C4
:1005BC00431C01DA8B2323601DB0BDE8104001B051
:1005CC0070478B234FF0FF302360F5E70CB410B568
:1005DC00204B00291C689CB036DB4FF000034FF415
:1005EC0002721B934FF6FF7C02900690ADF814201C
:1005FC001FAB16D001391E9A04910791204602A90F
:10060C000193ADF816C000F059F9421C01DA8B23A6
:10061C0023600022029B1A701CB0BDE8104002B08F
:10062C0070470491079120461E9A02A90193ADF8D8
:10063C0016C000F043F9431C01DA8B2323601CB075
:10064C00BDE8104002B070478B234FF0FF302360A1
:10065C00F5E700BF0000002010B50C46B1F90E10F4
:10066C0001F0A0FA002803DB636D0344636510BD41
:10067C00A38923F48053A38110BD00BF00207047D1
:10068C002DE9F0410C46B1F90C101F46CB0505467F
:10069C0016460BD421F48051A1813B4632462846A4
:1006AC00B4F90E10BDE8F04101F0F0BDB4F90E1034
:1006BC000223002201F0E4FCB4F90C10EAE700BFBD
:1006CC0010B50C46B1F90E1001F0DAFCB4F90C308F
:1006DC00421C0EBF23F4805343F480536065A38106
:1006EC0010BD00BFB1F90E1000F0AABE2DE9F04705
:1006FC001D468F680C46AF4216460B6836D8B1F9CA
:10070C000CC01CF4906F0ED13D46184631462A465B
:10071C0001F078F80020A368DF1B2368A7602B4446
:10072C002360BDE8F0874A69096902EB42025F1A4F
:10073C0002EBD2726B1C52103B44934292BF914617
:10074C0099461A461CF4806F804611D0114600F071
:10075C007BFF824600B33A46216901F0ADF9A389CB
:10076C0023F4906343F08003A38105E02F46CCE78C
:10077C0001F02EFA824658B10AEB0703A9EB0707E2
:10078C00A760C4F810A02F46C4F814902360BCE7EF
:10079C004046216900F0D8FF0C22A3894FF0FF30AE
:1007AC0043F04003C8F80020A381BAE72DE9F04FCD
:1007BC00936883B0924617680190002B76D04FF067
:1007CC00000B0C465D468B680A6848E0B4F90CC017
:1007DC001CF4906F2FD0D4E90403A2EB000803EBB8
:1007EC00430202EBD27208F10101521029449142EA
:1007FC0092BF914689460A461CF4806F39D0114647
:10080C00019800F021FF064600283DD042462169A0
:10081C0001F052F9A28922F4906242F08002A28186
:10082C0006EB0800A9EB08022661A8462E46A2603A
:10083C002060C4F814903246594600F0E3FFDAF811
:10084C000810A3682268A3EB08033244491BA36079
:10085C002260CAF8081049B3D7E900B508379846A2
:10086C001046002DF8D09D421E46AFD2A8462E460B
:10087C00E1E70146019801F0ABF906460028CFD11B
:10088C000198216900F060FF0C21A389019D43F0C0
:10089C00400329600022A3814FF0FF300023CAF8E7
:1008AC000820CAF8043003B0BDE8F08F0020002304
:1008BC00CAF8043003B0BDE8F08F00BF2DE9F04F4B
:1008CC001C468B8989461D06824693469DB003D5EE
:1008DC000B69002B00F0EE80002343F220020993F9
:1008EC009BF8003001277C4E0394ADF82920002B97
:1008FC0071D05D4603E015F8013F002B73D0252B1A
:10090C00F9D1B5EB0B0471D12A78002A63D00023FE
:10091C004FF0FF320135CDE90523049307938DF891
:10092C0053301A9306E02546049B801B07FA00F00F
:10093C00034304932C46052214F8011B304601F0A6
:10094C0059FCA3460028EED1049BD90644BF2022B3
:10095C008DF853201A0748BF2B22297848BF8DF8F1
:10096C0053202A294FD1039A11680432002903928B
:10097C007BDB079169782E295BD0584C03222046EB
:10098C0001F038FC38B14022049B001B8240134319
:10099C000BF1010B04931BF8011B062250488DF838
:1009AC00281001F027FC002865D04E4B002B55D0A9
:1009BC0003A900914A4650464B4B04A9AFF3008063
:1009CC008046B8F1FF3F06D0099B434409939BF83E
:1009DC000030002B8DD1B9F80C305B0679D4099816
:1009EC001DB0BDE8F08FB5EB0B04F4D023465A468E
:1009FC0049465046FFF77AFE0130ECD0099B2A7825
:100A0C002344099381E7A1F13002092A88BFAB4640
:100A1C00B1D8079B00E00134217803EB830302EB90
:100A2C004303A1F13002092AF5D92E29A3460793D5
:100A3C00A3D19BF801102A2927D1039B0BF10200AB
:100A4C001A680433002A0393B8BF4FF0FF339BF8A6
:100A5C00021005928346B8BF05938EE7039B0733BC
:100A6C0023F0070308330393AEE7494243F0020334
:100A7C00079104937EE703A900914A4650461A4B0E
:100A8C0004A901F069F980469BE70023A1F130022B
:100A9C00092A0BF1010B05933FF66FAF1BF8011FF1
:100AAC0003EB830302EB4303A1F13002092AF5D9CE
:100ABC00059362E7402100F0C7FDC9F80000C9F8B2
:100ACC00100018B14023C9F8143005E70C23CAF8FC
:100ADC0000304FF0FF3083E76041000868410008A8
:100AEC006C41000800000000F90600084B1C70B5B2
:100AFC001AD014469389526823F02003A381636BA8
:100B0C00CDB2A3B1A36B934209DD23685A1E2260B8
:100B1C0003F8015C636801336360284670BD2146AD
:100B2C0001F0C4FA0028F0D04FF0FF35F5E7236947
:100B3C0021682BB18B4203D211F8013CAB420ED091
:100B4C0023460320C4E90F12012204F14406A063DA
:100B5C00666303F8465F2846C4E9003270BD01396C
:100B6C000132C4E90012D8E710B50C46496B69B1E3
:100B7C0004F14403994201D000F0E6FD0020236CFF
:100B8C006063636013B1E36B236010BD0021A28925
:100B9C004FF0FF3042F020022369A2816160F3E73D
:100BAC002DE9F04792460025884AADF5247DA192A7
:100BBC009AF80090864A0DF108084595A292469540
:100BCC00CDF81C810193B9F1000F13D0814E07466B
:100BDC0016F809300C4613F008030AF101052ED162
:100BEC00B9F1250F44D06368002B08DD23681A780F
:100BFC004A450FD045980DF5247DBDE8F087214678
:100C0C003846A29B9847002840F0098123681A783F
:100C1C004A45EFD1AA46013323606368013B636008
:100C2C00469B013346939AF80090B9F1000FE1D03E
:100C3C0016F809300AF1010513F00803D0D06268E8
:100C4C000CE023681A780133B25C11070ED5626888
:100C5C004699013AC4E9003201314691002AF0DC90
:100C6C0021463846A29B98470028EAD0AA46DAE7E4
:100C7C00449342939AF801102A2905D110234293E8
:100C8C009AF802100AF10205A1F13003092B0DD8D4
:100C9C00002303EB830301EB4301A1F130034493E5
:100CAC0015F8011FA1F13002092AF2D9DFF828A1A9
:100CBC000322504601F09EFA38B10123429AA0EB70
:100CCC000A008340134301354293AA461AF8013BAC
:100CDC00782B00F28380DFE813F0A80081008100FC
:100CEC0081008100810081008100810081008100F0
:100CFC0081008100810081008100810081008100E0
:100D0C0081008100810081008100810081008100CF
:100D1C0081008100810081008100810081008100BF
:100D2C00810081001101810081008100810081001E
:100D3C00810081008100810081008100810081009F
:100D4C00810081008100810081008100810081008F
:100D5C00810081008100810081008100810081007F
:100D6C0081008100C600C600C600810081008100A0
:100D7C00810081008100810081008100810081005F
:100D8C0081008100810081008100C9008100810007
:100D9C00FB008100810081008100810081008100C5
:100DAC000701DD00C600C600C60081000E018100EF
:100DBC00810081008100DF00EE00F20081008100E3
:100DCC00F9008100DD0081008100C900F90A0008EA
:100DDC00750B0008F93F000868410008032348938D
:100DEC000A2343936368002B4DDD429B580625D59F
:100DFC00489B022B40F38480042B40F38880474BA4
:100E0C00002B3FF410AF2246384601AB42A9AFF39A
:100E1C00008001283FF4EEAE02287FF404AF459821
:100E2C0018B1A3895B067FF5E6AE4FF0FF30E2E622
:100E3C0021463846A29B98470028F0D122681378A7
:100E4C00F35C1907D4D563684699013B0131002B3B
:100E5C004691636002F10102EADD22601378F35CD3
:100E6C001907C5D5EFE705234893BBE7429A42F42F
:100E7C000072429210226E2B43921ED80323489389
:100E8C006368002BB1DC21463846A29B98470028AA
:100E9C00ABD0C4E70A22EEE7429BDA063FF5C3AEBD
:100EAC00019ADB0702F104000190469913684CBFCC
:100EBC0019801960B7E6082343930423DFE7102356
:100ECC004393429B43F408734293F6E70223D6E71D
:100EDC005146404601F082F801234893429B8246DA
:100EEC0043F0400342937DE700234893429B43F039
:100EFC004003429376E700234393BFE7554672E6DF
:100F0C002246384601AB42A900F00AF881E7224696
:100F1C00384601AB42A900F069F87AE700000000FE
:100F2C002DE9F84314468A6807460D4688692AB9A4
:100F3C00002814BF4FF0FF3201228A602A68D206C3
:100F4C0003D41A68111D196016684FF00009DFF8F8
:100F5C00988000B3012837D002283BD123681A7837
:100F6C0018F80220120735D42A6809F10109D106B4
:100F7C0003D41B7806F8013B23686168AA68013921
:100F8C000133013AC4E90031AA606AB1002904DDD9
:100F9C00A8690028DED12368E6E721463846D5F853
:100FAC00803198470028F3D02B6813F0100305D13B
:100FBC00EA680132EA60AA6902B1337000202B6939
:100FCC004B442B61BDE8F88323686A691978525C3D
:100FDC00002AC9D1B9F1000FE6D10128F2D02B6853
:100FEC0013F01003EAD1E3E7F93F00082DE9F04FC5
:100FFC000C4687B0854D0DF10C0A0746164695E850
:10100C000700DFF80CE28AE80700DFF808C2A269E3
:10101C000093032A08BFE646A368CDF804E05A1EE5
:10102C00B2F5AE7F40F2AB806FF4AE7003EB00090B
:10103C0040F25D13A360A04658F81C2B4FF0000B38
:10104C00454642F450622260336802221978DAF87D
:10105C00000001F0CFF850B3BBF1010F0CD0BBF185
:10106C00020F00F0AD80A3685A1EA260A3B94FF026
:10107C00010B0AF1040AE7E7D4E900321AB9082295
:10108C0043F40073626023F4A0632360A3685A1EC8
:10109C00A260002B00F0848033685A1C32601B78ED
:1010AC0005F8013B7368013B002B73606EDD0BF19F
:1010BC00010BBBF1030FDCD16168002962D0C1F1D7
:1010CC001001554B6069194400F088FFA368002B90
:1010DC0063D04FF0000A06E0336801333360A36835
:1010EC00013BA360E3B1326860691178D4F800C0A9
:1010FC00405C2CF4106E002875D0302953D0C4F805
:10110C0000E0137805F8013B7368013B002B73601A
:10111C00E2DC31463846D4F8803198470028DED0DE
:10112C002268D1050CD5454507D915F8011C324666
:10113C003846D4F87C31013D9847454564D0226847
:10114C0012F0100211D12A70636838464146019E94
:10115C00B04723689A0648D500990B681A1D0A6097
:10116C001B681860E3680133E36000202369A5EB7A
:10117C00080555442B44236107B0BDE8F08F4FF0B0
:10118C00000958E70A23062163609AE7314638467E
:10119C00D4F880319847002889D04FF0000ABFE777
:1011AC004FF0020B65E71CF4006FA8D001330AF175
:1011BC00010AB9F1000FA7D0A36009F1FF39A3E729
:1011CC00236803F4C062B2F5007F7FF475AF43F47B
:1011DC008073236010236360A3685A1EA260002BE7
:1011EC003FF46AAF58E762469BE7009EDF07326820
:1011FC0002F1040103D5316013681880B2E7009B3B
:10120C00196013681860ADE70120B5E7EC3F0008E2
:10121C002D240008451A000874410008002070476E
:10122C00024A0349034800F025BC00BF50000020CF
:10123C0085150008040000200C4B416810B599423C
:10124C00044601D000F098F9A168094B994202D0EC
:10125C00204600F091F9E168064B994204D02046F3
:10126C00BDE8104000F088B910BD00BF840000201C
:10127C00EC00002054010020002070472DE9F843B9
:10128C0000250423294C2A490822C4F8381104F1FA
:10129C005C002946DFF89C90DFF89C80274F284E95
:1012AC00C4E90335C4E90055C4E90555A560656674
:1012BC00FFF718F8234B0822294604F1C400636792
:1012CC00C4E90849C4E90A87C4E91A55C4E91E559A
:1012DC0026632567C4F8CC50C4F88050FFF702F899
:1012EC00194B2946C4F8DC30082204F1680304F5D4
:1012FC009670C4F88830C4E92398C4E92576C4E90B
:10130C003455C4E93855C4F8D850C4F83451C4F82D
:10131C00E850FEF7E7FF04F1D003C4E93D98C4E9B7
:10132C003F76C4F8F030BDE8F88300BF840000209D
:10133C002D120008650600088D060008CD06000871
:10134C00F10600080900010012000200F8B5254B57
:10135C000646D3F83831002B3CD0234FD7E9013463
:10136C00013B04D51DE05A1C04F1680419D0B4F9F2
:10137C000C50013B002DF6D11C4B08222946C4E928
:10138C000155C4E90455E36065662560A56104F167
:10139C005C00FEF7A7FFC4E90D55C4E912552046C1
:1013AC00F8BD3D680DB12F46D8E74FF4D6713046E5
:1013BC0000F04AF9044680B104230560294625460D
:1013CC000C304FF4D072A0606360FEF78BFF3C6072
:1013DC002F46C3E7FFF752FFBFE70C23386033609B
:1013EC00DDE700BF84000020500000200100FFFF5B
:1013FC00036A03B17047044B044AD3F838310262D4
:10140C00002BF7D13AE700BF8400002045120008FA
:10141C00704700BF704700BF0020024A024900F02D
:10142C0029BB00BF50000020291200080020024AEE
:10143C00024900F01FBB00BF5000002085120008BD
:10144C00002238B5064D044608462A6002F090FD8D
:10145C00431C00D038BD2B68002BFBD0236038BD5B
:10146C00C8010020F8B5B1F90C300C461E07074630
:10147C0039D44A68002A53DDE56A002D31D00022A8
:10148C003E683A6013F48052216A55D101233846E4
:10149C00A847451C024663D0B4F90C30E56A216AB2
:1014AC00580705D56368D21A636B0BB1236CD21A3B
:1014BC0000233846A847421C40D0002223696260B2
:1014CC002360A389DB0400D56065616B3E6041B18C
:1014DC0004F14403994202D0384600F035F9002358
:1014EC0063630020F8BD0E69002EFAD09B0718BF6D
:1014FC0000230D6808BF4B690E60AD1B8B600CE0C0
:10150C002B463246D4F828C03846216AE047B0F161
:10151C00000CA5EB0C05664406DD002DF0DCE0E7C5
:10152C000A6C002AA8DCDCE7B4F90C3043F0400369
:10153C004FF0FF30A381F8BD626DB1E73968B4F9A3
:10154C000C301D29F2D80B4ACA40D507EED5002223
:10155C00626022692260DA04B7D50029B4D0B4E7FE
:10156C003B68002B98D01D2B01D0162BDCD13E6094
:10157C00B7E700BF010040200B69B3B110B50446BA
:10158C0082B008B1036A5BB1B1F90C3013B9002019
:10159C0002B010BD204602B0BDE81040FFF762BF9C
:1015AC000191FFF725FF0199EEE70020704700BF7E
:1015BC00B8B138B50D4A0369044615682BB10DB1A5
:1015CC002B6A53B1B4F90C300BB9002038BD21464D
:1015DC002846BDE83840FFF745BF2846FFF708FF0F
:1015EC00F0E7034A0349044800F044BA0000002025
:1015FC0050000020851500080400002070B5114E25
:10160C00054633680C46BBB12146284600F054FE13
:10161C00431C01460CD0C41C24F00304A04205D08A
:10162C002846611A00F048FE013001D0204670BDFA
:10163C004FF0FF34204670BD194600F03DFE30607F
:10164C00E2E700BFC00100202DE9F843CD1C25F0D6
:10165C00030508350C2D38BF0C25002D064618DB6C
:10166C00A94216D8DFF8DC8000F006FDD8F804207B
:10167C00A2B1144603E0636822467BB11C46236882
:10168C005B1BF8D40B2B1FD89442636854D0536067
:10169C000CE00C2333600020BDE8F883294630466B
:1016AC00FFF7ACFF431C044619D00560304600F030
:1016BC00E5FC04F10B00231D20F00700C21A1CBF2F
:1016CC001B1AA350BDE8F88361199442256014BF1E
:1016DC005160C8F80410635163684B60E6E7D8F8B2
:1016EC0004701FB33C467F68002FFBD1236839463A
:1016FC00304604EB030900F0DFFD814516D1236869
:10170C003046ED1A2946FFF779FF01300ED02368D9
:10171C00D8F804202B442360536883B1A34203D030
:10172C001A465B689C42FBD10023B0E70C23304681
:10173C00336000F0A3FCAEE7C8F80430B6E7C8F895
:10174C000470B3E7C0010020002950D038B551F81F
:10175C00043C0C1F002BB8BFE418054600F08CFCB1
:10176C00274A13682BB1A3420CD921686018834215
:10177C002CD0284663601460BDE8384000F07EBC75
:10178C00A3420FD81A465B68002BF9D11168501888
:10179C00844217D02CD3636054602846BDE838408F
:1017AC0000F06CBC11685018A04214D020D82168ED
:1017BC0060188342EFD118685B680844C4E90003E1
:1017CC005460EAE723680B441360E6E718685B682B
:1017DC0008442060CDE72068014450188342116012
:1017EC00DBD1D3E900040144C2E90014D5E770470A
:1017FC000C2328462B60BDE8384000F03FBC00BFEE
:10180C00C401002088420ED98B1883420BD900EBFF
:10181C00020C002A6DD0624613F801CD994202F8F1
:10182C0001CDF9D170470F2A0FD8034602F1FF3CC6
:10183C00002A5ED00CF1010C013B8C4411F8012BF9
:10184C00614503F8012FF9D1704740EA01039B076A
:10185C0050D1A2F1100370B501F1200C23F00F054B
:10186C0001F1100E00F11004AC441B095EF8105C81
:10187C000EF1100E44F8105C5EF81C5C103444F849
:10188C001C5C5EF8185C44F8185C5EF8145CE64569
:10189C0044F8145CEAD1013312F00C0F01EB031184
:1018AC0002F00F0400EB031328D08E46043C24F006
:1018BC0003064FEA940C1E441C1F5EF8045B44F8AC
:1018CC00045FB442F9D10CF1010402F0030203EB02
:1018DC00840301EB840102F1FF3C4AB10CF1010CD1
:1018EC00013B8C4411F8012B614503F8012FF9D110
:1018FC0070BD7047034602F1FF3C9BE72246EAE7C6
:10190C00242B2DE9F84F42D8012B40D01F468E4690
:10191C008046484875461EF801BB10F80B4014F081
:10192C000804F7D1BBF12D0F6FD06FF00049BBF15C
:10193C002B0F04BF9EF800B005F1020E7BBBBBF170
:10194C00300F4CD00A273B460025B9FBF7F628464A
:10195C0007FB169A05E03BD0012507FB00C01EF8DB
:10196C0001BBABF1300CBCF1090F06D9ABF1410C4A
:10197C00BCF1190F1AD8ABF1370C63451FDDB5F16B
:10198C00FF3FECD08642E6D24FF0FF35E7E7FEF79B
:10199C00F9FC1622034600201A60BDE8F88F102BC4
:1019AC00D2D1BBF1300F23D01F46CDE7ABF1610C88
:1019BC00BCF1190F03D8ABF1570C6345DFDC6B1C82
:1019CC002BD054B9002AE8D085BB1160BDE8F88F44
:1019DC00E245C1DA4FF0FF35C1E74042F2E79EF82D
:1019EC00003003F0DF03582B08D008273B46ABE749
:1019FC009EF8000000F0DF005828D5D110279EF883
:101A0C0001B03B460EF1020E9EE79EF800B04FF07F
:101A1C000049012405F1020E90E72223C8F800309A
:101A2C0032B10EF1FF3148461160CFE78146F8E73D
:101A3C004846B2E7F93F000862E700BF8C4600B5A4
:101A4C0086461346034A714610685DF804EB6246FD
:101A5C0056E700BF000000208C4600B586461346B2
:101A6C00034A714610685DF804EB624648E700BF14
:101A7C00000000202DE9F8434FF0000980460F4686
:101A8C001646D6E90154013D10D4A389012B08D97F
:101A9C00B4F90E30013304D021464046B84749EA28
:101AAC000009013D6B1C04F16804EED13668002E70
:101ABC00E7D14846BDE8F883844641EA000313F0B9
:101ACC00030349D1403A23D30B6803604B6843604E
:101ADC008B688360CB68C3600B6903614B6943619E
:101AEC008B698361CB69C3610B6A03624B6A436286
:101AFC008B6A8362CB6AC3620B6B03634B6B43636E
:101B0C008B6B8363CB6BC36340304031403ADBD289
:101B1C0030320BD30B6803604B6843608B68836077
:101B2C00CB68C36010301031103AF3D20C3205D3AD
:101B3C0051F8043B40F8043B043AF9D2043208D083
:101B4C00D2071CBF11F8013B00F8013B01D30B88F5
:101B5C0003806046704700BF082A13D38B07B1D0AF
:101B6C0010F00303AED0C3F10403D21ADB071CBF81
:101B7C0011F8013B00F8013BA4D331F8023B20F8EB
:101B8C00023B9FE7043AD9D3013A11F8013B00F824
:101B9C00013BF9D20B7803704B7843708B788370D0
:101BAC006046704738B50C46114600228446074DF6
:101BBC0020462A601A46644602F0BCF9431C00D049
:101BCC0038BD2B68002BFBD0236038BDC80100202A
:101BDC002DE9F041144641B30AB306460D4600F018
:101BEC007DFB8442074602D8B4EB500F13D8214634
:101BFC003046FFF729FD804650B1BC4222462946AB
:101C0C0028BF3A46FFF758FF29463046FFF79CFDA0
:101C1C004046BDE8F081A8464046BDE8F081A046AC
:101C2C00FFF792FD4046BDE8F0811146BDE8F0415A
:101C3C00FFF70ABD2DE9F84F92461F460A698B68DB
:101C4C000C469A42B8BF1A46CAF8002091F84330A5
:101C5C000646DDF8289013B10132CAF8002022683C
:101C6C0091065FD5DAF800300233CAF800302268EA
:101C7C0012F0060F11461DD1E1689942D8BF1146EA
:101C8C0018DD4FF0000804F1190B05E0E568DAF8EF
:101C9C000030ED1A45450CDD01235A4639463046D5
:101CAC00C847013008F10108F0D14FF0FF30BDE812
:101CBC00F88F216894F84330003B18BF01238A0643
:101CCC000AD53021E21882F8431094F845105A1CBA
:101CDC002244023382F843103946304604F1430261
:101CEC00C8470130E1D0D4E902202368DAF800506B
:101CFC0003F00603042B21691BD08A4220DD4FF030
:101D0C000008521A904400251A3401E0454517DAB0
:101D1C000123224639463046C847013005F10105FA
:101D2C00F4D1C2E712F0060F0DD0003B18BF01230F
:101D3C00D2E7401B8A4220EAE078E2DC0028E2DCB1
:101D4C000020BDE8F88FE168DAF800309942D8BF7E
:101D5C00114696DCAEE700BF2DE9F04717460A7E28
:101D6C0084B00C46064698460C9D01F1430C002AA3
:101D7C0035D0A2F15803D9B2202969D8202B67D8C5
:101D8C00DFE813F0E6006600660066006600660099
:101D9C0066006600660066006600AC0070006600B7
:101DAC0066006600660070006600660066006600ED
:101DBC0021008300C60066006600B6006600830042
:101DCC0066006600EC002B682268181D61692860AB
:101DDC0010061B6802D4520600F1E0801960002343
:101DEC00E14623613B4621463046CDF8008003AAEC
:101DFC00FFF720FF013020D04A4639463046236990
:101E0C00C047013019D02368E0689B07DDF80C90BF
:101E1C0018D5484516DD002504F1190A04E0E068E0
:101E2C00A0EB0903AB420DDD012352463946304687
:101E3C00C047013005F10105F1D14FF0FF3004B07E
:101E4C00BDE8F0874845B8BF484604B0BDE8F08708
:101E5C00012084F8422004F142090023206184F817
:101E6C004330BFE72A682368111D1806296002D485
:101E7C00590600F195801068014600286268C0F28E
:101E8C0093804FF00A0E534815E020682B6810F031
:101E9C00800F53F8041B02D1400648BF89B26F2A49
:101EAC0014BF4FF00A0E4FF0080E4A482B60002367
:101EBC00626884F84330002AA26051DB236823F067
:101ECC000403236000294BD1002A7BD1E146BEF1EB
:101EDC00080F56D0ACEB0903236183E72A68012075
:101EEC00116804322A6004F1420984F84210B4E704
:101EFC002B6800211A1D2A60D3F8009062684846AE
:101F0C0000F078F9002863D0A0EB09006060A4E72A
:101F1C00236843F02003236078222F4884F845205F
:101F2C002A6813F0800F52F8041B03D113F0400FF2
:101F3C0018BF89B22A60DA0744BF43F0200323603C
:101F4C0019B9236823F0200323604FF0100EAEE77D
:101F5C005823204884F845302368E1E72368DBE701
:101F6C007546E146B1FBF5F30A4605FB131A194613
:101F7C0010F80A30AA4209F8013DF3D2BEF1080F5D
:101F8C00A8D12368DD07A5D5626823699A42A1DC34
:101F9C00302309F1FF3989F800309BE719801EE7DF
:101FAC00B2F90010084668E72D20002AA26084F8D8
:101FBC00430002DB23F0040323600A250548AE46E8
:101FCC004942CEE7037804F1420984F842307EE7B7
:101FDC00606842E794410008A841000870B50D788C
:101FEC0004465E2D25D04FF0000EF446481C00220E
:101FFC0023466EF307026EF30F226EF3174204F5BD
:10200C0080716EF31F6243F8042B8B42FBD175B1C8
:10201C008CF00101615500F1010E1EF8013C2D2BD5
:10202C000FD05D2B0BD01BB11D467046F2E701386B
:10203C0070BD4FF0010E4D78F446881CD7E7704602
:10204C0070BD90F801C0BCF15D0FEDD06545EBDCC7
:10205C006E1C0230A21902F8011B131B013B9C459C
:10206C00F9DCACEB0503013B6545A8BF00230EF181
:10207C00020EF518D1E700BF704700BF704700BFD4
:10208C0038B50C46114600228446074D20462A607E
:10209C001A46644601F06FFF431C00D038BD2B6814
:1020AC00002BFBD0236038BDC80100202DE9F04186
:1020BC000C46496B04F14403994214D0A66B77008B
:1020CC003A46FFF785FD054630B300EB060801469E
:1020DC0032464046FFF7F0FCC4E90D57C4F80080C7
:1020EC000020BDE8F0814FF48061FFF7ADFA98B1A4
:1020FC004FF4806194F846206063A16380F8FF235D
:10210C0094F8452000F2FD3380F8FE2394F8442027
:10211C0080F8FD232360E3E74FF0FF30E1E700BFD9
:10212C0070B54C1C2BD00E460546144610B1036AF4
:10213C00002B4CD0B4F90C3023F020025807A281AC
:10214C0006D4D9061BD51B0734D442F00402A28155
:10215C00626B6368F6B2AAB1A26B9A4209DD23687E
:10216C005A1E226003F8016C6368013363603046C9
:10217C0070BD21462846FFF799FF0028EFD04FF09D
:10218C00FF36F4E7226921682AB18A4203D211F89A
:10219C00012CB2421ED022460320C4E90F130123A6
:1021AC0004F14405A063656302F8466F3046C4E948
:1021BC00002370BD21462846FFF7DEF90028DED14A
:1021CC00B4F90C20A06022F00802A061BDE7FFF773
:1021DC000FF9AFE701390133C4E90013C7E700BFBA
:1021EC0003460A46024908681946FFF799BF00BF23
:1021FC00000000205FFA81FC810744D00346511E89
:10220C0022B909E09A0709D0013905D3184602789A
:10221C0001336245F6D170470020704718460329F8
:10222C000CD80029F8D00346014401E08B42F3D0CE
:10223C00184613F8012B6245F8D1704710B50CEB1A
:10224C000C24024604EB044402E00439032915D99A
:10225C00104652F8043B6340A3F1013E2EEA0303FF
:10226C0013F0803FF1D00346014401E08B4208D0CB
:10227C00184613F8012B6245F8D110BD1046002901
:10228C00F1D1002010BD1146C9E700BF38B50C468E
:10229C00114600228446074D20462A601A466446A1
:1022AC0001F058FE431C00D038BD2B68002BFBD02E
:1022BC00236038BDC8010020002238B5064D044605
:1022CC0008462A6001F012FE431C00D038BD2B6872
:1022DC00002BFBD0236038BDC801002051F8043C12
:1022EC00181F002BBCBF0B58C01870472DE9F047C6
:1022FC0007460E46484C304616F801EB14F80EC053
:10230C001CF0080CF7D1BEF12D0F5AD0BEF12B0FDB
:10231C0009BF6446644696F800E0861C4BB9BEF1D2
:10232C00300F5CD00A234FF0050A9946DFF8EC8099
:10233C000AE0102B4AD04FF0FF38B8FBF3F803FB40
:10234C0008FA99466FEA0A0A0025284605E02CD0BF
:10235C00012509FB00C016F801EBAEF1300CBCF105
:10236C00090F06D9AEF1410CBCF1190F0BD8AEF127
:10237C00370C634510DDB5F1FF3FECD04045E6D995
:10238C004FF0FF35E7E7AEF1610CBCF1190F03D844
:10239C00AEF1570C6345EEDC6B1C0BD004B1404224
:1023AC000AB165B91160BDE8F087D445D0DD4FF0B6
:1023BC00FF35D0E7222328463B60002AF3D0711E5C
:1023CC00F0E796F800E00124861CA7E7BEF1300F79
:1023DC0011D04FF00F0A6FF070489946B4E733787C
:1023EC0003F0DF03582B0BD008234FF0070A6FF0D4
:1023FC0060489946A8E7307800F0DF005828E8D10B
:10240C004FF0100996F801E04FF00F0A6FF070488A
:10241C004B46023698E700BFF93F00089999991985
:10242C0064E700BF8C4600B586461346034A7146E6
:10243C0010685DF804EB624658E700BF000000200E
:10244C008C4600B586461346034A714610685DF803
:10245C0004EB62464AE700BF000000200A4B1B88D1
:10246C000A4A1268D16A01FB03330949A1FB031321
:10247C005909D06AB0EB531F00D2D16A054B1B78B7
:10248C0003B90021516370475C0000203C0200201E
:10249C001F85EB51CC01002082B0064B9A6942F0AB
:1024AC0004029A619B6903F004030193019B02B03F
:1024BC00704700BF0010024010B50446FDF764FEE3
:1024CC004FF0FF3382B22146014801F0ACFA10BD47
:1024DC00F401002000B591B0284B1B78284800224D
:1024EC00C2542849FDF754FF90B127492448FDF701
:1024FC004FFFB0B9254B00221A70FFF7AFFF2448ED
:10250C00FFF7DAFF1D4B00221A7011B05DF804FBC7
:10251C001E4B01221A70FFF7A1FF1E48FFF7CCFFDC
:10252C00F0E703AA1C491648FDF784FE012814D0D5
:10253C001A491348FDF72CFFE0B9144B1B78BBB1BB
:10254C00104B174A12880092164A302104A8FEF745
:10255C003DF804A8FFF7B0FFD4E7039B642BE7D842
:10256C000F4A1380FFF77AFF0F48FFF7A5FFC9E763
:10257C00054BE6E70D48FFF79FFFC3E7CD010020B1
:10258C00D0010020FC40000804410008CC010020D0
:10259C00144100080841000820410008344100089B
:1025AC005C0000203C410008284100085041000814
:1025BC0008B502680E4B9A4200D008BD0D4B1B7833
:1025CC00212B0DD00D2B0DD00A2B0BD00A4A1278D3
:1025DC001E2A07D8501C0849087008498B5401E082
:1025EC00FFF778FF01220349054801F06AFCE4E794
:1025FC0000380140F0010020CD010020D001002066
:10260C00F401002072B6FEE700B58BB000230893EE
:10261C0009930193029303930493059306930793F1
:10262C0016484FF080420260436083604FF6FF72A1
:10263C00C2600361836100F0FBF9C0B90023089309
:10264C00099308A90D4800F039FB90B96023019358
:10265C00002202920392059201A9084800F042FA66
:10266C0048B9064800F0BCF80BB05DF804FBFFF766
:10267C00C9FFFFF7C7FFFFF7C5FF00BF3C020020F3
:10268C0008B50A480A4B03604FF4E133436000235A
:10269C008360C36003610C2242618361C36101F0FA
:1026AC0092F900B908BDFFF7ADFF00BFF40100209F
:1026BC000038014000B591B02822002106A8FDF792
:1026CC0011FE0023019302930393049305930223B9
:1026DC00069301230A9310230B9306A800F084FBA6
:1026EC0068B90F2301930021029103910491059184
:1026FC0001A800F0ABFD20B911B05DF804FBFFF7A9
:10270C0081FFFFF77FFF000008B500F033FBFFF7F8
:10271C00D1FFFFF7C1FEFFF777FFFFF7B1FF0021F5
:10272C00064800F05DFAFFF799FE012204490548BE
:10273C0001F0C7FB0448FFF7BFFEFEE73C02002098
:10274C00F0010020F401002058410008FEE7FEE7EC
:10275C00FEE7FEE7FEE770477047704708B500F0EC
:10276C001BFB08BD08B5024801F04EFA08BD00BFBE
:10277C00F401002082B00E4B9A6942F001029A617A
:10278C009A6902F001020092009ADA6942F08052D2
:10279C00DA61DB6903F080530193019B054A5368AE
:1027AC0023F0E06343F00073536002B0704700BF46
:1027BC0000100240000001400368B3F1804F00D0CC
:1027CC00704782B003F50433DA6942F00102DA6132
:1027DC00DB6903F001030193019B02B07047000019
:1027EC0000B587B000230293039304930593036809
:1027FC00B3F1804F02D007B05DF804FB03F504334E
:10280C009A6942F004029A619B6903F004030193F4
:10281C00019B0123029302230393059302A902480F
:10282C0000F0F0FDE7E700BF0008014030B587B0CD
:10283C000023029303930493059302681B4B9A4263
:10284C0001D007B030BD03F558439A6942F4804279
:10285C009A619A6902F480420092009A9A6942F055
:10286C0004029A619B6903F004030193019B4FF4EA
:10287C000073029302230393032305930C4D02A9C7
:10288C00284600F0BFFD4FF48063029300240394AC
:10289C00049402A9284600F0B5FD224621462520C5
:1028AC0000F074FF252000F081FFCAE700380140DA
:1028BC000008014030B4026A036A23F0010303628A
:1028CC004568836923F073030C681C4322F00202F1
:1028DC008B6813430B4A904206D0456084614A686A
:1028EC004263036230BC704723F00803CA681A4382
:1028FC0022F0040325F440754A692A438D69154377
:10290C00EBE700BF002C014030B4036A026A22F4EA
:10291C00807202624468C26922F073020D6815432A
:10292C0023F400738A6843EA02230D4A904206D0CE
:10293C004460C5614A68C263036230BC704723F4CB
:10294C000063CA6843EA022323F4806324F44054EE
:10295C004A6944EA02148A6944EA0214E8E700BFAF
:10296C00002C014030B4036A026A22F480520262E5
:10297C004468C26922F4E6420D6842EA052223F457
:10298C0000538D6843EA0533074DA84206D04460D6
:10299C00C2614A680264036230BC704724F480440C
:1029AC004D6944EA8514F2E7002C014003681F4A84
:1029BC0090420AD0B0F1804F07D0A2F594329042E9
:1029CC0003D002F58062904203D123F070034A6871
:1029DC001343164A90420AD0B0F1804F07D0A2F5AB
:1029EC009432904203D002F58062904203D123F4DA
:1029FC004073CA68134323F080034A69134303608E
:102A0C008B68C3620B688362084B98420AD001231F
:102A1C004361036913F0010F03D0036923F0010331
:102A2C00036170470B690363F1E700BF002C0140A1
:102A3C0040B310B5044690F83D30F3B1022384F84E
:102A4C003D30214651F8040BFFF7B0FF012384F809
:102A5C00463084F83E3084F83F3084F8403084F8B7
:102A6C00413084F8423084F8433084F8443084F8A0
:102A7C00453084F83D30002010BD80F83C30FFF725
:102A8C009BFEDBE70120704730B4036A026A22F038
:102A9C00100202624468826922F4E6420D6842EA3E
:102AAC00052223F020038D6843EA05130C4DA84240
:102ABC0006D0446082614A688263036230BC70470E
:102ACC0023F08003CD6843EA051323F0400324F47C
:102ADC0040644D6944EA85048D6944EA8504E8E75D
:102AEC00002C014038B590F83C30012B66D00446E0
:102AFC000D46012380F83C300C2A5AD8DFE802F04E
:102B0C00075959591B59595930595959440000689A
:102B1C00FFF7D0FE2268936943F0080393612268A3
:102B2C00936923F0040393612268936929690B4329
:102B3C00936100203EE00068FFF7A6FF22689369CE
:102B4C0043F4006393612268936923F48063936177
:102B5C0022689369296943EA01239361002029E0E3
:102B6C000068FFF7D1FE2268D36943F00803D361F4
:102B7C002268D36923F00403D3612268D3692969DD
:102B8C000B43D361002015E00068FFF7EBFE2268D1
:102B9C00D36943F40063D3612268D36923F480635F
:102BAC00D3612268D369296943EA0123D3610020E8
:102BBC0000E00120002384F83C3038BD0220FCE703
:102BCC0001F01F014FF0010C0CFA01FC036A23EA1F
:102BDC000C030362036A8A401343036270470000CC
:102BEC0010B50446084651BB94F83E30DBB2013BAD
:102BFC0018BF0123002B5BD1002839D1022384F8A4
:102C0C003E30012201462068FFF7DAFF23682A4A8A
:102C1C0093423DD02368284A93423ED0B3F1804F73
:102C2C003BD0A2F59432934237D002F580629342A6
:102C3C0033D01A6842F001021A60002039E00429EE
:102C4C0008D008290DD094F84130DBB2013B18BFF5
:102C5C000123CFE794F83F30DBB2013B18BF0123CF
:102C6C00C8E794F84030DBB2013B18BF0123C1E741
:102C7C00042805D0082807D0022384F84130C0E787
:102C8C00022384F83F30BCE7022384F84030B8E7D5
:102C9C005A6C42F400425A64BCE79A6802F007028C
:102CAC00062A07D01A6842F001021A60002000E0E0
:102CBC00012010BD0020FCE7002C014090F83C20C6
:102CCC00012A2CD010B40346012280F83C200222A9
:102CDC0080F83D2002685068946820F0700C0868F9
:102CEC0040EA0C0050601A680E4882420AD0B2F1D9
:102CFC00804F07D0A0F59430824203D000F580605D
:102D0C00824204D124F0800449682143916001225D
:102D1C0083F83D20002083F83C0010BC7047022053
:102D2C00704700BF002C014010B504460E4B1A78BA
:102D3C004FF47A73B3FBF2F30C4A1068B0FBF3F068
:102D4C0000F042FD68B90F2C01D901200AE00022E5
:102D5C0021464FF0FF3000F019FD054B1C600020A0
:102D6C0000E0012010BD00BF5E00002064000020C8
:102D7C006000002008B5074A136843F01003136085
:102D8C00032000F0F1FC0F20FFF7CEFFFFF7F2FC61
:102D9C00002008BD00200240034A1168034B1B7839
:102DAC000B441360704700BF840200205E000020BB
:102DBC00014B1868704700BF8402002082B0084B9A
:102DCC001B68084AA2FB03235B0A00FB03F3019375
:102DDC0000BF019B5A1E0192002BF9D102B0704723
:102DEC0064000020D34D6210002800F0F18170B512
:102DFC0082B00446036813F0010F2CD0994B5B682A
:102E0C0003F00C03042B1DD0964B5B6803F00C03F2
:102E1C00082B12D06368B3F5803F41D0002B55D1FD
:102E2C0003F1804303F504331A6822F480321A60EC
:102E3C001A6822F480221A6037E08A4B5B6813F41C
:102E4C00803FE7D0874B1B6813F4003F03D06368C7
:102E5C00002B00F0BF81236813F0020F75D0814B5B
:102E6C005B6813F00C0F5FD07E4B5B6803F00C03B8
:102E7C00082B54D02369002B00F08A807A4B012256
:102E8C001A60FFF795FF0546764B1B6813F0020F8F
:102E9C0075D1FFF78DFF401B0228F5D903209EE169
:102EAC00704A136843F480331360636843B3FFF7CD
:102EBC007FFF05466B4B1B6813F4003FCBD1FFF72C
:102ECC0077FF401B6428F5D9032088E1B3F5A02FC8
:102EDC0009D0644B1A6822F480321A601A6822F402
:102EEC0080221A60E1E703F18043A3F53C331A68B2
:102EFC0042F480221A601A6842F480321A60D4E7D5
:102F0C00FFF756FF0546574B1B6813F4003FA2D042
:102F1C00FFF74EFF401B6428F5D903205FE1514BAE
:102F2C005B6813F4803FA5D14E4B1B6813F0020F66
:102F3C0003D02369012B40F04F814A4A136823F0D8
:102F4C00F803616943EAC1031360236813F0080FA7
:102F5C0033D0A369002B5CD0434B0122C3F88024EF
:102F6C00FFF726FF05463F4B5B6A13F0020F21D19A
:102F7C00FFF71EFF401B0228F5D903202FE1394A29
:102F8C00136823F0F803616943EAC1031360DCE7BB
:102F9C00354B00221A60FFF70BFF0546314B1B68BF
:102FAC0013F0020FD1D0FFF703FF401B0228F5D915
:102FBC00032014E10120FFF701FF236813F0040F35
:102FCC0000F09680274BDB6913F0805F34D1254BE2
:102FDC00DA6942F08052DA61DB6903F080530193C5
:102FEC00019B0125214B1B6813F4807F26D0E368DD
:102FFC00012B3DD0002B53D103F1804303F5043357
:10300C001A6A22F001021A621A6A22F004021A6287
:10301C0033E0154B0022C3F88024FFF7C9FE0546A8
:10302C00104B5B6A13F0020FC7D0FFF7C1FE401BB9
:10303C000228F5D90320D2E00025D3E70B4A136808
:10304C0043F480731360FFF7B3FE0646074B1B680F
:10305C0013F4807FCBD1FFF7ABFE801B6428F5D92E
:10306C000320BCE00010024000004242007000400F
:10307C005F4A136A43F001031362E36833B3FFF74B
:10308C0097FE06465A4B1B6A13F0020F2FD1FFF71F
:10309C008FFE801B41F288339842F3D903209EE0C7
:1030AC00052B09D0524B1A6A22F001021A621A6AD5
:1030BC0022F004021A62E0E74D4B1A6A42F0040255
:1030CC001A621A6A42F001021A62D6E7FFF770FE22
:1030DC000646474B1B6A13F0020F08D0FFF768FE39
:1030EC00801B41F288339842F3D9032077E0E5B98D
:1030FC00E369002B72D03E4A526802F00C02082A97
:10310C0056D0022B17D03B4B00221A66FFF750FE0D
:10311C000446374B1B6813F0007F47D0FFF748FE7F
:10312C00001B0228F5D9032059E0314AD36923F05A
:10313C008053D361DCE72F4B00221A66FFF738FE71
:10314C0005462B4B1B6813F0007F06D0FFF730FEB3
:10315C00401B0228F5D9032041E0236AB3F5803FD8
:10316C001AD023494B6823F47413226A606A024311
:10317C0013434B601F4B01221A66FFF719FE0446DE
:10318C001B4B1B6813F0007F0ED1FFF711FE001BC9
:10319C000228F5D9032022E0154A536823F40033A2
:1031AC00A1680B435360DCE7002018E0002016E018
:1031BC00012B16D00E4B5B6803F48031226A9142CE
:1031CC0011D103F47013626A93420ED1002006E011
:1031DC0001207047012002E0012000E0002002B035
:1031EC0070BD0120FBE70120F9E70120F7E700BFE4
:1031FC0000100240000042420F4B5B6803F00C02CF
:10320C00082A01D00D487047C3F383420C49885CEF
:10321C0013F4803F0BD0084B5B68C3F34043094A5F
:10322C00D35C064A02FB00F0B0FBF3F07047064B90
:10323C0003FB00F0704700BF0010024000127A0040
:10324C00C0410008BC41000800093D00002800F006
:10325C00A08070B50D460446524B1B6803F0070363
:10326C008B420BD24F4A136823F007030B431360B6
:10327C00136803F007038B4240F08D80236813F032
:10328C00020F17D013F0040F04D0474A536843F4CD
:10329C00E0635360236813F0080F04D0424A53686C
:1032AC0043F460535360404A536823F0F003A16821
:1032BC000B435360236813F0010F31D06368012B6B
:1032CC0020D0022B25D0384A126812F0020F64D09D
:1032DC0035494A6822F0030213434B60FFF768FD3F
:1032EC000646314B5B6803F00C036268B3EB820F4C
:1032FC0016D0FFF75DFD801B41F288339842F0D960
:10330C00032045E0284A126812F4003FE0D1012066
:10331C003EE0254A126812F0007FD9D1012037E037
:10332C00204B1B6803F00703AB420AD91D4A1368F4
:10333C0023F007032B431360136803F00703AB421E
:10334C002DD1236813F0040F06D0174A536823F4C9
:10335C00E063E1680B435360236813F0080F07D058
:10336C00114A536823F46053216943EAC103536043
:10337C00FFF742FF0C4B5B68C3F303130B4AD35CA0
:10338C00D8400B4B18600B4B1868FFF7CDFC002096
:10339C0070BD012070470120FAE70120F8E70120F9
:1033AC00F6E700BF0020024000100240D8410008A0
:1033BC006400002060000020014B1868704700BFBB
:1033CC006400002008B5FFF7F7FF044B5B68C3F3FC
:1033DC000223034AD35CD84008BD00BF0010024052
:1033EC00D041000808B5FFF7E7FF044B5B68C3F357
:1033FC00C223034AD35CD84008BD00BF0010024072
:10340C00D041000870B582B00024A446A1E07E4DE6
:10341C00AB4214D00CD8A5F58015AB420FD005F5F6
:10342C007025AB420BD0A5F58015AB4210D106E050
:10343C00764DAB4203D005F58035AB4208D18B6895
:10344C00002B50D0012B49D04261082400E0CC68FD
:10345C00BEF1FF0F49D806464FEA8C0233680F25A0
:10346C00954023EA050304FA02F2134333604B68D8
:10347C0013F0805F6BD0664B9A6942F001029A613F
:10348C009B6903F001030193019B4FEA9C02951C7D
:10349C00604B53F825600CF00305AD000F23AB40D7
:1034AC0026EA03065C4B984226D003F580639842CB
:1034BC0000F08C8003F58063984200F0898003F55E
:1034CC008063984216D0042317E0CC680434BFE71D
:1034DC00CC680834BCE7CC680C34B9E7026108242A
:1034EC00B6E70024B4E70424B2E7061DACF10802E9
:1034FC009200B3E7032300E00023AB4033430232D6
:10350C00444D45F822304B6813F4801F62D0434A77
:10351C00936843EA0E0393604B6813F4001F5FD06B
:10352C003E4AD36843EA0E03D3604B6813F4003F62
:10353C005CD03A4A536843EA0E0353604B6813F469
:10354C00803F59D0354A136843EA0E0313600CF1DF
:10355C00010C0B6833FA0CF254D0012202FA0CF273
:10356C0003EA020E32EA0303F1D14B68122B3FF649
:10357C004EAF122B3FF66CAF01A555F823F000BFF0
:10358C004B3400085B340008DD340008EF340008CD
:10359C005D3400085D3400085D3400085D340008BB
:1035AC005D3400085D3400085D3400085D340008AB
:1035BC005D3400085D3400085D3400085D3400089B
:1035CC005D340008D7340008E3340008012394E785
:1035DC00022392E7114A936823EA0E0393609BE758
:1035EC000E4AD36823EA0E03D3609EE70B4A536856
:1035FC0023EA0E035360A1E7084A136823EA0E037B
:10360C001360A4E702B070BD00002210000031105E
:10361C00001002400000014000080140000401407D
:10362C00034690F82120D2B2022A06D004228263EB
:10363C00002280F820200120704701680A6822F0DF
:10364C000E020A6001680A6822F001020A60026C2C
:10365C00C06B012101FA02F2426083F821100020B4
:10366C0083F820007047000008B590F82130DBB2D9
:10367C00022B03D004238363012008BD0268136866
:10368C0023F00E0313600268136823F00103136028
:10369C000368194A934214D0143293421FD0143247
:1036AC0093421ED0143293421ED0143293421ED039
:1036BC001432934202D04FF0807203E04FF4801228
:1036CC0000E001220D4B5A60012380F821300023C9
:1036DC0080F82030436B6BB198470020CDE7102267
:1036EC00F0E74FF48072EDE74FF48052EAE74FF4C5
:1036FC008032E7E70020C0E70800024000000240EB
:10370C00002808DB0901C9B200F1604000F56140F6
:10371C0080F80013704700F00F000901C9B2014B8B
:10372C001954704714ED00E000B500F00700C0F12B
:10373C00070CBCF1040F28BF4FF0040C031D062B23
:10374C000FD9C31E4FF0FF3E0EFA0CF021EA000118
:10375C0099400EFA03FE22EA0E0241EA02005DF8DD
:10376C0004FB0023EEE70000074AD36823F4E06370
:10377C001B041B0C000200F4E060034343F0BF6326
:10378C0043F40033D360704700ED00E010B50446FD
:10379C00054BD868C0F30220FFF7C6FF0146204650
:1037AC00FFF7AEFF10BD00BF00ED00E0002807DB07
:1037BC0000F01F02400901239340024A42F82030D6
:1037CC00704700BF00E100E00138B0F1807F0BD200
:1037DC004FF0E0235861054AF02182F823100020B5
:1037EC00986107221A6170470120704700ED00E0D4
:1037FC00026802F10C0353E8003F23F490730C327F
:10380C0042E800310029F3D1026802F1140353E8B5
:10381C00003F23F00103143242E800310029F3D1B8
:10382C00036B012B05D0202380F842300023036367
:10383C007047026802F10C0353E8003F23F01003B9
:10384C000C3242E800310029F3D1ECE790F841301A
:10385C00DBB2212B01D0022070478368B3F5805F67
:10386C0017D0036A5A1C02621A7803685A60C38C18
:10387C009BB2013B9BB2C3844BB90268D36823F063
:10388C008003D3600268D36843F04003D360002008
:10389C0070470369002BE4D1036A1B880268C3F3E9
:1038AC0008035360036A02330362E0E710B5044671
:1038BC000268136923F44053C1680B431361836896
:1038CC000269134342691A430168CB6823F4B0536D
:1038DC0023F00C031343CB600268536923F4407349
:1038EC0081690B4353610268134B9A4220D0FFF756
:1038FC0069FD024602EB820202EB820263689B00C6
:10390C00B2FBF3F20D48A0FB02314909642303FB1F
:10391C0011231B013233A0FB03035B0903F0F002FC
:10392C0002EB011203F00F03216813448B6010BDEE
:10393C00FFF758FD0246DDE7003801401F85EB51CB
:10394C002DE9F04383B005460E4617469946DDF83F
:10395C0028802B681C6836EA04040CBF0124002460
:10396C00BC4228D1B8F1FF3FF3D0FFF721FAA0EB0E
:10397C000900404523D8B8F1000F22D02B68DA6833
:10398C0012F0040FE5D0802EE3D0402EE1D01A685F
:10399C0012F0080FDDD0002401941A6801925B68C4
:1039AC000193019B2846FFF723FF08236B6485F8DE
:1039BC004040012000E0002003B0BDE8F08303206C
:1039CC00FAE70320F8E760B310B5044690F84130ED
:1039DC0013B3242384F841302268D36823F40053B2
:1039EC00D3602046FFF762FF2268136923F49043EB
:1039FC0013612268536923F02A0353612268D36848
:103A0C0043F40053D36000206064202384F84130D9
:103A1C0084F84230606310BD80F84030FEF706FF3A
:103A2C00D7E7012070472DE9F04182B01E4690F88F
:103A3C004130DBB2202B56D104460D46904600296E
:103A4C0055D00AB901204FE000234364212380F8AC
:103A5C004130FFF7ADF90746A4F82480A4F826807E
:103A6C00A368B3F5805F02D04FF0000814E023691F
:103A7C002BB34FF000080FE0202384F841300320D3
:103A8C0032E038F8023B2268C3F308035360E28C3F
:103A9C0092B2013A92B2E284E38C9BB293B100965B
:103AAC003B46002280212046FFF74AFF0028E3D145
:103ABC00002DE6D015F8012B23685A60E7E7A846DD
:103ACC000025E9E700963B46002240212046FFF7FF
:103ADC0037FF18B9202384F8413005E0202384F8FF
:103AEC004130032000E0022002B0BDE8F08101204B
:103AFC00FAE7704708B50168CA6822F04002CA604C
:103B0C00202280F84120FFF7F4FF002008BD704709
:103B1C0008B5406A0023C385C384FFF7F8FF08BDCE
:103B2C00704790F84230DBB2222B69D18368B3F531
:103B3C00805F4FD0826AB3F5805F04D0002B56D1E2
:103B4C000369002B53D103685B681370836A0133DC
:103B5C008362C38D9BB2013B9BB2C385002B51D1B9
:103B6C0000B583B00268D36823F02003D3600268E9
:103B7C00D36823F48073D3600268536923F0010384
:103B8C005361202380F8423000234363036B012BE5
:103B9C0033D100230363026802F10C0353E8003FA6
:103BAC0023F010030C3242E800310029F3D10368F2
:103BBC001A6812F0100F06D0002201921A680192B6
:103BCC005B680193019B818DFFF7AAFF002003B076
:103BDC005DF804FB0269002AACD1826A03685B6859
:103BEC00C3F308031380836A02338362B1E703686B
:103BFC005B6803F07F031370A8E7FEF7D9FCE5E7D9
:103C0C00022070470020704710B582B0044602684D
:103C1C001368D068516913F00F0F09D113F0200FFE
:103C2C000CD010F0200F09D02046FFF77AFF16E0D9
:103C3C0011F0010115D110F4907F12D1216B0129E3
:103C4C0079D013F0800F03D010F0800F40F0138167
:103C5C0013F0400F03D010F0400F40F0108102B071
:103C6C0010BD13F0010F06D010F4807F03D0626CEE
:103C7C0042F00102626413F0040F04D019B1626CBB
:103C8C0042F00202626413F0020F04D019B1626CAC
:103C9C0042F00402626413F0080F07D010F0200FFA
:103CAC0000D119B1626C42F008026264626C002AA5
:103CBC00D5D013F0200F02D010F0200F29D123689B
:103CCC005B6903F04003626C12F0080F00D163B320
:103CDC002046FFF78DFD23685B6913F0400F20D061
:103CEC00226802F1140353E8003F23F0400314321E
:103CFC0042E800310029F3D1E36B73B1624A5A6395
:103D0C00E06BFFF7B1FC0028A9D0E06B436B984740
:103D1C00A5E72046FFF705FFD1E72046FFF7F7FEA2
:103D2C009DE72046FFF7F3FE99E72046FFF7EFFEED
:103D3C000023636493E713F0100F82D010F0100F80
:103D4C003FF47FAF002301931368019353680193F1
:103D5C00019B536913F0400F51D0E26B13685B6801
:103D6C009BB2002B3FF47BAFA18D99427FF677AFCE
:103D7C00E3859369202B37D0226802F10C0353E8BA
:103D8C00003F23F480730C3242E800310029F3D158
:103D9C00226802F1140353E8003F23F001031432AC
:103DAC0042E800310029F3D1226802F1140353E8F0
:103DBC00003F23F04003143242E800310029F3D1D4
:103DCC00202384F8423000232363226802F10C0381
:103DDC0053E8003F23F010030C3242E80031002975
:103DEC00F3D1E06BFFF71CFC02236363A18DE38D21
:103DFC009BB2C91A89B22046FFF792FE2FE7A18D1C
:103E0C00E38D9BB2C91A89B2E38D9BB2002B3FF4B0
:103E1C0026AF00293FF423AF226802F10C0353E8CC
:103E2C00003F23F490730C3242E800300028F3D1A9
:103E3C00226802F1140353E8003F23F0010314320B
:103E4C0042E800300028F3D1202384F842300023CC
:103E5C002363226802F10C0353E8003F23F01003A4
:103E6C000C3242E800300028F3D102236363204671
:103E7C00FFF756FEF3E62046FFF7E8FCEFE6204698
:103E8C00FFF738FEEBE600BF1D3B00088162828520
:103E9C00C28500234364222380F84230036923B196
:103EAC000268D36843F48073D3600268536943F0AB
:103EBC00010353610268D36843F02003D3600020F0
:103ECC00704708B590F84230DBB2202B08D149B1CD
:103EDC000AB9012008BD00230363FFF7D7FFF9E7F8
:103EEC000220F7E70120F5E77047000010B5034604
:103EFC000C4A0D490D48006840B10C480068034459
:103F0C00521A934206D8094A136010BD0748084C50
:103F1C000460F2E7FCF736FA0C2303604FF0FF3035
:103F2C00F3E700BF005000200004000088020020CE
:103F3C009002002070B50C461646002506E0AFF343
:103F4C000080214601F8010B01350C46B542F6DB29
:103F5C00304670BD70B50C461646002504E014F8CA
:103F6C00010BAFF300800135B542F8DB304670BD74
:103F7C004FF0FF307047002070470000FFF7B4FF90
:103F8C000B480C490C4A002302E0D458C4500433AB
:103F9C00C4188C42F9D3094A094C002301E0136080
:103FAC000432A242FBD3FCF71DF9FEF7ADFB7047C0
:103FBC000000002068000020F84100086800002084
:103FCC008C020020FEE70000F8B500BFF8BC08BC6E
:103FDC009E467047F8B500BFF8BC08BC9E467047BB
:103FEC00884100088C4100089041000800202020E6
:103FFC00202020202020282828282820202020208D
:10400C00202020202020202020202020208810105C
:10401C0010101010101010101010101010040404B8
:10402C000404040404040410101010101010414176
:10403C004141414101010101010101010101010164
:10404C000101010101010101101010101010424278
:10405C004242424202020202020202020202020234
:10406C0002020202020202021010101020000000D4
:10407C000000000000000000000000000000000034
:10408C000000000000000000000000000000000024
:10409C000000000000000000000000000000000014
:1040AC000000000000000000000000000000000004
:1040BC0000000000000000000000000000000000F4
:1040CC0000000000000000000000000000000000E4
:1040DC0000000000000000000000000000000000D4
:1040EC0000000000000000000000000000000000C4
:1040FC004F4E0000000000004F4646004C45442047
:10410C004F4E0D0A000000004C4544204F46460D12
:10411C000A00000050574D3A2575000050574D20AD
:10412C004F4B0D0A0000000053746174757300004E
:10413C004C45443A25732050574D3A257525250D8D
:10414C000A0000004552520D0A00000052656164DD
:10415C00790D0A00232D302B20000000686C4C00D8
:10416C006566674546470000412D46612D66383926
:10417C0030313233343536375D0000002B2D0000E2
:10418C003030000078580000303132333435363757
:10419C003839414243444546000000003031323347
:1041AC003435363738396162636465660000000067
:1041BC000102000002030405060708090A0B0C0D96
:1041CC000E0F10100000000001020304000000009C
:0C41DC00000000000102030406070809AF
:0841E800B4C1FF7F01000000DB
:0441F000750100084D
:0441F4004D01000871
:1041F800040000200000000084000020EC000020E3
:104208005401002000000000000000000000000031
:104218000000000000000000000000000000000096
:104228000000000000000000000000000000000086
:104238000000000000000000000000000000000076
:10424800000000000300000084000020640001005A
:084258001000000000127A00C2
:0400000508003F8927
:00000001FF
