:020000040800F2
:1000000000500020110D00082D0300082F030008E8
:100010003103000833030008350300080000000026
:10002000000000000000000000000000370300088E
:1000300039030008000000003B0300083D030008EE
:10004000590D0008590D0008590D0008590D0008F8
:10005000590D0008590D0008590D0008590D0008E8
:10006000590D0008590D0008590D0008590D0008D8
:10007000590D0008590D0008590D0008590D0008C8
:10008000590D0008590D0008590D0008590D0008B8
:10009000590D0008590D0008590D0008590D0008A8
:1000A000590D0008590D0008590D0008590D000898
:1000B000590D0008590D0008590D0008590D000888
:1000C000590D0008590D0008590D0008590D000878
:1000D000590D0008590D0008590D0008590D000868
:1000E000590D0008590D0008590D000800000000C6
:1000F0000000000000000000000000000000000000
:0C01000000000000000000005FF808F1A3
:10010C000348044B834202D0034B03B1184770479A
:10011C000C0000200C000020000000000548064BDD
:10012C001B1AD90F01EBA301491002D0034B03B1E9
:10013C00184770470C0000200C0000200000000045
:10014C0010B5064C237843B9FFF7DAFF044B13B113
:10015C000448AFF300800123237010BD0C00002075
:10016C0000000000B40D000808B5054B1BB1054993
:10017C000548AFF30080BDE80840FFF7CFBF00BFD4
:10018C000000000010000020B40D00082DE9F04321
:10019C0089B004AD00240494059406940794224B72
:1001AC009A6942F010029A619A6902F01002019267
:1001BC00019A9A6942F008029A619A6902F008025F
:1001CC000292029A9A6942F004029A619B6903F0C6
:1001DC0004030393039BDFF8549022464FF4005121
:1001EC00484600F00FFD124E22460721304600F023
:1001FC0009FD4FF4005304934FF00108CDF814801F
:10020C000694022707972946484600F009FC072365
:10021C000493CDF81480069407972946304600F0D5
:10022C00FFFB09B0BDE8F083001002400010014054
:10023C000008014008B5174A13680133136041F2F6
:10024C00873293420DD8144A136801331360B3F507
:10025C00FA7F0ED2114A136801331360312B10D878
:10026C0008BD0C4B00221A6001210D4800F0D0FC97
:10027C00E9E7134600221A600221094800F0C8FC85
:10028C00E8E7134600221A600421054800F0C0FC80
:10029C00E6E700BF300000202C00002028000020E2
:1002AC000008014072B6FEE710B590B006AC2822EB
:1002BC000021204600F04BFD002301930293039391
:1002CC00049305930223069301230A9310230B93A3
:1002DC00204600F0B5F860B90F2301930146029057
:1002EC0003900490059001A800F0DEFA18B910B044
:1002FC0010BDFFF7D7FFFFF7D5FF000008B500F0E2
:10030C0065F8FFF7D1FF00F085FB044BA3FB003031
:10031C00800900F0E1FCFFF739FFFEE7D34D6210D6
:10032C00FEE7FEE7FEE7FEE7FEE770477047704723
:10033C0008B500F05DF8FFF77DFF08BD82B00E4BED
:10034C009A6942F001029A619A6902F001020092E4
:10035C00009ADA6942F08052DA61DB6903F080536B
:10036C000193019B054A536823F0E06343F000734B
:10037C00536002B0704700BF001002400000014003
:10038C0010B504460E4B18680E4B1A784FF47A735E
:10039C00B3FBF2F3B0FBF3F000F09EFC68B90F2C4A
:1003AC0001D901200AE0024621464FF0FF3000F04F
:1003BC0083FC054B1C60002000E0012010BD00BF39
:1003CC0008000020000000200400002008B5074AA7
:1003DC00136843F010031360032000F05BFC0F2044
:1003EC00FFF7CEFFFFF7AAFF002008BD0020024058
:1003FC00034A1168034B1B780B441360704700BF12
:10040C003400002000000020014B1868704700BF2A
:10041C003400002082B0084B1B68084AA2FB03235F
:10042C005B0A00FB03F3019300BF019B5A1E019270
:10043C00002BF9D102B0704708000020D34D621098
:10044C00002800F0F38170B582B00446036813F005
:10045C00010F2CD09A4B5B6803F00C03042B1DD0BE
:10046C00974B5B6803F00C03082B12D06368B3F551
:10047C00803F41D0002B55D103F1804303F5043369
:10048C001A6822F480321A601A6822F480221A60E8
:10049C0037E08B4B5B6813F4803FE7D0884B1B68CD
:1004AC0013F4003F03D06368002B00F0C181236874
:1004BC0013F0020F75D0824B5B6813F00C0F5FD0FA
:1004CC007F4B5B6803F00C03082B54D02369002B83
:1004DC0000F08A807B4B01221A60FFF795FF0546DE
:1004EC00774B1B6813F0020F75D1FFF78DFF401B84
:1004FC000228F5D90320A0E1714A136843F4803334
:10050C001360636843B3FFF77FFF05466C4B1B68B2
:10051C0013F4003FCBD1FFF777FF401B6428F5D9CC
:10052C0003208AE1B3F5A02F09D0654B1A6822F499
:10053C0080321A601A6822F480221A60E1E703F113
:10054C008043A3F53C331A6842F480221A601A687F
:10055C0042F480321A60D4E7FFF756FF0546584B39
:10056C001B6813F4003FA2D0FFF74EFF401B64281A
:10057C00F5D9032061E1524B5B6813F4803FA5D1A0
:10058C004F4B1B6813F0020F03D02369012B40F073
:10059C0051814B4A136823F0F803616943EAC103A4
:1005AC001360236813F0080F33D0A369002B5DD0C0
:1005BC00444B0122C3F88024FFF726FF0546404B2D
:1005CC005B6A13F0020F21D1FFF71EFF401B0228BC
:1005DC00F5D9032031E13A4A136823F0F803616935
:1005EC0043EAC1031360DCE7364B00221A60FFF7C5
:1005FC000BFF0546324B1B6813F0020FD1D0FFF7EF
:10060C0003FF401B0228F5D9032016E10120FFF758
:10061C0001FF236813F0040F00F09880284BDB696E
:10062C0013F0805F35D1264BDA6942F08052DA61E3
:10063C00DB6903F080530193019B01231E46224B7F
:10064C001B6813F4807F27D0E368012B3ED0002B6E
:10065C0054D103F1804303F504331A6A22F00102EA
:10066C001A621A6A22F004021A6234E0154B002254
:10067C00C3F88024FFF7C8FE0546114B5B6A13F0E4
:10068C00020FC6D0FFF7C0FE401B0228F5D903208D
:10069C00D3E000231E46D2E70B4A136843F4807361
:1006AC001360FFF7B1FE0546074B1B6813F4807F00
:1006BC00CAD1FFF7A9FE401B6428F5D90320BCE082
:1006CC000010024000004242007000405F4A136A72
:1006DC0043F001031362E36833B3FFF795FE05465D
:1006EC005A4B1B6A13F0020F2FD1FFF78DFE401BE4
:1006FC0041F288339842F3D903209EE0052B09D0B0
:10070C00524B1A6A22F001021A621A6A22F004028F
:10071C001A62E0E74D4B1A6A42F004021A621A6A36
:10072C0042F001021A62D6E7FFF76EFE0546474B10
:10073C001B6A13F0020F08D0FFF766FE401B41F254
:10074C0088339842F3D9032077E0E6B9E369002BAC
:10075C0072D03E4A526802F00C02082A56D0022B84
:10076C0017D03B4B00221A66FFF74EFE0446374B60
:10077C001B6813F0007F47D0FFF746FE001B0228D2
:10078C00F5D9032059E0314AD36923F08053D36162
:10079C00DCE72F4B00221A66FFF736FE05462B4B83
:1007AC001B6813F0007F06D0FFF72EFE401B0228BB
:1007BC00F5D9032041E0236AB3F5803F1AD02349D1
:1007CC004B6823F47413226A606A024313434B6030
:1007DC001F4B01221A66FFF717FE04461B4B1B68C2
:1007EC0013F0007F0ED1FFF70FFE001B0228F5D986
:1007FC00032022E0154A536823F40033A1680B430D
:10080C005360DCE7002018E0002016E0012B16D026
:10081C000E4B5B6803F48031226A914211D103F4D0
:10082C007013626A93420ED1002006E001207047DB
:10083C00012002E0012000E0184602B070BD01204A
:10084C00FBE70120F9E70120F7E700BF00100240A9
:10085C00000042420F4B5B6803F00C02082A01D0E7
:10086C000D487047C3F383420C49885C13F4803FF6
:10087C000BD0084B5B68C3F34043094AD35C064A70
:10088C0002FB00F0B0FBF3F07047064B03FB00F0EB
:10089C00704700BF0010024000127A00D00D000813
:1008AC00CC0D000800093D00002800F0A08070B5B8
:1008BC000D460446524B1B6803F007038B420BD2C8
:1008CC004F4A136823F007030B431360136803F0BC
:1008DC0007038B4240F08D80236813F0020F17D072
:1008EC0013F0040F04D0474A536843F4E063536099
:1008FC00236813F0080F04D0424A536843F4605342
:10090C005360404A536823F0F003A1680B435360D3
:10091C00236813F0010F31D06368012B20D0022B18
:10092C0025D0384A126812F0020F64D035494A6853
:10093C0022F0030213434B60FFF766FD0646314B72
:10094C005B6803F00C036268B3EB820F16D0FFF701
:10095C005BFD801B41F288339842F0D9032045E0BF
:10096C00284A126812F4003FE0D101203EE0254AEB
:10097C00126812F0007FD9D1012037E0204B1B68A0
:10098C0003F00703AB420AD91D4A136823F007038F
:10099C002B431360136803F00703AB422DD123687C
:1009AC0013F0040F06D0174A536823F4E063E16890
:1009BC000B435360236813F0080F07D0114A536898
:1009CC0023F46053216943EAC1035360FFF742FFEC
:1009DC000C4B5B68C3F303130B4AD35CD8400B4B33
:1009EC0018600B4B1868FFF7CBFC002070BD012082
:1009FC0070470120FAE70120F8E70120F6E700BF75
:100A0C000020024000100240E00D00080800002009
:100A1C0004000020014B1868704700BF080000203C
:100A2C0070B582B04FF0000EF446A4E0012B28D034
:100A3C00022B03D1CB6803F1080E24E01BBB8B689F
:100A4C00002B65D0012B5CD042614FF0080E1AE0F0
:100A5C00664DAB42F3D00CD8A5F58015AB42EED069
:100A6C0005F57025AB42EAD0A5F58015AB42E6D072
:100A7C0009E05F4DAB42E2D005F58035AB42DED0EC
:100A8C0001E0D1F80CE0FF2C45D806464FEA8C0269
:100A9C0033680F25954023EA05030EFA02F213433F
:100AAC0033604B6813F0805F63D0524B9A6942F00D
:100ABC0001029A619B6903F001030193019B4FEAC8
:100ACC009C02951C4C4B53F825600CF00305AD00B3
:100ADC000F23AB4026EA0306484B984222D003F57D
:100AEC008063984263D003F58063984261D003F52C
:100AFC008063984214D0042315E0CB6803F10C0EEC
:100B0C00C1E702614FF0080EBDE74FF0000EBAE7E7
:100B1C004FF0040EB7E7061DACF108029200B7E7E0
:100B2C00032300E00023AB4033430232324D45F83F
:100B3C0022304B6813F4801F3DD0314A9368234315
:100B4C0093604B6813F4001F3BD02D4AD3682343AA
:100B5C00D3604B6813F4003F39D0294A53682343C0
:100B6C0053604B6813F4803F37D0254A13682343F6
:100B7C0013600CF1010C0B6833FA0CF233D0012228
:100B8C0002FA0CF203EA020432EA0303F1D14B68D5
:100B9C00032BBAD07FF64AAF122BAED03FF658AF2C
:100BAC00112B7FF470AFCB6803F1040E6BE70123BC
:100BBC00B9E70223B7E7124A936823EA0403936068
:100BCC00BFE70F4AD36823EA0403D360C1E70C4A9A
:100BDC00536823EA04035360C3E7094A136823EA02
:100BEC0004031360C5E702B070BD00BF0000221003
:100BFC0000003110001002400000014000080140CC
:100C0C00000401400AB10161704709040161704799
:100C1C00C36801EA030221EA030141EA02410161CE
:100C2C0070470000002808DB0901C9B200F16040E0
:100C3C0000F5614080F80013704700F00F000901C7
:100C4C00C9B2014B1954704714ED00E000B500F027
:100C5C000700A0F1030CBCF1040F07D8C0F1070E7C
:100C6C000430062806D84FF0000C03E04FF0040EB9
:100C7C004FF0000C4FF0FF3303FA0EF021EA0001A5
:100C8C0001FA0CF103FA0CF322EA030241EA020026
:100C9C0000BD0000074AD36823F4E0631B041B0C5F
:100CAC00000200F4E060034343F0BF6343F40033FD
:100CBC00D360704700ED00E010B50446054BD868D2
:100CCC00C0F30220FFF7C2FF01462046FFF7AAFF40
:100CDC0010BD00BF00ED00E00138B0F1807F0BD2F9
:100CEC004FF0E0235861054AF02182F823100020D0
:100CFC00986107221A6170470120704700ED00E0EF
:100D0C0070470000FFF7FCFF0B480C490C4A00230E
:100D1C0002E0D458C4500433C4188C42F9D3094AA5
:100D2C00094C002301E013600432A242FBD300F013
:100D3C0017F8FFF7E3FA7047000000200C000020C2
:100D4C00F80D00080C00002038000020FEE70346D8
:100D5C000244934200D1704703F8011BF9E70000ED
:100D6C0070B500260C4C0D4B1D1BB6EBA50F09D115
:100D7C00002600F019F80A4C0A4B1D1BB6EBA50F08
:100D8C0005D170BD54F8043B98470136EDE754F893
:100D9C00043B98470136F1E7F00D0008F00D000810
:100DAC00F00D0008F40D0008F8B500BFF8BC08BC45
:100DBC009E467047F8B500BFF8BC08BC9E4670470D
:100DCC000102000002030405060708090A0B0C0DBA
:100DDC000E0F1010000000000000000001020304C0
:040DEC0006070809E5
:040DF0007501000881
:040DF4004D010008A5
:0C0DF800010000001000000000127A0052
:0400000508000D11D1
:00000001FF
