:020000040800F2
:100000000050002051250008F9160008FB160008D2
:10001000FD160008FF160008011700080000000088
:1000200000000000000000000000000003170008AE
:10003000051700080000000007170008091700084E
:100040009925000899250008992500089925000898
:100050009925000899250008992500089925000888
:100060009925000899250008992500089925000878
:100070009925000899250008992500089925000868
:100080009925000899250008992500089925000858
:100090009925000899250008992500089925000848
:1000A0009925000899250008992500089925000838
:1000B0009925000899250008992500089925000828
:1000C0009925000899250008992500089925000818
:1000D0009925000899250008992500089925000808
:1000E00099250008992500089925000800000000BE
:1000F0000000000000000000000000000000000000
:0C01000000000000000000005FF808F1A3
:10010C000348044B834202D0034B03B1184770479A
:10011C005C0000205C000020000000000548064B3D
:10012C001B1AD90F01EBA301491002D0034B03B1E9
:10013C00184770475C0000205C00002000000000A5
:10014C0010B5064C237843B9FFF7DAFF044B13B113
:10015C000448AFF300800123237010BD5C00002025
:10016C00000000009C25000808B5044B1BB1044995
:10017C000448AFF30080BDE80840CFE70000000062
:10018C00600000209C25000870B50F4B0F4DAB4252
:10019C00A3EB050607D00024B61055F8043B013438
:1001AC009847A642F9D802F0F3F9094D094B5E1BAA
:1001BC00AB424FEAA60606D0002455F8043B0134A6
:1001CC009847A642F9D870BDF8270008F827000810
:1001DC00F8270008FC27000870B5860747D0541E86
:1001EC00002A3ED00346CAB201E0013C39D303F8E1
:1001FC00012B9D07F9D1032C2CD9CDB205EB05258C
:10020C000F2C1A4605EB054534D9A4F1100C2CF033
:10021C000F0603F1100EB6444FEA1C1CC2E9005540
:10022C00C2E9025510327245F8D10CF1010214F0FA
:10023C000C0F03EB021204F00F0C13D0ACF10403FF
:10024C0023F003030433134442F8045B9342FBD1C1
:10025C000CF003042CB1C9B21C4403F8011BA342DB
:10026C00FBD170BD64461346002CF4D1F9E703466C
:10027C001446C0E7A446E1E7014B1868704700BF7D
:10028C000000002008B410B5002A04469DB034DBF1
:10029C004FF4027C4FF00003ADF814C01B934FF6E3
:1002AC00FF7C0291069120AB15D0013A0492079283
:1002BC0002A91F9A0193ADF816C000F051F9421C27
:1002CC0001DA8B2323600022029B1A701DB0BDE85B
:1002DC00104001B070470492079202A91F9A019333
:1002EC00ADF816C000F03CF9431C01DA8B232360F7
:1002FC001DB0BDE8104001B070478B234FF0FF30AC
:10030C002360F5E70CB410B5204B00291C689CB099
:10031C0036DB4FF000034FF402721B934FF6FF7C59
:10032C0002900690ADF814201FAB16D001391E9A1E
:10033C0004910791204602A90193ADF816C000F074
:10034C000FF9421C01DA8B2323600022029B1A70E6
:10035C001CB0BDE8104002B07047049107912046D4
:10036C001E9A02A90193ADF816C000F0F9F8431CCF
:10037C0001DA8B2323601CB0BDE8104002B070473B
:10038C008B234FF0FF302360F5E700BF0000002007
:10039C002DE9F0471D468F680C46AF4216460B6898
:1003AC0036D8B1F90CC01CF4906F0ED13D461846EE
:1003BC0031462A4600F0F0FA0020A368DF1B2368C0
:1003CC00A7602B442360BDE8F0874A69096902EBFA
:1003DC0042025F1A02EBD2726B1C52103B449342E6
:1003EC0092BF914699461A461CF4806F804611D0F4
:1003FC00114600F0F3F9824600B33A46216900F049
:10040C0049FBA38923F4906343F08003A38105E0A7
:10041C002F46CCE700F0B4FB824658B10AEB070339
:10042C00A9EB0707A760C4F810A02F46C4F81490D6
:10043C002360BCE74046216900F050FA0C22A389E6
:10044C004FF0FF3043F04003C8F80020A381BAE717
:10045C002DE9F04F936883B0924617680190002BFA
:10046C0076D04FF0000B0C465D468B680A6848E06E
:10047C00B4F90CC01CF4906F2FD0D4E90403A2EB98
:10048C00000803EB430202EBD27208F10101521097
:10049C002944914292BF914689460A461CF4806FCA
:1004AC0039D01146019800F099F9064600283DD044
:1004BC004246216900F0EEFAA28922F4906242F0E1
:1004CC008002A28106EB0800A9EB08022661A8466F
:1004DC002E46A2602060C4F814903246594600F0B3
:1004EC005BFADAF80810A3682268A3EB080332441D
:1004FC00491BA3602260CAF8081049B3D7E900B5BC
:10050C00083798461046002DF8D09D421E46AFD2B3
:10051C00A8462E46E1E70146019800F031FB06465D
:10052C000028CFD10198216900F0D8F90C21A389BA
:10053C00019D43F0400329600022A3814FF0FF305E
:10054C000023CAF80820CAF8043003B0BDE8F08FC5
:10055C0000200023CAF8043003B0BDE8F08F00BFC0
:10056C002DE9F04F1C468B8989461D068246934621
:10057C009DB003D50B69002B00F0EE80002343F2F5
:10058C00200209939BF8003001277C4E0394ADF8B0
:10059C002920002B71D05D4603E015F8013F002B9C
:1005AC0073D0252BF9D1B5EB0B0471D12A78002A25
:1005BC0063D000234FF0FF320135CDE905230493BE
:1005CC0007938DF853301A9306E02546049B801B45
:1005DC0007FA00F0034304932C46052214F8011B80
:1005EC00304600F0D7FCA3460028EED1049BD90678
:1005FC0044BF20228DF853201A0748BF2B2229789C
:10060C0048BF8DF853202A294FD1039A1168043220
:10061C00002903927BDB079169782E295BD0584C1B
:10062C000322204600F0B6FC38B14022049B001B8C
:10063C00824013430BF1010B04931BF8011B0622A0
:10064C0050488DF8281000F0A5FC002865D04E4BC2
:10065C00002B55D003A900914A4650464B4B04A998
:10066C00AFF300808046B8F1FF3F06D0099B4344AE
:10067C0009939BF80030002B8DD1B9F80C305B0638
:10068C0079D409981DB0BDE8F08FB5EB0B04F4D00C
:10069C0023465A4649465046FFF77AFE0130ECD0C5
:1006AC00099B2A782344099381E7A1F13002092A96
:1006BC0088BFAB46B1D8079B00E00134217803EB2F
:1006CC00830302EB4303A1F13002092AF5D92E2949
:1006DC00A3460793A3D19BF801102A2927D1039B8A
:1006EC000BF102001A680433002A0393B8BF4FF0D1
:1006FC00FF339BF8021005928346B8BF05938EE733
:10070C00039B073323F0070308330393AEE74942F7
:10071C0043F00203079104937EE703A900914A4634
:10072C0050461A4B04A900F0EFFA80469BE70023D1
:10073C00A1F13002092A0BF1010B05933FF66FAFC3
:10074C001BF8011F03EB830302EB4303A1F13002FF
:10075C00092AF5D9059362E7402100F03FF8C9F862
:10076C000000C9F8100018B14023C9F8143005E78F
:10077C000C23CAF800304FF0FF3083E7C82500087F
:10078C00D0250008D4250008000000009D030008B7
:10079C0070B5114E054633680C46BBB12146284650
:1007AC0000F044FC431C01460CD0C41C24F0030490
:1007BC00A04205D02846611A00F038FC013001D067
:1007CC00204670BD4FF0FF34204670BD194600F036
:1007DC002DFC3060E2E700BFB40100202DE9F843A6
:1007EC00CD1C25F0030508350C2D38BF0C25002D2C
:1007FC00064618DBA94216D8DFF8DC8000F0C6FBF1
:10080C00D8F80420A2B1144603E0636822467BB1F9
:10081C001C4623685B1BF8D40B2B1FD894426368CF
:10082C0054D053600CE00C2333600020BDE8F883F7
:10083C0029463046FFF7ACFF431C044619D005602F
:10084C00304600F0A5FB04F10B00231D20F007003F
:10085C00C21A1CBF1B1AA350BDE8F883611994423D
:10086C00256014BF5160C8F80410635163684B6075
:10087C00E6E7D8F804701FB33C467F68002FFBD125
:10088C0023683946304604EB030900F0CFFB814561
:10089C0016D123683046ED1A2946FFF779FF01304F
:1008AC000ED02368D8F804202B442360536883B1FE
:1008BC00A34203D01A465B689C42FBD10023B0E7ED
:1008CC000C233046336000F063FBAEE7C8F804300D
:1008DC00B6E7C8F80470B3E7B4010020002950D083
:1008EC0038B551F8043C0C1F002BB8BFE418054672
:1008FC0000F04CFB274A13682BB1A3420CD921689A
:10090C00601883422CD0284663601460BDE83840E0
:10091C0000F03EBBA3420FD81A465B68002BF9D1FE
:10092C0011685018844217D02CD363605460284649
:10093C00BDE8384000F02CBB11685018A04214D010
:10094C0020D8216860188342EFD118685B6808448E
:10095C00C4E900035460EAE723680B441360E6E73C
:10096C0018685B6808442060CDE720680144501883
:10097C0083421160DBD1D3E900040144C2E90014C5
:10098C00D5E770470C2328462B60BDE8384000F0B3
:10099C00FFBA00BFB801002088420ED98B188342E1
:1009AC000BD900EB020C002A6DD0624613F801CD76
:1009BC00994202F801CDF9D170470F2A0FD803469E
:1009CC0002F1FF3C002A5ED00CF1010C013B8C447F
:1009DC0011F8012B614503F8012FF9D1704740EA5A
:1009EC0001039B0750D1A2F1100370B501F1200C4B
:1009FC0023F00F0501F1100E00F11004AC441B099B
:100A0C005EF8105C0EF1100E44F8105C5EF81C5C85
:100A1C00103444F81C5C5EF8185C44F8185C5EF802
:100A2C00145CE64544F8145CEAD1013312F00C0F67
:100A3C0001EB031102F00F0400EB031328D08E46D8
:100A4C00043C24F003064FEA940C1E441C1F5EF871
:100A5C00045B44F8045FB442F9D10CF1010402F0D8
:100A6C00030203EB840301EB840102F1FF3C4AB166
:100A7C000CF1010C013B8C4411F8012B614503F87E
:100A8C00012FF9D170BD7047034602F1FF3C9BE783
:100A9C002246EAE7844641EA000313F0030349D1F6
:100AAC00403A23D30B6803604B6843608B688360C8
:100ABC00CB68C3600B6903614B6943618B698361CC
:100ACC00CB69C3610B6A03624B6A43628B6A8362B4
:100ADC00CB6AC3620B6B03634B6B43638B6B83639C
:100AEC00CB6BC36340304031403ADBD230320BD356
:100AFC000B6803604B6843608B688360CB68C36092
:100B0C0010301031103AF3D20C3205D351F8043BAB
:100B1C0040F8043B043AF9D2043208D0D2071CBF87
:100B2C0011F8013B00F8013B01D30B8803806046B0
:100B3C00704700BF082A13D38B07B1D010F0030302
:100B4C00AED0C3F10403D21ADB071CBF11F8013B72
:100B5C0000F8013BA4D331F8023B20F8023B9FE79D
:100B6C00043AD9D3013A11F8013B00F8013BF9D210
:100B7C000B7803704B7843708B78837060467047AA
:100B8C002DE9F041144641B30AB306460D4600F078
:100B9C005FFA8442074602D8B4EB500F13D82146B3
:100BAC003046FFF71BFE804650B1BC422246294618
:100BBC0028BF3A46FFF76EFF29463046FFF78EFEF8
:100BCC004046BDE8F081A8464046BDE8F081A0460D
:100BDC00FFF784FE4046BDE8F0811146BDE8F041C8
:100BEC00FFF7FCBD2DE9F84F92461F460A698B684A
:100BFC000C469A42B8BF1A46CAF8002091F8433006
:100C0C000646DDF8289013B10132CAF8002022689C
:100C1C0091065FD5DAF800300233CAF8003022684A
:100C2C0012F0060F11461DD1E1689942D8BF11464A
:100C3C0018DD4FF0000804F1190B05E0E568DAF84F
:100C4C000030ED1A45450CDD01235A463946304635
:100C5C00C847013008F10108F0D14FF0FF30BDE872
:100C6C00F88F216894F84330003B18BF01238A06A3
:100C7C000AD53021E21882F8431094F845105A1C1A
:100C8C002244023382F843103946304604F14302C1
:100C9C00C8470130E1D0D4E902202368DAF80050CB
:100CAC0003F00603042B21691BD08A4220DD4FF090
:100CBC000008521A904400251A3401E0454517DA11
:100CCC000123224639463046C847013005F101055B
:100CDC00F4D1C2E712F0060F0DD0003B18BF012370
:100CEC00D2E7401B8A4220EAE078E2DC0028E2DC12
:100CFC000020BDE8F88FE168DAF800309942D8BFDF
:100D0C00114696DCAEE700BF2DE9F04717460A7E88
:100D1C0084B00C46064698460C9D01F1430C002A03
:100D2C0035D0A2F15803D9B2202969D8202B67D825
:100D3C00DFE813F0E60066006600660066006600F9
:100D4C0066006600660066006600AC007000660017
:100D5C00660066006600700066006600660066004D
:100D6C0021008300C60066006600B60066008300A2
:100D7C0066006600EC002B682268181D616928600B
:100D8C0010061B6802D4520600F1E08019600023A3
:100D9C00E14623613B4621463046CDF8008003AA4C
:100DAC00FFF720FF013020D04A46394630462369F0
:100DBC00C047013019D02368E0689B07DDF80C9020
:100DCC0018D5484516DD002504F1190A04E0E06841
:100DDC00A0EB0903AB420DDD0123524639463046E8
:100DEC00C047013005F10105F1D14FF0FF3004B0DF
:100DFC00BDE8F0874845B8BF484604B0BDE8F08769
:100E0C00012084F8422004F142090023206184F877
:100E1C004330BFE72A682368111D1806296002D4E5
:100E2C00590600F195801068014600286268C0F2EE
:100E3C0093804FF00A0E534815E020682B6810F091
:100E4C00800F53F8041B02D1400648BF89B26F2AA9
:100E5C0014BF4FF00A0E4FF0080E4A482B600023C7
:100E6C00626884F84330002AA26051DB236823F0C7
:100E7C000403236000294BD1002A7BD1E146BEF14B
:100E8C00080F56D0ACEB0903236183E72A680120D5
:100E9C00116804322A6004F1420984F84210B4E764
:100EAC002B6800211A1D2A60D3F80090626848460E
:100EBC0000F070F8002863D0A0EB09006060A4E794
:100ECC00236843F02003236078222F4884F84520C0
:100EDC002A6813F0800F52F8041B03D113F0400F53
:100EEC0018BF89B22A60DA0744BF43F0200323609D
:100EFC0019B9236823F0200323604FF0100EAEE7DE
:100F0C005823204884F845302368E1E72368DBE761
:100F1C007546E146B1FBF5F30A4605FB131A194673
:100F2C0010F80A30AA4209F8013DF3D2BEF1080FBD
:100F3C00A8D12368DD07A5D5626823699A42A1DC94
:100F4C00302309F1FF3989F800309BE719801EE73F
:100F5C00B2F90010084668E72D20002AA26084F838
:100F6C00430002DB23F0040323600A250548AE4648
:100F7C004942CEE7037804F1420984F842307EE717
:100F8C00606842E7DC250008F0250008704700BFC8
:100F9C00704700BF5FFA81FC810744D00346511EA5
:100FAC0022B909E09A0709D0013905D3184602780D
:100FBC0001336245F6D1704700207047184603296B
:100FCC000CD80029F8D00346014401E08B42F3D041
:100FDC00184613F8012B6245F8D1704710B50CEB8D
:100FEC000C24024604EB044402E00439032915D90D
:100FFC00104652F8043B6340A3F1013E2EEA030372
:10100C0013F0803FF1D00346014401E08B4208D03D
:10101C00184613F8012B6245F8D110BD1046002973
:10102C00F1D1002010BD1146C9E700BF002238B530
:10103C00064D044608462A6001F060FA431C00D0B5
:10104C0038BD2B68002BFBD0236038BDBC010020C1
:10105C0051F8043C181F002BBCBF0B58C01870472C
:10106C0030B589B01A4B9A6942F020029A619A699C
:10107C0002F020020192019A9A6942F004029A61EC
:10108C009A6902F004020292029A9A6942F00802EA
:10109C009A619B6903F008030393039B0024049457
:1010AC000594069407940B4D01224FF47071284659
:1010BC0001F0B2F94FF47073049301230593069475
:1010CC000323079304A9284601F098F809B030BD12
:1010DC0000100240000C014072B6FEE708B50D4846
:1010EC000D4B03604FF48273436000238360C36035
:1010FC00036143614FF400728261C3610362436216
:10110C0083620A23C36200F0DFFB00B908BDFFF75E
:10111C00E3FF00BFC00100200030014000B591B0DA
:10112C002822002106A8FFF757F800230193029309
:10113C00039304930593012206924FF48033079393
:10114C000A9202220D920E934FF4E0130F9306A80D
:10115C0000F06CFD80B90F23019302210291002352
:10116C0003934FF480620492059301A800F090FF62
:10117C0020B911B05DF804FBFFF7AEFFFFF7ACFF31
:10118C0030B583B000F004FDFFF7C8FFFFF768FF30
:10119C00FFF7A4FF00F0FCF8002000F0EDF80225AA
:1011AC000195002400944FF6FF73154A14210A2070
:1011BC0000F056FA4FF47A7000F00EFD204600F065
:1011CC00DBF8019500944FF6FF730E4A142128208A
:1011DC0000F046FA03E04FF47A7000F0FDFC0323B4
:1011EC0001930023009340F2FF7322463C213220EE
:1011FC0000F060FA013424B23C2CECDD0024EAE768
:10120C00B4250008BC25000800B583B08DF8070094
:10121C004FF0FF3301220DF10701034800F0AFFB43
:10122C0003B05DF804FB00BFC001002038B50546D3
:10123C00094C01228021204601F0EEF800224021C9
:10124C00204601F0E9F82846FFF7DEFF0122402195
:10125C00204601F0E1F838BD000C014038B50546D8
:10126C00094C00228021204601F0D6F800224021B2
:10127C00204601F0D1F82846FFF7C6FF0122402195
:10128C00204601F0C9F838BD000C0140F8B50746FE
:10129C000D4616461C462A20FFF7E0FF0020FFF7FC
:1012AC00C5FFF8B2FFF7C2FF0020FFF7BFFFF0B297
:1012BC00FFF7BCFF2B20FFF7D1FF0020FFF7B6FF95
:1012CC00E8B2FFF7B3FF0020FFF7B0FFE0B2FFF783
:1012DC00ADFF2C20FFF7C2FFF8BD000008B50122BE
:1012EC004FF40071014801F097F808BD000C014063
:1012FC002DE9F041BDF818707F2839D816461D46E7
:10130C009F2935D88318802B02DDC0F18006B6B238
:10131C004B19A02B02DDC1F1A005ADB2321892B26F
:10132C006B189BB2013B013A9BB292B2FFF7AEFF36
:10133C004FEA1728FFB20F4C01228021204601F002
:10134C006BF800224021204601F066F8002406E0EC
:10135C004046FFF759FF3846FFF756FF013406FBAE
:10136C0005F3A342F4D801224021024801F054F8BD
:10137C00BDE8F081000C014000B583B00090A023C3
:10138C00802200210846FFF7B3FF03B05DF804FB91
:10139C0010B5854C00224FF48071204601F03CF8CA
:1013AC000A2000F019FC01224FF48071204601F054
:1013BC0033F8782000F010FC0120FFF74FFF962047
:1013CC0000F00AFC1120FFF749FF4FF4FA7000F00F
:1013DC0003FCB120FFF742FF0120FFF727FF2C2071
:1013EC00FFF724FF2D20FFF721FFB220FFF736FF78
:1013FC000120FFF71BFF2C20FFF718FF2D20FFF714
:10140C0015FFB320FFF72AFF0120FFF70FFF2C2059
:10141C00FFF70CFF2D20FFF709FF0120FFF706FF58
:10142C002C20FFF703FF2D20FFF700FFB420FFF760
:10143C0015FF0720FFF7FAFEC020FFF70FFFA220D1
:10144C00FFF7F4FE0220FFF7F1FE8420FFF7EEFE1B
:10145C00C120FFF703FFC520FFF7E8FEC220FFF70E
:10146C00FDFE0A20FFF7E2FE0020FFF7DFFEC3209F
:10147C00FFF7F4FE8A20FFF7D9FE2A20FFF7D6FEED
:10148C00C420FFF7EBFE8A20FFF7D0FEEE20FFF71B
:10149C00CDFEC520FFF7E2FE0E20FFF7C7FE36207B
:1014AC00FFF7DCFEC820FFF7C1FE3A20FFF7D6FE9F
:1014BC000520FFF7BBFEE020FFF7D0FE0220FFF770
:1014CC00B5FE1C20FFF7B2FE0720FFF7AFFE12207F
:1014DC00FFF7ACFE3720FFF7A9FE3220FFF7A6FE80
:1014EC002920FFF7A3FE2D20FFF7A0FE2920FFF7F0
:1014FC009DFE2520FFF79AFE2B20FFF797FE392043
:10150C00FFF794FE0020FFF791FE0120FFF78EFEFF
:10151C000320FFF78BFE1020FFF788FEE120FFF77A
:10152C009DFE0320FFF782FE1D20FFF77FFE0720A4
:10153C00FFF77CFE0620FFF779FE2E20FFF776FEE4
:10154C002C20FFF773FE2920FFF770FE2D20FFF7EC
:10155C006DFE2E20FFF76AFE2E20FFF767FE372068
:10156C00FFF764FE3F20FFF761FE0020FFF75EFEF1
:10157C000020FFF75BFE0220FFF758FE1020FFF75C
:10158C0055FE1320FFF76AFE0A2000F025FB2920E8
:10159C00FFF764FE642000F01FFBFFF79FFE0020A6
:1015AC00FFF7EAFE10BD00BF000C01402DE9F04F23
:1015BC0085B00746894611469846BDF838A09DF877
:1015CC003C50A2F12003DBB25A2B00D92021203948
:1015DC0001EB8101214BCB1803934FF0000B21E061
:1015EC00CDF800802B462A46FFF782FE0134E4B288
:1015FC00062C13D805FB0B7080B205FB049189B245
:10160C0046FA04F313F0010FEAD1C245EED0CDF83F
:10161C0000A02B462A46FFF76BFEE7E70BF1010211
:10162C005FFA82FBBBF1040F04D8039B13F80B6029
:10163C000024DDE7C24502D105B0BDE8F08FC5EB53
:10164C00C50305EB85017818CDF800A09BB22A469E
:10165C00494680B2FFF74CFEEEE700BF04260008B7
:10166C002DE9F04383B005460F4616469846BDF863
:10167C0028909DF82C403278C2B101360194CDF8F7
:10168C000090434639462846FFF790FF04EB44038D
:10169C0005EB43039DB204EB440005EB40008028AE
:1016AC00E9DD07EBC407BFB20025E4E703B0BDE8F2
:1016BC00F083000070B586B004460D461E461346F6
:1016CC00094A102102A8FEF71DFE9DF82C3001934B
:1016DC00BDF828300093334602AA29462046FFF76E
:1016EC00BFFF06B070BD00BFC4250008FEE7FEE7D3
:1016FC00FEE7FEE7FEE770477047704708B500F05D
:10170C0059FA08BD82B00E4B9A6942F001029A61F7
:10171C009A6902F001020092009ADA6942F0805252
:10172C00DA61DB6903F080530193019B054A53682E
:10173C0023F0E06343F08063536002B0704700BF56
:10174C00001002400000014010B586B00023029347
:10175C000393049305930268164B9A4201D006B08A
:10176C0010BD03F560439A6942F480529A619A69FC
:10177C0002F480520092009A9A6942F004029A6133
:10178C009B6903F004030193019BA02302930223A2
:10179C00039303230593084C02A9204600F02EFD69
:1017AC004023029300230393049302A9204600F0E4
:1017BC0025FDD4E700300140000801402DE9F04739
:1017CC0082B00546884617461E4600F0FFF90A9B74
:1017DC001B1A03EB060900F0F9F98246284B1B682B
:1017EC00C3F3CB3309FB03F301932B689C6838EAF2
:1017FC0004040CBF01230023BB423DD0B6F1FF3FD4
:10180C00F3D000F0E3F9A0EB0A00484507D2019AA7
:10181C0002B14A46019B013B01939146E5E72A68D8
:10182C00536823F0E00353606B68B3F5827F0BD0F1
:10183C00AB6AB3F5005F14D0012385F85130002357
:10184C0085F85030032018E0AB68B3F5004F02D098
:10185C00B3F5806FECD12A68136823F04003136052
:10186C00E6E72A68136823F4005313602A681368A8
:10187C0043F400531360DFE7002002B0BDE8F087AB
:10188C005800002070B582B006460C4615460092F2
:10189C000B4601220221FFF791FF48B90095234620
:1018AC00002280213046FFF789FF38B902B070BDA5
:1018BC00736D43F0200373650320F7E7736D43F0FA
:1018CC00200373650320F1E7002856D010B50446B9
:1018DC00436A33B94368B3F5827F05D00023C361F3
:1018EC0002E00023036143610023A36294F85130AA
:1018FC00002B3CD0022384F851302268136823F06B
:10190C0040031360636803F48273A26802F4044218
:10191C001343E26802F400621343226902F00202EC
:10192C001343626902F001021343A26902F40072CC
:10193C001343E26902F038021343226A02F0800278
:10194C001343A26A02F40052216813430B60638BA9
:10195C00226803F0040353602268D36923F4006304
:10196C00D36100206065012384F8513010BD84F8E8
:10197C0050302046FFF7E8FEBCE7012070472DE908
:10198C00F04383B00446894690461D4600F01EF98C
:10199C0094F85160F6B2012E40F0CC800746B9F1B4
:1019AC00000F00F0C880B8F1000F00F0C48094F86C
:1019BC005030012B00F0C380012384F850300323F6
:1019CC0084F8513000236365C4F83090A4F8348057
:1019DC00A4F83680A363A387E38763642364A368B6
:1019EC00B3F5004F1ED023681A6812F0400F03D1D4
:1019FC001A6842F040021A60E368B3F5006F1CD01D
:101A0C00636813B1B8F1010F5FD1226B23681278B0
:101A1C001A73236B01332363E38E9BB2013B9BB29E
:101A2C00E38652E02268136823F0400313602268B7
:101A3C00136843F480431360D5E7636813B1B8F1BE
:101A4C00010F15D1226B23681288DA60236B0233E5
:101A5C002363E38E9BB2013B9BB2E38608E000F06C
:101A6C00B5F8C01BA84202D3B5F1FF3F15D1A5B103
:101A7C00E38E9BB2002B42D023689A6812F0020FBF
:101A8C00EDD0226B1288DA60236B02332363E38E72
:101A9C009BB2013B9BB2E386EAE7012384F8513009
:101AAC00002384F85030032645E0226B12781A7319
:101ABC00236B01332363B4F836C01FFA8CFC0CF192
:101ACC00FF3C1FFA8CFCA4F836C0E38E9BB2B3B17A
:101ADC0023689A6812F0020FE7D100F077F8C01B68
:101AEC00A84202D3B5F1FF3F01D1002DEDD1012366
:101AFC0084F85130002384F8503003261BE03A461A
:101B0C0029462046FFF7BEFE08B120236365A36873
:101B1C0033B901932368DA6801929B680193019BA6
:101B2C00012384F85130002384F85030636D13B9CD
:101B3C00002600E00226304603B0BDE8F083022602
:101B4C00F9E7000010B504460E4B1A784FF47A737F
:101B5C00B3FBF2F30C4A1068B0FBF3F000F0B8FCE6
:101B6C0068B90F2C01D901200AE0002221464FF060
:101B7C00FF3000F09DFC054B1C60002000E00120B4
:101B8C0010BD00BF50000020580000205400002061
:101B9C0008B5074A136843F010031360032000F0E4
:101BAC0075FC0F20FFF7CEFFFFF7ACFD002008BD42
:101BBC0000200240034A1168034B1B780B4413604E
:101BCC00704700BF1802002050000020014B18681D
:101BDC00704700BF1802002038B50446FFF7F6FF27
:101BEC000546B4F1FF3F02D0044B1B781C44FFF7B1
:101BFC00EDFF401BA042FAD338BD00BF50000020BF
:101C0C0082B0084B1B68084AA2FB03235B0A00FB4B
:101C1C0003F3019300BF019B5A1E0192002BF9D1D3
:101C2C0002B0704758000020D34D6210002800F01D
:101C3C00F18170B582B00446036813F0010F2CD00B
:101C4C00994B5B6803F00C03042B1DD0964B5B681F
:101C5C0003F00C03082B12D06368B3F5803F41D01E
:101C6C00002B55D103F1804303F504331A6822F499
:101C7C0080321A601A6822F480221A6037E08A4B8C
:101C8C005B6813F4803FE7D0874B1B6813F4003F6D
:101C9C0003D06368002B00F0BF81236813F0020FA0
:101CAC0075D0814B5B6813F00C0F5FD07E4B5B687B
:101CBC0003F00C03082B54D02369002B00F08A800E
:101CCC007A4B01221A60FFF781FF0546764B1B68A1
:101CDC0013F0020F75D1FFF779FF401B0228F5D9DD
:101CEC0003209EE1704A136843F4803313606368E9
:101CFC0043B3FFF76BFF05466B4B1B6813F4003FB8
:101D0C00CBD1FFF763FF401B6428F5D9032088E192
:101D1C00B3F5A02F09D0644B1A6822F480321A60F4
:101D2C001A6822F480221A60E1E703F18043A3F5DC
:101D3C003C331A6842F480221A601A6842F48032EA
:101D4C001A60D4E7FFF742FF0546574B1B6813F4A4
:101D5C00003FA2D0FFF73AFF401B6428F5D90320BF
:101D6C005FE1514B5B6813F4803FA5D14E4B1B6870
:101D7C0013F0020F03D02369012B40F04F814A4A24
:101D8C00136823F0F803616943EAC1031360236805
:101D9C0013F0080F33D0A369002B5CD0434B012206
:101DAC00C3F88024FFF712FF05463F4B5B6A13F024
:101DBC00020F21D1FFF70AFF401B0228F5D903209F
:101DCC002FE1394A136823F0F803616943EAC10330
:101DDC001360DCE7354B00221A60FFF7F7FE05466F
:101DEC00314B1B6813F0020FD1D0FFF7EFFE401BF5
:101DFC000228F5D9032014E10120FFF701FF236825
:101E0C0013F0040F00F09680274BDB6913F0805F12
:101E1C0034D1254BDA6942F08052DA61DB6903F088
:101E2C0080530193019B0125214B1B6813F4807F88
:101E3C0026D0E368012B3DD0002B53D103F1804316
:101E4C0003F504331A6A22F001021A621A6A22F0AC
:101E5C0004021A6233E0154B0022C3F88024FFF70A
:101E6C00B5FE0546104B5B6A13F0020FC7D0FFF7A7
:101E7C00ADFE401B0228F5D90320D2E00025D3E7A4
:101E8C000B4A136843F480731360FFF79FFE0646FA
:101E9C00074B1B6813F4807FCBD1FFF797FE801B99
:101EAC006428F5D90320BCE0001002400000424237
:101EBC00007000405F4A136A43F001031362E36849
:101ECC0033B3FFF783FE06465A4B1B6A13F0020F1F
:101EDC002FD1FFF77BFE801B41F288339842F3D958
:101EEC0003209EE0052B09D0524B1A6A22F0010206
:101EFC001A621A6A22F004021A62E0E74D4B1A6A5F
:101F0C0042F004021A621A6A42F001021A62D6E71F
:101F1C00FFF75CFE0646474B1B6A13F0020F08D016
:101F2C00FFF754FE801B41F288339842F3D903200B
:101F3C0077E0E5B9E369002B72D03E4A526802F0B3
:101F4C000C02082A56D0022B17D03B4B00221A66E3
:101F5C00FFF73CFE0446374B1B6813F0007F47D05D
:101F6C00FFF734FE001B0228F5D9032059E0314A53
:101F7C00D36923F08053D361DCE72F4B00221A6620
:101F8C00FFF724FE05462B4B1B6813F0007F06D091
:101F9C00FFF71CFE401B0228F5D9032041E0236A01
:101FAC00B3F5803F1AD023494B6823F47413226A8B
:101FBC00606A024313434B601F4B01221A66FFF702
:101FCC0005FE04461B4B1B6813F0007F0ED1FFF778
:101FDC00FDFD001B0228F5D9032022E0154A5368A9
:101FEC0023F40033A1680B435360DCE7002018E0B6
:101FFC00002016E0012B16D00E4B5B6803F48031E9
:10200C00226A914211D103F47013626A93420ED189
:10201C00002006E001207047012002E0012000E0D2
:10202C00002002B070BD0120FBE70120F9E7012080
:10203C00F7E700BF00100240000042420F4B5B6804
:10204C0003F00C02082A01D00D487047C3F38342F9
:10205C000C49885C13F4803F0BD0084B5B68C3F3CE
:10206C004043094AD35C064A02FB00F0B0FBF3F094
:10207C007047064B03FB00F0704700BF0010024096
:10208C0000127A00D0270008CC27000800093D0078
:10209C00002800F0A08070B50D460446524B1B681A
:1020AC0003F007038B420BD24F4A136823F007034C
:1020BC000B431360136803F007038B4240F08D80D1
:1020CC00236813F0020F17D013F0040F04D0474A03
:1020DC00536843F4E0635360236813F0080F04D093
:1020EC00424A536843F460535360404A536823F0A8
:1020FC00F003A1680B435360236813F0010F31D038
:10210C006368012B20D0022B25D0384A126812F0BC
:10211C00020F64D035494A6822F0030213434B6026
:10212C00FFF754FD0646314B5B6803F00C03626805
:10213C00B3EB820F16D0FFF749FD801B41F28833B9
:10214C009842F0D9032045E0284A126812F4003F67
:10215C00E0D101203EE0254A126812F0007FD9D16F
:10216C00012037E0204B1B6803F00703AB420AD970
:10217C001D4A136823F007032B431360136803F005
:10218C000703AB422DD1236813F0040F06D0174A76
:10219C00536823F4E063E1680B435360236813F046
:1021AC00080F07D0114A536823F46053216943EA9E
:1021BC00C1035360FFF742FF0C4B5B68C3F303137F
:1021CC000B4AD35CD8400B4B18600B4B1868FFF7CD
:1021DC00B9FC002070BD012070470120FAE70120F6
:1021EC00F8E70120F6E700BF002002400010024093
:1021FC00E0270008580000205400002070B582B081
:10220C000024A446A1E07E4DAB4214D00CD8A5F519
:10221C008015AB420FD005F57025AB420BD0A5F560
:10222C008015AB4210D106E0764DAB4203D005F5DC
:10223C008035AB4208D18B68002B50D0012B49D094
:10224C004261082400E0CC68BEF1FF0F49D8064675
:10225C004FEA8C0233680F25954023EA050304FAF4
:10226C0002F2134333604B6813F0805F6BD0664B04
:10227C009A6942F001029A619B6903F00103019390
:10228C00019B4FEA9C02951C604B53F825600CF0A7
:10229C000305AD000F23AB4026EA03065C4B9842C6
:1022AC0026D003F58063984200F08C8003F58063A0
:1022BC00984200F0898003F58063984216D004237D
:1022CC0017E0CC680434BFE7CC680834BCE7CC68B2
:1022DC000C34B9E702610824B6E70024B4E70424FF
:1022EC00B2E7061DACF108029200B3E7032300E04D
:1022FC000023AB4033430232444D45F822304B6847
:10230C0013F4801F62D0434A936843EA0E03936030
:10231C004B6813F4001F5FD03E4AD36843EA0E03A8
:10232C00D3604B6813F4003F5CD03A4A536843EADD
:10233C000E0353604B6813F4803F59D0354A136831
:10234C0043EA0E0313600CF1010C0B6833FA0CF228
:10235C0054D0012202FA0CF203EA020E32EA030311
:10236C00F1D14B68122B3FF64EAF122B3FF66CAFF0
:10237C0001A555F823F000BF4322000853220008A2
:10238C00D5220008E7220008552200085522000833
:10239C005522000855220008552200085522000835
:1023AC005522000855220008552200085522000825
:1023BC00552200085522000855220008CF2200089B
:1023CC00DB220008012394E7022392E7114A936869
:1023DC0023EA0E0393609BE70E4AD36823EA0E03AD
:1023EC00D3609EE70B4A536823EA0E035360A1E7C0
:1023FC00084A136823EA0E031360A4E702B070BD09
:10240C0000002210000031100010024000000140BA
:10241C0000080140000401400AB101617047090441
:10242C0001617047002808DB0901C9B200F1604066
:10243C0000F5614080F80013704700F00F000901AF
:10244C00C9B2014B1954704714ED00E000B500F00F
:10245C000700C0F1070CBCF1040F28BF4FF0040CAF
:10246C00031D062B0FD9C31E4FF0FF3E0EFA0CF0C6
:10247C0021EA000199400EFA03FE22EA0E0241EA1B
:10248C0002005DF804FB0023EEE70000074AD36866
:10249C0023F4E0631B041B0C000200F4E060034314
:1024AC0043F0BF6343F40033D360704700ED00E0AA
:1024BC0010B50446054BD868C0F30220FFF7C6FFE1
:1024CC0001462046FFF7AEFF10BD00BF00ED00E057
:1024DC000138B0F1807F0BD24FF0E0235861054AF0
:1024EC00F02182F823100020986107221A617047AE
:1024FC000120704700ED00E07047000010B5034666
:10250C000C4A0D490D48006840B10C480068034462
:10251C00521A934206D8094A136010BD0748084C5A
:10252C000460F2E7FDF7A8FE0C2303604FF0FF30C8
:10253C00F3E700BF00500020000400001C02002044
:10254C0020020020FFF7D8FF0B480C490C4A00234F
:10255C0002E0D458C4500433C4188C42F9D3094A4D
:10256C00094C002301E013600432A242FBD3FDF7B7
:10257C000BFEFEF705FE7047000000205C000020FB
:10258C00002800085C00002020020020FEE700006C
:10259C00F8B500BFF8BC08BC9E467047F8B500BF44
:0825AC00F8BC08BC9E46704714
:1025B400484E686F6D203700436F7574000000004B
:1025C400256C6400232D302B20000000686C4C0027
:1025D4006566674546470000303132333435363757
:1025E400383941424344454600000000303132331B
:1025F400343536373839616263646566000000003B
:10260400000000000000005F000000070007001445
:102614007F147F14242A7F2A122313086462364904
:102624005522500005030000001C224100004122F5
:102634001C0014083E081408083E08080050300026
:102644000008080808080060600000201008040260
:102654003E5149453E00427F400042615149462176
:1026640041454B311814127F1027454545393C4AE2
:102674004949300171090503364949493606494932
:10268400291E003636000000563600000814224188
:1026940000141414141400412214080201510906F0
:1026A400324979413E7E1111117E7F494949363EB6
:1026B400414141227F4141221C7F494949417F09CF
:1026C4000909013E4149497A7F0808087F00417F92
:1026D40041002040413F017F081422417F40404097
:1026E400407F020C027F7F0408107F3E4141413E3F
:1026F4007F090909063E4151215E7F091929464691
:102704004949493101017F01013F4040403F1F20B9
:1027140040201F3F4038403F63140814630708708B
:1027240008076151494543007F41410002040810F4
:10273400200041417F000402010204404040404027
:10274400000102040020545454787F48444438382B
:1027540044444420384444487F3854545418087E30
:102764000901020C5252523E7F0804047800447D51
:1027740040002040443D007F1028440000417F4039
:10278400007C041804787C080404783844444438F1
:102794007C14141408081414187C7C0804040848D5
:1027A40054545420043F4440203C4040207C1C208E
:1027B40040201C3C4030403C44281028440C5050DD
:1027C400503C4464544C44000102000002030405DC
:1027D400060708090A0B0C0D0E0F1010000000006C
:0C27E400000000000102030406070809C1
:0827F000B0E2FF7F01000000D0
:0427F800750100085F
:0427FC004D01000883
:10280000040000200000000078000020E00000200C
:10281000480100200000000000000000000000004F
:1028200000000000000000000000000000000000A8
:102830000000000000000000000000000000000098
:102840000000000000000000000000000000000088
:0C285000010000001000000000127A00DF
:040000050800255179
:00000001FF
